{
  "_format": "hh-sol-artifact-1",
  "contractName": "Nft",
  "sourceName": "contracts/mocks/NFT.sol",
  "abi": [
    {
      "inputs": [],
      "stateMutability": "nonpayable",
      "type": "constructor"
    },
    {
      "anonymous": false,
      "inputs": [
        {
          "indexed": true,
          "internalType": "address",
          "name": "owner",
          "type": "address"
        },
        {
          "indexed": true,
          "internalType": "address",
          "name": "approved",
          "type": "address"
        },
        {
          "indexed": true,
          "internalType": "uint256",
          "name": "tokenId",
          "type": "uint256"
        }
      ],
      "name": "Approval",
      "type": "event"
    },
    {
      "anonymous": false,
      "inputs": [
        {
          "indexed": true,
          "internalType": "address",
          "name": "owner",
          "type": "address"
        },
        {
          "indexed": true,
          "internalType": "address",
          "name": "operator",
          "type": "address"
        },
        {
          "indexed": false,
          "internalType": "bool",
          "name": "approved",
          "type": "bool"
        }
      ],
      "name": "ApprovalForAll",
      "type": "event"
    },
    {
      "anonymous": false,
      "inputs": [
        {
          "indexed": true,
          "internalType": "address",
          "name": "from",
          "type": "address"
        },
        {
          "indexed": true,
          "internalType": "address",
          "name": "to",
          "type": "address"
        },
        {
          "indexed": true,
          "internalType": "uint256",
          "name": "tokenId",
          "type": "uint256"
        }
      ],
      "name": "Transfer",
      "type": "event"
    },
    {
      "inputs": [
        {
          "internalType": "address",
          "name": "to",
          "type": "address"
        },
        {
          "internalType": "uint256",
          "name": "tokenId",
          "type": "uint256"
        }
      ],
      "name": "approve",
      "outputs": [],
      "stateMutability": "nonpayable",
      "type": "function"
    },
    {
      "inputs": [
        {
          "internalType": "address",
          "name": "to",
          "type": "address"
        }
      ],
      "name": "awardNft",
      "outputs": [
        {
          "internalType": "uint256",
          "name": "",
          "type": "uint256"
        }
      ],
      "stateMutability": "nonpayable",
      "type": "function"
    },
    {
      "inputs": [
        {
          "internalType": "address",
          "name": "owner",
          "type": "address"
        }
      ],
      "name": "balanceOf",
      "outputs": [
        {
          "internalType": "uint256",
          "name": "",
          "type": "uint256"
        }
      ],
      "stateMutability": "view",
      "type": "function"
    },
    {
      "inputs": [],
      "name": "baseURI",
      "outputs": [
        {
          "internalType": "string",
          "name": "",
          "type": "string"
        }
      ],
      "stateMutability": "view",
      "type": "function"
    },
    {
      "inputs": [
        {
          "internalType": "address",
          "name": "to",
          "type": "address"
        },
        {
          "internalType": "uint256",
          "name": "numTimes",
          "type": "uint256"
        }
      ],
      "name": "batchAwardNft",
      "outputs": [
        {
          "internalType": "uint256",
          "name": "",
          "type": "uint256"
        }
      ],
      "stateMutability": "nonpayable",
      "type": "function"
    },
    {
      "inputs": [
        {
          "internalType": "uint256",
          "name": "tokenId",
          "type": "uint256"
        }
      ],
      "name": "getApproved",
      "outputs": [
        {
          "internalType": "address",
          "name": "",
          "type": "address"
        }
      ],
      "stateMutability": "view",
      "type": "function"
    },
    {
      "inputs": [
        {
          "internalType": "address",
          "name": "owner",
          "type": "address"
        },
        {
          "internalType": "address",
          "name": "operator",
          "type": "address"
        }
      ],
      "name": "isApprovedForAll",
      "outputs": [
        {
          "internalType": "bool",
          "name": "",
          "type": "bool"
        }
      ],
      "stateMutability": "view",
      "type": "function"
    },
    {
      "inputs": [],
      "name": "name",
      "outputs": [
        {
          "internalType": "string",
          "name": "",
          "type": "string"
        }
      ],
      "stateMutability": "view",
      "type": "function"
    },
    {
      "inputs": [
        {
          "internalType": "uint256",
          "name": "tokenId",
          "type": "uint256"
        }
      ],
      "name": "ownerOf",
      "outputs": [
        {
          "internalType": "address",
          "name": "",
          "type": "address"
        }
      ],
      "stateMutability": "view",
      "type": "function"
    },
    {
      "inputs": [
        {
          "internalType": "address",
          "name": "from",
          "type": "address"
        },
        {
          "internalType": "address",
          "name": "to",
          "type": "address"
        },
        {
          "internalType": "uint256",
          "name": "tokenId",
          "type": "uint256"
        }
      ],
      "name": "safeTransferFrom",
      "outputs": [],
      "stateMutability": "nonpayable",
      "type": "function"
    },
    {
      "inputs": [
        {
          "internalType": "address",
          "name": "from",
          "type": "address"
        },
        {
          "internalType": "address",
          "name": "to",
          "type": "address"
        },
        {
          "internalType": "uint256",
          "name": "tokenId",
          "type": "uint256"
        },
        {
          "internalType": "bytes",
          "name": "_data",
          "type": "bytes"
        }
      ],
      "name": "safeTransferFrom",
      "outputs": [],
      "stateMutability": "nonpayable",
      "type": "function"
    },
    {
      "inputs": [
        {
          "internalType": "address",
          "name": "operator",
          "type": "address"
        },
        {
          "internalType": "bool",
          "name": "approved",
          "type": "bool"
        }
      ],
      "name": "setApprovalForAll",
      "outputs": [],
      "stateMutability": "nonpayable",
      "type": "function"
    },
    {
      "inputs": [
        {
          "internalType": "bytes4",
          "name": "interfaceId",
          "type": "bytes4"
        }
      ],
      "name": "supportsInterface",
      "outputs": [
        {
          "internalType": "bool",
          "name": "",
          "type": "bool"
        }
      ],
      "stateMutability": "view",
      "type": "function"
    },
    {
      "inputs": [],
      "name": "symbol",
      "outputs": [
        {
          "internalType": "string",
          "name": "",
          "type": "string"
        }
      ],
      "stateMutability": "view",
      "type": "function"
    },
    {
      "inputs": [
        {
          "internalType": "uint256",
          "name": "index",
          "type": "uint256"
        }
      ],
      "name": "tokenByIndex",
      "outputs": [
        {
          "internalType": "uint256",
          "name": "",
          "type": "uint256"
        }
      ],
      "stateMutability": "view",
      "type": "function"
    },
    {
      "inputs": [
        {
          "internalType": "address",
          "name": "owner",
          "type": "address"
        },
        {
          "internalType": "uint256",
          "name": "index",
          "type": "uint256"
        }
      ],
      "name": "tokenOfOwnerByIndex",
      "outputs": [
        {
          "internalType": "uint256",
          "name": "",
          "type": "uint256"
        }
      ],
      "stateMutability": "view",
      "type": "function"
    },
    {
      "inputs": [
        {
          "internalType": "uint256",
          "name": "tokenId",
          "type": "uint256"
        }
      ],
      "name": "tokenURI",
      "outputs": [
        {
          "internalType": "string",
          "name": "",
          "type": "string"
        }
      ],
      "stateMutability": "view",
      "type": "function"
    },
    {
      "inputs": [],
      "name": "totalSupply",
      "outputs": [
        {
          "internalType": "uint256",
          "name": "",
          "type": "uint256"
        }
      ],
      "stateMutability": "view",
      "type": "function"
    },
    {
      "inputs": [
        {
          "internalType": "address",
          "name": "from",
          "type": "address"
        },
        {
          "internalType": "address",
          "name": "to",
          "type": "address"
        },
        {
          "internalType": "uint256",
          "name": "tokenId",
          "type": "uint256"
        }
      ],
      "name": "transferFrom",
      "outputs": [],
      "stateMutability": "nonpayable",
      "type": "function"
    }
  ],
  "bytecode": "0x610260604052604d6101e08181526080918291906200226b6102003981526020016040518060800160405280604d815260200162002352604d913981526020016040518060800160405280604d81526020016200239f604d913981526020016040518060800160405280604d81526020016200221e604d913981526020016040518060800160405280604d8152602001620022b8604d913981526020016040518060800160405280604d815260200162002305604d913981526020016040518060600160405280603a8152602001620023ec603a913981526020016040518060800160405280604d8152602001620021d1604d913981526020016040518060800160405280604d815260200162002184604d913981526020016040518060800160405280604d815260200162002426604d913981526020016040518060800160405280604d815260200162002426604d913990526200016290600b90816200029f565b503480156200017057600080fd5b5060408051808201825260038082526213919560ea1b602080840182905284518086019095529184529083015290620001b06301ffc9a760e01b6200021a565b8151620001c590600690602085019062000303565b508051620001db90600790602084019062000303565b50620001ee6380ac58cd60e01b6200021a565b62000200635b5e139f60e01b6200021a565b6200021263780e9d6360e01b6200021a565b505062000407565b6001600160e01b031980821614156200027a576040805162461bcd60e51b815260206004820152601c60248201527f4552433136353a20696e76616c696420696e7465726661636520696400000000604482015290519081900360640190fd5b6001600160e01b0319166000908152602081905260409020805460ff19166001179055565b828054828255906000526020600020908101928215620002f1579160200282015b82811115620002f15782518051620002e091849160209091019062000303565b5091602001919060010190620002c0565b50620002ff92915062000384565b5090565b828054600181600116156101000203166002900490600052602060002090601f016020900481019282601f106200034657805160ff191683800117855562000376565b8280016001018555821562000376579182015b828111156200037657825182559160200191906001019062000359565b50620002ff929150620003a5565b80821115620002ff5760006200039b8282620003bc565b5060010162000384565b5b80821115620002ff5760008155600101620003a6565b50805460018160011615610100020316600290046000825580601f10620003e4575062000404565b601f016020900490600052602060002090810190620004049190620003a5565b50565b611d6d80620004176000396000f3fe608060405234801561001057600080fd5b50600436106101215760003560e01c80634f6ccce7116100ad578063a22cb46511610071578063a22cb46514610393578063b88d4fde146103c1578063c87b56dd14610487578063d0be2a93146104a4578063e985e9c5146104ca57610121565b80634f6ccce7146103235780636352211e146103405780636c0360eb1461035d57806370a082311461036557806395d89b411461038b57610121565b806318160ddd116100f457806318160ddd1461024557806323b872dd1461025f5780632c81e38e146102955780632f745c59146102c157806342842e0e146102ed57610121565b806301ffc9a71461012657806306fdde0314610161578063081812fc146101de578063095ea7b314610217575b600080fd5b61014d6004803603602081101561013c57600080fd5b50356001600160e01b0319166104f8565b604080519115158252519081900360200190f35b61016961051b565b6040805160208082528351818301528351919283929083019185019080838360005b838110156101a357818101518382015260200161018b565b50505050905090810190601f1680156101d05780820380516001836020036101000a031916815260200191505b509250505060405180910390f35b6101fb600480360360208110156101f457600080fd5b50356105b1565b604080516001600160a01b039092168252519081900360200190f35b6102436004803603604081101561022d57600080fd5b506001600160a01b038135169060200135610613565b005b61024d6106ee565b60408051918252519081900360200190f35b6102436004803603606081101561027557600080fd5b506001600160a01b038135811691602081013590911690604001356106ff565b61024d600480360360408110156102ab57600080fd5b506001600160a01b038135169060200135610756565b61024d600480360360408110156102d757600080fd5b506001600160a01b03813516906020013561077b565b6102436004803603606081101561030357600080fd5b506001600160a01b038135811691602081013590911690604001356107a6565b61024d6004803603602081101561033957600080fd5b50356107c1565b6101fb6004803603602081101561035657600080fd5b50356107d7565b6101696107ff565b61024d6004803603602081101561037b57600080fd5b50356001600160a01b0316610860565b6101696108c8565b610243600480360360408110156103a957600080fd5b506001600160a01b0381351690602001351515610929565b610243600480360360808110156103d757600080fd5b6001600160a01b0382358116926020810135909116916040820135919081019060808101606082013564010000000081111561041257600080fd5b82018360208201111561042457600080fd5b8035906020019184600183028401116401000000008311171561044657600080fd5b91908080601f016020809104026020016040519081016040528093929190818152602001838380828437600092019190915250929550610a2e945050505050565b6101696004803603602081101561049d57600080fd5b5035610a8c565b61024d600480360360208110156104ba57600080fd5b50356001600160a01b0316610d33565b61014d600480360360408110156104e057600080fd5b506001600160a01b0381358116916020013516610e03565b6001600160e01b0319811660009081526020819052604090205460ff165b919050565b60068054604080516020601f60026000196101006001881615020190951694909404938401819004810282018101909252828152606093909290918301828280156105a75780601f1061057c576101008083540402835291602001916105a7565b820191906000526020600020905b81548152906001019060200180831161058a57829003601f168201915b5050505050905090565b60006105bc82610e31565b6105f75760405162461bcd60e51b815260040180806020018281038252602c815260200180611c36602c913960400191505060405180910390fd5b506000908152600460205260409020546001600160a01b031690565b600061061e826107d7565b9050806001600160a01b0316836001600160a01b031614156106715760405162461bcd60e51b8152600401808060200182810382526021815260200180611ce66021913960400191505060405180910390fd5b806001600160a01b0316610683610e3e565b6001600160a01b031614806106a457506106a48161069f610e3e565b610e03565b6106df5760405162461bcd60e51b8152600401808060200182810382526038815260200180611b896038913960400191505060405180910390fd5b6106e98383610e42565b505050565b60006106fa6002610eb0565b905090565b61071061070a610e3e565b82610ebb565b61074b5760405162461bcd60e51b8152600401808060200182810382526031815260200180611d076031913960400191505060405180910390fd5b6106e9838383610f5f565b6000805b828110156107745761076b84610d33565b5060010161075a565b5092915050565b6001600160a01b038216600090815260016020526040812061079d90836110ab565b90505b92915050565b6106e983838360405180602001604052806000815250610a2e565b6000806107cf6002846110b7565b509392505050565b60006107a082604051806060016040528060298152602001611beb60299139600291906110d3565b60098054604080516020601f60026000196101006001881615020190951694909404938401819004810282018101909252828152606093909290918301828280156105a75780601f1061057c576101008083540402835291602001916105a7565b60006001600160a01b0382166108a75760405162461bcd60e51b815260040180806020018281038252602a815260200180611bc1602a913960400191505060405180910390fd5b6001600160a01b03821660009081526001602052604090206107a090610eb0565b60078054604080516020601f60026000196101006001881615020190951694909404938401819004810282018101909252828152606093909290918301828280156105a75780601f1061057c576101008083540402835291602001916105a7565b610931610e3e565b6001600160a01b0316826001600160a01b03161415610997576040805162461bcd60e51b815260206004820152601960248201527f4552433732313a20617070726f766520746f2063616c6c657200000000000000604482015290519081900360640190fd5b80600560006109a4610e3e565b6001600160a01b03908116825260208083019390935260409182016000908120918716808252919093529120805460ff1916921515929092179091556109e8610e3e565b6001600160a01b03167f17307eab39ab6107e8899845ad3d59bd9653f200f220920489ca2b5937696c318360405180821515815260200191505060405180910390a35050565b610a3f610a39610e3e565b83610ebb565b610a7a5760405162461bcd60e51b8152600401808060200182810382526031815260200180611d076031913960400191505060405180910390fd5b610a86848484846110ea565b50505050565b6060610a9782610e31565b610ad25760405162461bcd60e51b815260040180806020018281038252602f815260200180611cb7602f913960400191505060405180910390fd5b60008281526008602090815260409182902080548351601f6002600019610100600186161502019093169290920491820184900484028101840190945280845260609392830182828015610b675780601f10610b3c57610100808354040283529160200191610b67565b820191906000526020600020905b815481529060010190602001808311610b4a57829003601f168201915b505060095493945050505060026000196101006001841615020190911604610b90579050610516565b805115610c61576009816040516020018083805460018160011615610100020316600290048015610bf85780601f10610bd6576101008083540402835291820191610bf8565b820191906000526020600020905b815481529060010190602001808311610be4575b5050825160208401908083835b60208310610c245780518252601f199092019160209182019101610c05565b6001836020036101000a03801982511681845116808217855250505050505090500192505050604051602081830303815290604052915050610516565b6009610c6c8461113c565b6040516020018083805460018160011615610100020316600290048015610cca5780601f10610ca8576101008083540402835291820191610cca565b820191906000526020600020905b815481529060010190602001808311610cb6575b5050825160208401908083835b60208310610cf65780518252601f199092019160209182019101610cd7565b6001836020036101000a03801982511681845116808217855250505050505090500192505050604051602081830303815290604052915050919050565b6000610d3f600a611217565b6000610d4b600a611220565b9050610d578382611224565b6107a081600b6001840381548110610d6b57fe5b600091825260209182902001805460408051601f6002600019610100600187161502019094169390930492830185900485028101850190915281815292830182828015610df95780601f10610dce57610100808354040283529160200191610df9565b820191906000526020600020905b815481529060010190602001808311610ddc57829003601f168201915b5050505050611352565b6001600160a01b03918216600090815260056020908152604080832093909416825291909152205460ff1690565b60006107a06002836113b5565b3390565b600081815260046020526040902080546001600160a01b0319166001600160a01b0384169081179091558190610e77826107d7565b6001600160a01b03167f8c5be1e5ebec7d5bd14f71427d1e84f3dd0314c0f7b2291e5b200ac8c7c3b92560405160405180910390a45050565b60006107a082611220565b6000610ec682610e31565b610f015760405162461bcd60e51b815260040180806020018281038252602c815260200180611b5d602c913960400191505060405180910390fd5b6000610f0c836107d7565b9050806001600160a01b0316846001600160a01b03161480610f475750836001600160a01b0316610f3c846105b1565b6001600160a01b0316145b80610f575750610f578185610e03565b949350505050565b826001600160a01b0316610f72826107d7565b6001600160a01b031614610fb75760405162461bcd60e51b8152600401808060200182810382526029815260200180611c8e6029913960400191505060405180910390fd5b6001600160a01b038216610ffc5760405162461bcd60e51b8152600401808060200182810382526024815260200180611b396024913960400191505060405180910390fd5b6110078383836106e9565b611012600082610e42565b6001600160a01b038316600090815260016020526040902061103490826113c1565b506001600160a01b038216600090815260016020526040902061105790826113cd565b50611064600282846113d9565b5080826001600160a01b0316846001600160a01b03167fddf252ad1be2c89b69c2b068fc378daa952ba7f163c4a11628f55a4df523b3ef60405160405180910390a4505050565b600061079d83836113ef565b60008080806110c68686611453565b9097909650945050505050565b60006110e08484846114ce565b90505b9392505050565b6110f5848484610f5f565b61110184848484611598565b610a865760405162461bcd60e51b8152600401808060200182810382526032815260200180611b076032913960400191505060405180910390fd5b60608161116157506040805180820190915260018152600360fc1b6020820152610516565b8160005b811561117957600101600a82049150611165565b60608167ffffffffffffffff8111801561119257600080fd5b506040519080825280601f01601f1916602001820160405280156111bd576020820181803683370190505b50859350905060001982015b831561120e57600a840660300160f81b828280600190039350815181106111ec57fe5b60200101906001600160f81b031916908160001a905350600a840493506111c9565b50949350505050565b80546001019055565b5490565b6001600160a01b03821661127f576040805162461bcd60e51b815260206004820181905260248201527f4552433732313a206d696e7420746f20746865207a65726f2061646472657373604482015290519081900360640190fd5b61128881610e31565b156112da576040805162461bcd60e51b815260206004820152601c60248201527f4552433732313a20746f6b656e20616c7265616479206d696e74656400000000604482015290519081900360640190fd5b6112e6600083836106e9565b6001600160a01b038216600090815260016020526040902061130890826113cd565b50611315600282846113d9565b5060405181906001600160a01b038416906000907fddf252ad1be2c89b69c2b068fc378daa952ba7f163c4a11628f55a4df523b3ef908290a45050565b61135b82610e31565b6113965760405162461bcd60e51b815260040180806020018281038252602c815260200180611c62602c913960400191505060405180910390fd5b600082815260086020908152604090912082516106e992840190611a51565b600061079d8383611700565b600061079d8383611718565b600061079d83836117de565b60006110e084846001600160a01b038516611828565b815460009082106114315760405162461bcd60e51b8152600401808060200182810382526022815260200180611ae56022913960400191505060405180910390fd5b82600001828154811061144057fe5b9060005260206000200154905092915050565b8154600090819083106114975760405162461bcd60e51b8152600401808060200182810382526022815260200180611c146022913960400191505060405180910390fd5b60008460000184815481106114a857fe5b906000526020600020906002020190508060000154816001015492509250509250929050565b600082815260018401602052604081205482816115695760405162461bcd60e51b81526004018080602001828103825283818151815260200191508051906020019080838360005b8381101561152e578181015183820152602001611516565b50505050905090810190601f16801561155b5780820380516001836020036101000a031916815260200191505b509250505060405180910390fd5b5084600001600182038154811061157c57fe5b9060005260206000209060020201600101549150509392505050565b60006115ac846001600160a01b03166118bf565b6115b857506001610f57565b60606116c6630a85bd0160e11b6115cd610e3e565b88878760405160240180856001600160a01b03168152602001846001600160a01b0316815260200183815260200180602001828103825283818151815260200191508051906020019080838360005b8381101561163457818101518382015260200161161c565b50505050905090810190601f1680156116615780820380516001836020036101000a031916815260200191505b5095505050505050604051602081830303815290604052906001600160e01b0319166020820180516001600160e01b038381831617835250505050604051806060016040528060328152602001611b07603291396001600160a01b03881691906118c5565b905060008180602001905160208110156116df57600080fd5b50516001600160e01b031916630a85bd0160e11b1492505050949350505050565b60009081526001919091016020526040902054151590565b600081815260018301602052604081205480156117d4578354600019808301919081019060009087908390811061174b57fe5b906000526020600020015490508087600001848154811061176857fe5b60009182526020808320909101929092558281526001898101909252604090209084019055865487908061179857fe5b600190038181906000526020600020016000905590558660010160008781526020019081526020016000206000905560019450505050506107a0565b60009150506107a0565b60006117ea8383611700565b611820575081546001818101845560008481526020808220909301849055845484825282860190935260409020919091556107a0565b5060006107a0565b60008281526001840160205260408120548061188d5750506040805180820182528381526020808201848152865460018181018955600089815284812095516002909302909501918255915190820155865486845281880190925292909120556110e3565b828560000160018303815481106118a057fe5b90600052602060002090600202016001018190555060009150506110e3565b3b151590565b60606110e08484600085856118d9856118bf565b61192a576040805162461bcd60e51b815260206004820152601d60248201527f416464726573733a2063616c6c20746f206e6f6e2d636f6e7472616374000000604482015290519081900360640190fd5b60006060866001600160a01b031685876040518082805190602001908083835b602083106119695780518252601f19909201916020918201910161194a565b6001836020036101000a03801982511681845116808217855250505050505090500191505060006040518083038185875af1925050503d80600081146119cb576040519150601f19603f3d011682016040523d82523d6000602084013e6119d0565b606091505b50915091506119e08282866119eb565b979650505050505050565b606083156119fa5750816110e3565b825115611a0a5782518084602001fd5b60405162461bcd60e51b815260206004820181815284516024840152845185939192839260440191908501908083836000831561152e578181015183820152602001611516565b828054600181600116156101000203166002900490600052602060002090601f016020900481019282601f10611a9257805160ff1916838001178555611abf565b82800160010185558215611abf579182015b82811115611abf578251825591602001919060010190611aa4565b50611acb929150611acf565b5090565b5b80821115611acb5760008155600101611ad056fe456e756d657261626c655365743a20696e646578206f7574206f6620626f756e64734552433732313a207472616e7366657220746f206e6f6e20455243373231526563656976657220696d706c656d656e7465724552433732313a207472616e7366657220746f20746865207a65726f20616464726573734552433732313a206f70657261746f7220717565727920666f72206e6f6e6578697374656e7420746f6b656e4552433732313a20617070726f76652063616c6c6572206973206e6f74206f776e6572206e6f7220617070726f76656420666f7220616c6c4552433732313a2062616c616e636520717565727920666f7220746865207a65726f20616464726573734552433732313a206f776e657220717565727920666f72206e6f6e6578697374656e7420746f6b656e456e756d657261626c654d61703a20696e646578206f7574206f6620626f756e64734552433732313a20617070726f76656420717565727920666f72206e6f6e6578697374656e7420746f6b656e4552433732314d657461646174613a2055524920736574206f66206e6f6e6578697374656e7420746f6b656e4552433732313a207472616e73666572206f6620746f6b656e2074686174206973206e6f74206f776e4552433732314d657461646174613a2055524920717565727920666f72206e6f6e6578697374656e7420746f6b656e4552433732313a20617070726f76616c20746f2063757272656e74206f776e65724552433732313a207472616e736665722063616c6c6572206973206e6f74206f776e6572206e6f7220617070726f766564a2646970667358221220d7c50861de8c9796bace4da21fb7089e6d130f16ed28e02585c17151657780d064736f6c634300060c003368747470733a2f2f697066732e64616f6e6f6d69632e636f6d2f697066732f516d5541554d65415347646a6b555a44596d33477a6b614138394d6a65455a4c666252763937703865716a71765068747470733a2f2f697066732e64616f6e6f6d69632e636f6d2f697066732f516d665a6b534e3246647058736665555a7941684850375578364151486745744a477a3859395267467758654a6268747470733a2f2f697066732e64616f6e6f6d69632e636f6d2f697066732f516d64315a46755177757a32446d4a6a4b437a5466424a7a6b36346d626379646238594d6955664b6e664d69443968747470733a2f2f697066732e64616f6e6f6d69632e636f6d2f697066732f516d5173796f315267344a775355326637724d38336f6a744451507a364e345077384e574b674e6a666a77746a7868747470733a2f2f697066732e64616f6e6f6d69632e636f6d2f697066732f516d517a566b7052516138534b506551566261395956426d4859585865415a764c4b716b44326e327753734a453268747470733a2f2f697066732e64616f6e6f6d69632e636f6d2f697066732f516d54676154534d7a5354425974546b523173735a7650535a366937584a744347473974644b5664646f7539643568747470733a2f2f697066732e64616f6e6f6d69632e636f6d2f697066732f516d635a37564c38793637666179337558767947474d5574354d4a6b6e3138514b47655138386a5068556a79385168747470733a2f2f697066732e64616f6e6f6d69632e636f6d2f697066732f516d6562734442793839517446686136654337635134487379466d794c75745647725143343251746655657a6135697066733a2f2f697066732f516d554c5448467262317a48754d716733706673554a6432536f7a4147547a61453175774162697934754a416f3368747470733a2f2f697066732e64616f6e6f6d69632e636f6d2f697066732f516d61704c414c70466a377964506a46334847336d77745873506f414c666b4c454b324d6f487742763836516441",
  "linkReferences": {},
  "deployedLinkReferences": {}
}