{
  "_format": "hh-sol-artifact-1",
  "contractName": "Nft",
  "sourceName": "contracts/mocks/NFT.sol",
  "abi": [
    {
      "inputs": [],
      "stateMutability": "nonpayable",
      "type": "constructor"
    },
    {
      "anonymous": false,
      "inputs": [
        {
          "indexed": true,
          "internalType": "address",
          "name": "owner",
          "type": "address"
        },
        {
          "indexed": true,
          "internalType": "address",
          "name": "approved",
          "type": "address"
        },
        {
          "indexed": true,
          "internalType": "uint256",
          "name": "tokenId",
          "type": "uint256"
        }
      ],
      "name": "Approval",
      "type": "event"
    },
    {
      "anonymous": false,
      "inputs": [
        {
          "indexed": true,
          "internalType": "address",
          "name": "owner",
          "type": "address"
        },
        {
          "indexed": true,
          "internalType": "address",
          "name": "operator",
          "type": "address"
        },
        {
          "indexed": false,
          "internalType": "bool",
          "name": "approved",
          "type": "bool"
        }
      ],
      "name": "ApprovalForAll",
      "type": "event"
    },
    {
      "anonymous": false,
      "inputs": [
        {
          "indexed": true,
          "internalType": "address",
          "name": "from",
          "type": "address"
        },
        {
          "indexed": true,
          "internalType": "address",
          "name": "to",
          "type": "address"
        },
        {
          "indexed": true,
          "internalType": "uint256",
          "name": "tokenId",
          "type": "uint256"
        }
      ],
      "name": "Transfer",
      "type": "event"
    },
    {
      "inputs": [
        {
          "internalType": "address",
          "name": "to",
          "type": "address"
        },
        {
          "internalType": "uint256",
          "name": "tokenId",
          "type": "uint256"
        }
      ],
      "name": "approve",
      "outputs": [],
      "stateMutability": "nonpayable",
      "type": "function"
    },
    {
      "inputs": [
        {
          "internalType": "address",
          "name": "to",
          "type": "address"
        }
      ],
      "name": "awardNft",
      "outputs": [
        {
          "internalType": "uint256",
          "name": "",
          "type": "uint256"
        }
      ],
      "stateMutability": "nonpayable",
      "type": "function"
    },
    {
      "inputs": [
        {
          "internalType": "address",
          "name": "owner",
          "type": "address"
        }
      ],
      "name": "balanceOf",
      "outputs": [
        {
          "internalType": "uint256",
          "name": "",
          "type": "uint256"
        }
      ],
      "stateMutability": "view",
      "type": "function"
    },
    {
      "inputs": [],
      "name": "baseURI",
      "outputs": [
        {
          "internalType": "string",
          "name": "",
          "type": "string"
        }
      ],
      "stateMutability": "view",
      "type": "function"
    },
    {
      "inputs": [
        {
          "internalType": "uint256",
          "name": "tokenId",
          "type": "uint256"
        }
      ],
      "name": "getApproved",
      "outputs": [
        {
          "internalType": "address",
          "name": "",
          "type": "address"
        }
      ],
      "stateMutability": "view",
      "type": "function"
    },
    {
      "inputs": [
        {
          "internalType": "address",
          "name": "owner",
          "type": "address"
        },
        {
          "internalType": "address",
          "name": "operator",
          "type": "address"
        }
      ],
      "name": "isApprovedForAll",
      "outputs": [
        {
          "internalType": "bool",
          "name": "",
          "type": "bool"
        }
      ],
      "stateMutability": "view",
      "type": "function"
    },
    {
      "inputs": [],
      "name": "name",
      "outputs": [
        {
          "internalType": "string",
          "name": "",
          "type": "string"
        }
      ],
      "stateMutability": "view",
      "type": "function"
    },
    {
      "inputs": [
        {
          "internalType": "uint256",
          "name": "tokenId",
          "type": "uint256"
        }
      ],
      "name": "ownerOf",
      "outputs": [
        {
          "internalType": "address",
          "name": "",
          "type": "address"
        }
      ],
      "stateMutability": "view",
      "type": "function"
    },
    {
      "inputs": [
        {
          "internalType": "address",
          "name": "from",
          "type": "address"
        },
        {
          "internalType": "address",
          "name": "to",
          "type": "address"
        },
        {
          "internalType": "uint256",
          "name": "tokenId",
          "type": "uint256"
        }
      ],
      "name": "safeTransferFrom",
      "outputs": [],
      "stateMutability": "nonpayable",
      "type": "function"
    },
    {
      "inputs": [
        {
          "internalType": "address",
          "name": "from",
          "type": "address"
        },
        {
          "internalType": "address",
          "name": "to",
          "type": "address"
        },
        {
          "internalType": "uint256",
          "name": "tokenId",
          "type": "uint256"
        },
        {
          "internalType": "bytes",
          "name": "_data",
          "type": "bytes"
        }
      ],
      "name": "safeTransferFrom",
      "outputs": [],
      "stateMutability": "nonpayable",
      "type": "function"
    },
    {
      "inputs": [
        {
          "internalType": "address",
          "name": "operator",
          "type": "address"
        },
        {
          "internalType": "bool",
          "name": "approved",
          "type": "bool"
        }
      ],
      "name": "setApprovalForAll",
      "outputs": [],
      "stateMutability": "nonpayable",
      "type": "function"
    },
    {
      "inputs": [
        {
          "internalType": "bytes4",
          "name": "interfaceId",
          "type": "bytes4"
        }
      ],
      "name": "supportsInterface",
      "outputs": [
        {
          "internalType": "bool",
          "name": "",
          "type": "bool"
        }
      ],
      "stateMutability": "view",
      "type": "function"
    },
    {
      "inputs": [],
      "name": "symbol",
      "outputs": [
        {
          "internalType": "string",
          "name": "",
          "type": "string"
        }
      ],
      "stateMutability": "view",
      "type": "function"
    },
    {
      "inputs": [
        {
          "internalType": "uint256",
          "name": "index",
          "type": "uint256"
        }
      ],
      "name": "tokenByIndex",
      "outputs": [
        {
          "internalType": "uint256",
          "name": "",
          "type": "uint256"
        }
      ],
      "stateMutability": "view",
      "type": "function"
    },
    {
      "inputs": [
        {
          "internalType": "address",
          "name": "owner",
          "type": "address"
        },
        {
          "internalType": "uint256",
          "name": "index",
          "type": "uint256"
        }
      ],
      "name": "tokenOfOwnerByIndex",
      "outputs": [
        {
          "internalType": "uint256",
          "name": "",
          "type": "uint256"
        }
      ],
      "stateMutability": "view",
      "type": "function"
    },
    {
      "inputs": [
        {
          "internalType": "uint256",
          "name": "tokenId",
          "type": "uint256"
        }
      ],
      "name": "tokenURI",
      "outputs": [
        {
          "internalType": "string",
          "name": "",
          "type": "string"
        }
      ],
      "stateMutability": "view",
      "type": "function"
    },
    {
      "inputs": [],
      "name": "totalSupply",
      "outputs": [
        {
          "internalType": "uint256",
          "name": "",
          "type": "uint256"
        }
      ],
      "stateMutability": "view",
      "type": "function"
    },
    {
      "inputs": [
        {
          "internalType": "address",
          "name": "from",
          "type": "address"
        },
        {
          "internalType": "address",
          "name": "to",
          "type": "address"
        },
        {
          "internalType": "uint256",
          "name": "tokenId",
          "type": "uint256"
        }
      ],
      "name": "transferFrom",
      "outputs": [],
      "stateMutability": "nonpayable",
      "type": "function"
    }
  ],
  "bytecode": "0x610240604052604d6101c0818152608091829190620021f16101e03981526020016040518060800160405280604d8152602001620022d8604d913981526020016040518060800160405280604d815260200162002325604d913981526020016040518060800160405280604d8152602001620021a4604d913981526020016040518060800160405280604d81526020016200223e604d913981526020016040518060800160405280604d81526020016200228b604d913981526020016040518060600160405280603a815260200162002372603a913981526020016040518060800160405280604d815260200162002157604d913981526020016040518060800160405280604d81526020016200210a604d913981526020016040518060800160405280604d8152602001620023ac604d913990526200014490600b90600a62000281565b503480156200015257600080fd5b5060408051808201825260038082526213919560ea1b602080840182905284518086019095529184529083015290620001926301ffc9a760e01b620001fc565b8151620001a7906006906020850190620002e5565b508051620001bd906007906020840190620002e5565b50620001d06380ac58cd60e01b620001fc565b620001e2635b5e139f60e01b620001fc565b620001f463780e9d6360e01b620001fc565b5050620003e9565b6001600160e01b031980821614156200025c576040805162461bcd60e51b815260206004820152601c60248201527f4552433136353a20696e76616c696420696e7465726661636520696400000000604482015290519081900360640190fd5b6001600160e01b0319166000908152602081905260409020805460ff19166001179055565b828054828255906000526020600020908101928215620002d3579160200282015b82811115620002d35782518051620002c2918491602090910190620002e5565b5091602001919060010190620002a2565b50620002e192915062000366565b5090565b828054600181600116156101000203166002900490600052602060002090601f016020900481019282601f106200032857805160ff191683800117855562000358565b8280016001018555821562000358579182015b82811115620003585782518255916020019190600101906200033b565b50620002e192915062000387565b80821115620002e15760006200037d82826200039e565b5060010162000366565b5b80821115620002e1576000815560010162000388565b50805460018160011615610100020316600290046000825580601f10620003c65750620003e6565b601f016020900490600052602060002090810190620003e6919062000387565b50565b611d1180620003f96000396000f3fe608060405234801561001057600080fd5b50600436106101165760003560e01c80636352211e116100a2578063a22cb46511610071578063a22cb4651461035c578063b88d4fde1461038a578063c87b56dd14610450578063d0be2a931461046d578063e985e9c51461049357610116565b80636352211e146103095780636c0360eb1461032657806370a082311461032e57806395d89b411461035457610116565b806318160ddd116100e957806318160ddd1461023a57806323b872dd146102545780632f745c591461028a57806342842e0e146102b65780634f6ccce7146102ec57610116565b806301ffc9a71461011b57806306fdde0314610156578063081812fc146101d3578063095ea7b31461020c575b600080fd5b6101426004803603602081101561013157600080fd5b50356001600160e01b0319166104c1565b604080519115158252519081900360200190f35b61015e6104e4565b6040805160208082528351818301528351919283929083019185019080838360005b83811015610198578181015183820152602001610180565b50505050905090810190601f1680156101c55780820380516001836020036101000a031916815260200191505b509250505060405180910390f35b6101f0600480360360208110156101e957600080fd5b503561057a565b604080516001600160a01b039092168252519081900360200190f35b6102386004803603604081101561022257600080fd5b506001600160a01b0381351690602001356105dc565b005b6102426106b7565b60408051918252519081900360200190f35b6102386004803603606081101561026a57600080fd5b506001600160a01b038135811691602081013590911690604001356106c8565b610242600480360360408110156102a057600080fd5b506001600160a01b03813516906020013561071f565b610238600480360360608110156102cc57600080fd5b506001600160a01b0381358116916020810135909116906040013561074a565b6102426004803603602081101561030257600080fd5b5035610765565b6101f06004803603602081101561031f57600080fd5b503561077b565b61015e6107a3565b6102426004803603602081101561034457600080fd5b50356001600160a01b0316610804565b61015e61086c565b6102386004803603604081101561037257600080fd5b506001600160a01b03813516906020013515156108cd565b610238600480360360808110156103a057600080fd5b6001600160a01b038235811692602081013590911691604082013591908101906080810160608201356401000000008111156103db57600080fd5b8201836020820111156103ed57600080fd5b8035906020019184600183028401116401000000008311171561040f57600080fd5b91908080601f0160208091040260200160405190810160405280939291908181526020018383808284376000920191909152509295506109d2945050505050565b61015e6004803603602081101561046657600080fd5b5035610a30565b6102426004803603602081101561048357600080fd5b50356001600160a01b0316610cd7565b610142600480360360408110156104a957600080fd5b506001600160a01b0381358116916020013516610da7565b6001600160e01b0319811660009081526020819052604090205460ff165b919050565b60068054604080516020601f60026000196101006001881615020190951694909404938401819004810282018101909252828152606093909290918301828280156105705780601f1061054557610100808354040283529160200191610570565b820191906000526020600020905b81548152906001019060200180831161055357829003601f168201915b5050505050905090565b600061058582610dd5565b6105c05760405162461bcd60e51b815260040180806020018281038252602c815260200180611bda602c913960400191505060405180910390fd5b506000908152600460205260409020546001600160a01b031690565b60006105e78261077b565b9050806001600160a01b0316836001600160a01b0316141561063a5760405162461bcd60e51b8152600401808060200182810382526021815260200180611c8a6021913960400191505060405180910390fd5b806001600160a01b031661064c610de2565b6001600160a01b0316148061066d575061066d81610668610de2565b610da7565b6106a85760405162461bcd60e51b8152600401808060200182810382526038815260200180611b2d6038913960400191505060405180910390fd5b6106b28383610de6565b505050565b60006106c36002610e54565b905090565b6106d96106d3610de2565b82610e5f565b6107145760405162461bcd60e51b8152600401808060200182810382526031815260200180611cab6031913960400191505060405180910390fd5b6106b2838383610f03565b6001600160a01b0382166000908152600160205260408120610741908361104f565b90505b92915050565b6106b2838383604051806020016040528060008152506109d2565b60008061077360028461105b565b509392505050565b600061074482604051806060016040528060298152602001611b8f6029913960029190611077565b60098054604080516020601f60026000196101006001881615020190951694909404938401819004810282018101909252828152606093909290918301828280156105705780601f1061054557610100808354040283529160200191610570565b60006001600160a01b03821661084b5760405162461bcd60e51b815260040180806020018281038252602a815260200180611b65602a913960400191505060405180910390fd5b6001600160a01b038216600090815260016020526040902061074490610e54565b60078054604080516020601f60026000196101006001881615020190951694909404938401819004810282018101909252828152606093909290918301828280156105705780601f1061054557610100808354040283529160200191610570565b6108d5610de2565b6001600160a01b0316826001600160a01b0316141561093b576040805162461bcd60e51b815260206004820152601960248201527f4552433732313a20617070726f766520746f2063616c6c657200000000000000604482015290519081900360640190fd5b8060056000610948610de2565b6001600160a01b03908116825260208083019390935260409182016000908120918716808252919093529120805460ff19169215159290921790915561098c610de2565b6001600160a01b03167f17307eab39ab6107e8899845ad3d59bd9653f200f220920489ca2b5937696c318360405180821515815260200191505060405180910390a35050565b6109e36109dd610de2565b83610e5f565b610a1e5760405162461bcd60e51b8152600401808060200182810382526031815260200180611cab6031913960400191505060405180910390fd5b610a2a8484848461108e565b50505050565b6060610a3b82610dd5565b610a765760405162461bcd60e51b815260040180806020018281038252602f815260200180611c5b602f913960400191505060405180910390fd5b60008281526008602090815260409182902080548351601f6002600019610100600186161502019093169290920491820184900484028101840190945280845260609392830182828015610b0b5780601f10610ae057610100808354040283529160200191610b0b565b820191906000526020600020905b815481529060010190602001808311610aee57829003601f168201915b505060095493945050505060026000196101006001841615020190911604610b345790506104df565b805115610c05576009816040516020018083805460018160011615610100020316600290048015610b9c5780601f10610b7a576101008083540402835291820191610b9c565b820191906000526020600020905b815481529060010190602001808311610b88575b5050825160208401908083835b60208310610bc85780518252601f199092019160209182019101610ba9565b6001836020036101000a038019825116818451168082178552505050505050905001925050506040516020818303038152906040529150506104df565b6009610c10846110e0565b6040516020018083805460018160011615610100020316600290048015610c6e5780601f10610c4c576101008083540402835291820191610c6e565b820191906000526020600020905b815481529060010190602001808311610c5a575b5050825160208401908083835b60208310610c9a5780518252601f199092019160209182019101610c7b565b6001836020036101000a03801982511681845116808217855250505050505090500192505050604051602081830303815290604052915050919050565b6000610ce3600a6111bb565b6000610cef600a6111c4565b9050610cfb83826111c8565b61074481600b6001840381548110610d0f57fe5b600091825260209182902001805460408051601f6002600019610100600187161502019094169390930492830185900485028101850190915281815292830182828015610d9d5780601f10610d7257610100808354040283529160200191610d9d565b820191906000526020600020905b815481529060010190602001808311610d8057829003601f168201915b50505050506112f6565b6001600160a01b03918216600090815260056020908152604080832093909416825291909152205460ff1690565b6000610744600283611359565b3390565b600081815260046020526040902080546001600160a01b0319166001600160a01b0384169081179091558190610e1b8261077b565b6001600160a01b03167f8c5be1e5ebec7d5bd14f71427d1e84f3dd0314c0f7b2291e5b200ac8c7c3b92560405160405180910390a45050565b6000610744826111c4565b6000610e6a82610dd5565b610ea55760405162461bcd60e51b815260040180806020018281038252602c815260200180611b01602c913960400191505060405180910390fd5b6000610eb08361077b565b9050806001600160a01b0316846001600160a01b03161480610eeb5750836001600160a01b0316610ee08461057a565b6001600160a01b0316145b80610efb5750610efb8185610da7565b949350505050565b826001600160a01b0316610f168261077b565b6001600160a01b031614610f5b5760405162461bcd60e51b8152600401808060200182810382526029815260200180611c326029913960400191505060405180910390fd5b6001600160a01b038216610fa05760405162461bcd60e51b8152600401808060200182810382526024815260200180611add6024913960400191505060405180910390fd5b610fab8383836106b2565b610fb6600082610de6565b6001600160a01b0383166000908152600160205260409020610fd89082611365565b506001600160a01b0382166000908152600160205260409020610ffb9082611371565b506110086002828461137d565b5080826001600160a01b0316846001600160a01b03167fddf252ad1be2c89b69c2b068fc378daa952ba7f163c4a11628f55a4df523b3ef60405160405180910390a4505050565b60006107418383611393565b600080808061106a86866113f7565b9097909650945050505050565b6000611084848484611472565b90505b9392505050565b611099848484610f03565b6110a58484848461153c565b610a2a5760405162461bcd60e51b8152600401808060200182810382526032815260200180611aab6032913960400191505060405180910390fd5b60608161110557506040805180820190915260018152600360fc1b60208201526104df565b8160005b811561111d57600101600a82049150611109565b60608167ffffffffffffffff8111801561113657600080fd5b506040519080825280601f01601f191660200182016040528015611161576020820181803683370190505b50859350905060001982015b83156111b257600a840660300160f81b8282806001900393508151811061119057fe5b60200101906001600160f81b031916908160001a905350600a8404935061116d565b50949350505050565b80546001019055565b5490565b6001600160a01b038216611223576040805162461bcd60e51b815260206004820181905260248201527f4552433732313a206d696e7420746f20746865207a65726f2061646472657373604482015290519081900360640190fd5b61122c81610dd5565b1561127e576040805162461bcd60e51b815260206004820152601c60248201527f4552433732313a20746f6b656e20616c7265616479206d696e74656400000000604482015290519081900360640190fd5b61128a600083836106b2565b6001600160a01b03821660009081526001602052604090206112ac9082611371565b506112b96002828461137d565b5060405181906001600160a01b038416906000907fddf252ad1be2c89b69c2b068fc378daa952ba7f163c4a11628f55a4df523b3ef908290a45050565b6112ff82610dd5565b61133a5760405162461bcd60e51b815260040180806020018281038252602c815260200180611c06602c913960400191505060405180910390fd5b600082815260086020908152604090912082516106b2928401906119f5565b600061074183836116a4565b600061074183836116bc565b60006107418383611782565b600061108484846001600160a01b0385166117cc565b815460009082106113d55760405162461bcd60e51b8152600401808060200182810382526022815260200180611a896022913960400191505060405180910390fd5b8260000182815481106113e457fe5b9060005260206000200154905092915050565b81546000908190831061143b5760405162461bcd60e51b8152600401808060200182810382526022815260200180611bb86022913960400191505060405180910390fd5b600084600001848154811061144c57fe5b906000526020600020906002020190508060000154816001015492509250509250929050565b6000828152600184016020526040812054828161150d5760405162461bcd60e51b81526004018080602001828103825283818151815260200191508051906020019080838360005b838110156114d25781810151838201526020016114ba565b50505050905090810190601f1680156114ff5780820380516001836020036101000a031916815260200191505b509250505060405180910390fd5b5084600001600182038154811061152057fe5b9060005260206000209060020201600101549150509392505050565b6000611550846001600160a01b0316611863565b61155c57506001610efb565b606061166a630a85bd0160e11b611571610de2565b88878760405160240180856001600160a01b03168152602001846001600160a01b0316815260200183815260200180602001828103825283818151815260200191508051906020019080838360005b838110156115d85781810151838201526020016115c0565b50505050905090810190601f1680156116055780820380516001836020036101000a031916815260200191505b5095505050505050604051602081830303815290604052906001600160e01b0319166020820180516001600160e01b038381831617835250505050604051806060016040528060328152602001611aab603291396001600160a01b0388169190611869565b9050600081806020019051602081101561168357600080fd5b50516001600160e01b031916630a85bd0160e11b1492505050949350505050565b60009081526001919091016020526040902054151590565b6000818152600183016020526040812054801561177857835460001980830191908101906000908790839081106116ef57fe5b906000526020600020015490508087600001848154811061170c57fe5b60009182526020808320909101929092558281526001898101909252604090209084019055865487908061173c57fe5b60019003818190600052602060002001600090559055866001016000878152602001908152602001600020600090556001945050505050610744565b6000915050610744565b600061178e83836116a4565b6117c457508154600181810184556000848152602080822090930184905584548482528286019093526040902091909155610744565b506000610744565b600082815260018401602052604081205480611831575050604080518082018252838152602080820184815286546001818101895560008981528481209551600290930290950191825591519082015586548684528188019092529290912055611087565b8285600001600183038154811061184457fe5b9060005260206000209060020201600101819055506000915050611087565b3b151590565b606061108484846000858561187d85611863565b6118ce576040805162461bcd60e51b815260206004820152601d60248201527f416464726573733a2063616c6c20746f206e6f6e2d636f6e7472616374000000604482015290519081900360640190fd5b60006060866001600160a01b031685876040518082805190602001908083835b6020831061190d5780518252601f1990920191602091820191016118ee565b6001836020036101000a03801982511681845116808217855250505050505090500191505060006040518083038185875af1925050503d806000811461196f576040519150601f19603f3d011682016040523d82523d6000602084013e611974565b606091505b509150915061198482828661198f565b979650505050505050565b6060831561199e575081611087565b8251156119ae5782518084602001fd5b60405162461bcd60e51b81526020600482018181528451602484015284518593919283926044019190850190808383600083156114d25781810151838201526020016114ba565b828054600181600116156101000203166002900490600052602060002090601f016020900481019282601f10611a3657805160ff1916838001178555611a63565b82800160010185558215611a63579182015b82811115611a63578251825591602001919060010190611a48565b50611a6f929150611a73565b5090565b5b80821115611a6f5760008155600101611a7456fe456e756d657261626c655365743a20696e646578206f7574206f6620626f756e64734552433732313a207472616e7366657220746f206e6f6e20455243373231526563656976657220696d706c656d656e7465724552433732313a207472616e7366657220746f20746865207a65726f20616464726573734552433732313a206f70657261746f7220717565727920666f72206e6f6e6578697374656e7420746f6b656e4552433732313a20617070726f76652063616c6c6572206973206e6f74206f776e6572206e6f7220617070726f76656420666f7220616c6c4552433732313a2062616c616e636520717565727920666f7220746865207a65726f20616464726573734552433732313a206f776e657220717565727920666f72206e6f6e6578697374656e7420746f6b656e456e756d657261626c654d61703a20696e646578206f7574206f6620626f756e64734552433732313a20617070726f76656420717565727920666f72206e6f6e6578697374656e7420746f6b656e4552433732314d657461646174613a2055524920736574206f66206e6f6e6578697374656e7420746f6b656e4552433732313a207472616e73666572206f6620746f6b656e2074686174206973206e6f74206f776e4552433732314d657461646174613a2055524920717565727920666f72206e6f6e6578697374656e7420746f6b656e4552433732313a20617070726f76616c20746f2063757272656e74206f776e65724552433732313a207472616e736665722063616c6c6572206973206e6f74206f776e6572206e6f7220617070726f766564a2646970667358221220a99b8a9049634d36ebd5af76e70e4bd532fd96e174e14f92de862749d5abcd8064736f6c634300060c003368747470733a2f2f697066732e64616f6e6f6d69632e636f6d2f697066732f516d5541554d65415347646a6b555a44596d33477a6b614138394d6a65455a4c666252763937703865716a71765068747470733a2f2f697066732e64616f6e6f6d69632e636f6d2f697066732f516d665a6b534e3246647058736665555a7941684850375578364151486745744a477a3859395267467758654a6268747470733a2f2f697066732e64616f6e6f6d69632e636f6d2f697066732f516d64315a46755177757a32446d4a6a4b437a5466424a7a6b36346d626379646238594d6955664b6e664d69443968747470733a2f2f697066732e64616f6e6f6d69632e636f6d2f697066732f516d5173796f315267344a775355326637724d38336f6a744451507a364e345077384e574b674e6a666a77746a7868747470733a2f2f697066732e64616f6e6f6d69632e636f6d2f697066732f516d517a566b7052516138534b506551566261395956426d4859585865415a764c4b716b44326e327753734a453268747470733a2f2f697066732e64616f6e6f6d69632e636f6d2f697066732f516d54676154534d7a5354425974546b523173735a7650535a366937584a744347473974644b5664646f7539643568747470733a2f2f697066732e64616f6e6f6d69632e636f6d2f697066732f516d635a37564c38793637666179337558767947474d5574354d4a6b6e3138514b47655138386a5068556a79385168747470733a2f2f697066732e64616f6e6f6d69632e636f6d2f697066732f516d6562734442793839517446686136654337635134487379466d794c75745647725143343251746655657a6135697066733a2f2f697066732f516d554c5448467262317a48754d716733706673554a6432536f7a4147547a61453175774162697934754a416f3368747470733a2f2f697066732e64616f6e6f6d69632e636f6d2f697066732f516d61704c414c70466a377964506a46334847336d77745873506f414c666b4c454b324d6f487742763836516441",
  "linkReferences": {},
  "deployedLinkReferences": {}
}