{
  "_format": "hh-sol-artifact-1",
  "contractName": "Nft",
  "sourceName": "contracts/mocks/NFT.sol",
  "abi": [
    {
      "inputs": [],
      "stateMutability": "nonpayable",
      "type": "constructor"
    },
    {
      "anonymous": false,
      "inputs": [
        {
          "indexed": true,
          "internalType": "address",
          "name": "owner",
          "type": "address"
        },
        {
          "indexed": true,
          "internalType": "address",
          "name": "approved",
          "type": "address"
        },
        {
          "indexed": true,
          "internalType": "uint256",
          "name": "tokenId",
          "type": "uint256"
        }
      ],
      "name": "Approval",
      "type": "event"
    },
    {
      "anonymous": false,
      "inputs": [
        {
          "indexed": true,
          "internalType": "address",
          "name": "owner",
          "type": "address"
        },
        {
          "indexed": true,
          "internalType": "address",
          "name": "operator",
          "type": "address"
        },
        {
          "indexed": false,
          "internalType": "bool",
          "name": "approved",
          "type": "bool"
        }
      ],
      "name": "ApprovalForAll",
      "type": "event"
    },
    {
      "anonymous": false,
      "inputs": [
        {
          "indexed": true,
          "internalType": "address",
          "name": "from",
          "type": "address"
        },
        {
          "indexed": true,
          "internalType": "address",
          "name": "to",
          "type": "address"
        },
        {
          "indexed": true,
          "internalType": "uint256",
          "name": "tokenId",
          "type": "uint256"
        }
      ],
      "name": "Transfer",
      "type": "event"
    },
    {
      "inputs": [
        {
          "internalType": "address",
          "name": "to",
          "type": "address"
        },
        {
          "internalType": "uint256",
          "name": "tokenId",
          "type": "uint256"
        }
      ],
      "name": "approve",
      "outputs": [],
      "stateMutability": "nonpayable",
      "type": "function"
    },
    {
      "inputs": [
        {
          "internalType": "address",
          "name": "to",
          "type": "address"
        }
      ],
      "name": "awardNft",
      "outputs": [
        {
          "internalType": "uint256",
          "name": "",
          "type": "uint256"
        }
      ],
      "stateMutability": "nonpayable",
      "type": "function"
    },
    {
      "inputs": [
        {
          "internalType": "address",
          "name": "owner",
          "type": "address"
        }
      ],
      "name": "balanceOf",
      "outputs": [
        {
          "internalType": "uint256",
          "name": "",
          "type": "uint256"
        }
      ],
      "stateMutability": "view",
      "type": "function"
    },
    {
      "inputs": [],
      "name": "baseURI",
      "outputs": [
        {
          "internalType": "string",
          "name": "",
          "type": "string"
        }
      ],
      "stateMutability": "view",
      "type": "function"
    },
    {
      "inputs": [
        {
          "internalType": "uint256",
          "name": "tokenId",
          "type": "uint256"
        }
      ],
      "name": "getApproved",
      "outputs": [
        {
          "internalType": "address",
          "name": "",
          "type": "address"
        }
      ],
      "stateMutability": "view",
      "type": "function"
    },
    {
      "inputs": [
        {
          "internalType": "address",
          "name": "owner",
          "type": "address"
        },
        {
          "internalType": "address",
          "name": "operator",
          "type": "address"
        }
      ],
      "name": "isApprovedForAll",
      "outputs": [
        {
          "internalType": "bool",
          "name": "",
          "type": "bool"
        }
      ],
      "stateMutability": "view",
      "type": "function"
    },
    {
      "inputs": [],
      "name": "name",
      "outputs": [
        {
          "internalType": "string",
          "name": "",
          "type": "string"
        }
      ],
      "stateMutability": "view",
      "type": "function"
    },
    {
      "inputs": [
        {
          "internalType": "uint256",
          "name": "tokenId",
          "type": "uint256"
        }
      ],
      "name": "ownerOf",
      "outputs": [
        {
          "internalType": "address",
          "name": "",
          "type": "address"
        }
      ],
      "stateMutability": "view",
      "type": "function"
    },
    {
      "inputs": [
        {
          "internalType": "address",
          "name": "from",
          "type": "address"
        },
        {
          "internalType": "address",
          "name": "to",
          "type": "address"
        },
        {
          "internalType": "uint256",
          "name": "tokenId",
          "type": "uint256"
        }
      ],
      "name": "safeTransferFrom",
      "outputs": [],
      "stateMutability": "nonpayable",
      "type": "function"
    },
    {
      "inputs": [
        {
          "internalType": "address",
          "name": "from",
          "type": "address"
        },
        {
          "internalType": "address",
          "name": "to",
          "type": "address"
        },
        {
          "internalType": "uint256",
          "name": "tokenId",
          "type": "uint256"
        },
        {
          "internalType": "bytes",
          "name": "_data",
          "type": "bytes"
        }
      ],
      "name": "safeTransferFrom",
      "outputs": [],
      "stateMutability": "nonpayable",
      "type": "function"
    },
    {
      "inputs": [
        {
          "internalType": "address",
          "name": "operator",
          "type": "address"
        },
        {
          "internalType": "bool",
          "name": "approved",
          "type": "bool"
        }
      ],
      "name": "setApprovalForAll",
      "outputs": [],
      "stateMutability": "nonpayable",
      "type": "function"
    },
    {
      "inputs": [
        {
          "internalType": "bytes4",
          "name": "interfaceId",
          "type": "bytes4"
        }
      ],
      "name": "supportsInterface",
      "outputs": [
        {
          "internalType": "bool",
          "name": "",
          "type": "bool"
        }
      ],
      "stateMutability": "view",
      "type": "function"
    },
    {
      "inputs": [],
      "name": "symbol",
      "outputs": [
        {
          "internalType": "string",
          "name": "",
          "type": "string"
        }
      ],
      "stateMutability": "view",
      "type": "function"
    },
    {
      "inputs": [
        {
          "internalType": "uint256",
          "name": "index",
          "type": "uint256"
        }
      ],
      "name": "tokenByIndex",
      "outputs": [
        {
          "internalType": "uint256",
          "name": "",
          "type": "uint256"
        }
      ],
      "stateMutability": "view",
      "type": "function"
    },
    {
      "inputs": [
        {
          "internalType": "address",
          "name": "owner",
          "type": "address"
        },
        {
          "internalType": "uint256",
          "name": "index",
          "type": "uint256"
        }
      ],
      "name": "tokenOfOwnerByIndex",
      "outputs": [
        {
          "internalType": "uint256",
          "name": "",
          "type": "uint256"
        }
      ],
      "stateMutability": "view",
      "type": "function"
    },
    {
      "inputs": [
        {
          "internalType": "uint256",
          "name": "tokenId",
          "type": "uint256"
        }
      ],
      "name": "tokenURI",
      "outputs": [
        {
          "internalType": "string",
          "name": "",
          "type": "string"
        }
      ],
      "stateMutability": "view",
      "type": "function"
    },
    {
      "inputs": [],
      "name": "totalSupply",
      "outputs": [
        {
          "internalType": "uint256",
          "name": "",
          "type": "uint256"
        }
      ],
      "stateMutability": "view",
      "type": "function"
    },
    {
      "inputs": [
        {
          "internalType": "address",
          "name": "from",
          "type": "address"
        },
        {
          "internalType": "address",
          "name": "to",
          "type": "address"
        },
        {
          "internalType": "uint256",
          "name": "tokenId",
          "type": "uint256"
        }
      ],
      "name": "transferFrom",
      "outputs": [],
      "stateMutability": "nonpayable",
      "type": "function"
    }
  ],
  "bytecode": "0x610240604052604d6101c08181526080918291906200220c6101e03981526020016040518060800160405280604d8152602001620022f3604d913981526020016040518060800160405280604d815260200162002340604d913981526020016040518060800160405280604d8152602001620021bf604d913981526020016040518060800160405280604d815260200162002259604d913981526020016040518060800160405280604d8152602001620022a6604d913981526020016040518060600160405280603a81526020016200238d603a913981526020016040518060800160405280604d815260200162002172604d913981526020016040518060800160405280604d815260200162002125604d913981526020016040518060800160405280604d8152602001620023c7604d913990526200014490600b90600a62000281565b503480156200015257600080fd5b5060408051808201825260038082526213919560ea1b602080840182905284518086019095529184529083015290620001926301ffc9a760e01b620001fc565b8151620001a7906006906020850190620002e5565b508051620001bd906007906020840190620002e5565b50620001d06380ac58cd60e01b620001fc565b620001e2635b5e139f60e01b620001fc565b620001f463780e9d6360e01b620001fc565b5050620003f9565b6001600160e01b031980821614156200025c576040805162461bcd60e51b815260206004820152601c60248201527f4552433136353a20696e76616c696420696e7465726661636520696400000000604482015290519081900360640190fd5b6001600160e01b0319166000908152602081905260409020805460ff19166001179055565b828054828255906000526020600020908101928215620002d3579160200282015b82811115620002d35782518051620002c2918491602090910190620002e5565b5091602001919060010190620002a2565b50620002e192915062000376565b5090565b828054600181600116156101000203166002900490600052602060002090601f0160209004810192826200031d576000855562000368565b82601f106200033857805160ff191683800117855562000368565b8280016001018555821562000368579182015b82811115620003685782518255916020019190600101906200034b565b50620002e192915062000397565b80821115620002e15760006200038d8282620003ae565b5060010162000376565b5b80821115620002e1576000815560010162000398565b50805460018160011615610100020316600290046000825580601f10620003d65750620003f6565b601f016020900490600052602060002090810190620003f6919062000397565b50565b611d1c80620004096000396000f3fe608060405234801561001057600080fd5b50600436106101165760003560e01c80636352211e116100a2578063a22cb46511610071578063a22cb4651461035c578063b88d4fde1461038a578063c87b56dd14610450578063d0be2a931461046d578063e985e9c51461049357610116565b80636352211e146103095780636c0360eb1461032657806370a082311461032e57806395d89b411461035457610116565b806318160ddd116100e957806318160ddd1461023a57806323b872dd146102545780632f745c591461028a57806342842e0e146102b65780634f6ccce7146102ec57610116565b806301ffc9a71461011b57806306fdde0314610156578063081812fc146101d3578063095ea7b31461020c575b600080fd5b6101426004803603602081101561013157600080fd5b50356001600160e01b0319166104c1565b604080519115158252519081900360200190f35b61015e6104e4565b6040805160208082528351818301528351919283929083019185019080838360005b83811015610198578181015183820152602001610180565b50505050905090810190601f1680156101c55780820380516001836020036101000a031916815260200191505b509250505060405180910390f35b6101f0600480360360208110156101e957600080fd5b503561057a565b604080516001600160a01b039092168252519081900360200190f35b6102386004803603604081101561022257600080fd5b506001600160a01b0381351690602001356105dc565b005b6102426106b7565b60408051918252519081900360200190f35b6102386004803603606081101561026a57600080fd5b506001600160a01b038135811691602081013590911690604001356106c8565b610242600480360360408110156102a057600080fd5b506001600160a01b03813516906020013561071f565b610238600480360360608110156102cc57600080fd5b506001600160a01b0381358116916020810135909116906040013561074a565b6102426004803603602081101561030257600080fd5b5035610765565b6101f06004803603602081101561031f57600080fd5b503561077b565b61015e6107a3565b6102426004803603602081101561034457600080fd5b50356001600160a01b0316610804565b61015e61086c565b6102386004803603604081101561037257600080fd5b506001600160a01b03813516906020013515156108cd565b610238600480360360808110156103a057600080fd5b6001600160a01b038235811692602081013590911691604082013591908101906080810160608201356401000000008111156103db57600080fd5b8201836020820111156103ed57600080fd5b8035906020019184600183028401116401000000008311171561040f57600080fd5b91908080601f0160208091040260200160405190810160405280939291908181526020018383808284376000920191909152509295506109d2945050505050565b61015e6004803603602081101561046657600080fd5b5035610a30565b6102426004803603602081101561048357600080fd5b50356001600160a01b0316610cd5565b610142600480360360408110156104a957600080fd5b506001600160a01b0381358116916020013516610da5565b6001600160e01b0319811660009081526020819052604090205460ff165b919050565b60068054604080516020601f60026000196101006001881615020190951694909404938401819004810282018101909252828152606093909290918301828280156105705780601f1061054557610100808354040283529160200191610570565b820191906000526020600020905b81548152906001019060200180831161055357829003601f168201915b5050505050905090565b600061058582610dd3565b6105c05760405162461bcd60e51b815260040180806020018281038252602c815260200180611be5602c913960400191505060405180910390fd5b506000908152600460205260409020546001600160a01b031690565b60006105e78261077b565b9050806001600160a01b0316836001600160a01b0316141561063a5760405162461bcd60e51b8152600401808060200182810382526021815260200180611c956021913960400191505060405180910390fd5b806001600160a01b031661064c610de0565b6001600160a01b0316148061066d575061066d81610668610de0565b610da5565b6106a85760405162461bcd60e51b8152600401808060200182810382526038815260200180611b386038913960400191505060405180910390fd5b6106b28383610de4565b505050565b60006106c36002610e52565b905090565b6106d96106d3610de0565b82610e5d565b6107145760405162461bcd60e51b8152600401808060200182810382526031815260200180611cb66031913960400191505060405180910390fd5b6106b2838383610f01565b6001600160a01b0382166000908152600160205260408120610741908361104d565b90505b92915050565b6106b2838383604051806020016040528060008152506109d2565b600080610773600284611059565b509392505050565b600061074482604051806060016040528060298152602001611b9a6029913960029190611075565b60098054604080516020601f60026000196101006001881615020190951694909404938401819004810282018101909252828152606093909290918301828280156105705780601f1061054557610100808354040283529160200191610570565b60006001600160a01b03821661084b5760405162461bcd60e51b815260040180806020018281038252602a815260200180611b70602a913960400191505060405180910390fd5b6001600160a01b038216600090815260016020526040902061074490610e52565b60078054604080516020601f60026000196101006001881615020190951694909404938401819004810282018101909252828152606093909290918301828280156105705780601f1061054557610100808354040283529160200191610570565b6108d5610de0565b6001600160a01b0316826001600160a01b0316141561093b576040805162461bcd60e51b815260206004820152601960248201527f4552433732313a20617070726f766520746f2063616c6c657200000000000000604482015290519081900360640190fd5b8060056000610948610de0565b6001600160a01b03908116825260208083019390935260409182016000908120918716808252919093529120805460ff19169215159290921790915561098c610de0565b6001600160a01b03167f17307eab39ab6107e8899845ad3d59bd9653f200f220920489ca2b5937696c318360405180821515815260200191505060405180910390a35050565b6109e36109dd610de0565b83610e5d565b610a1e5760405162461bcd60e51b8152600401808060200182810382526031815260200180611cb66031913960400191505060405180910390fd5b610a2a8484848461108c565b50505050565b6060610a3b82610dd3565b610a765760405162461bcd60e51b815260040180806020018281038252602f815260200180611c66602f913960400191505060405180910390fd5b60008281526008602090815260408083208054825160026001831615610100026000190190921691909104601f810185900485028201850190935282815292909190830182828015610b095780601f10610ade57610100808354040283529160200191610b09565b820191906000526020600020905b815481529060010190602001808311610aec57829003601f168201915b505060095493945050505060026000196101006001841615020190911604610b325790506104df565b805115610c03576009816040516020018083805460018160011615610100020316600290048015610b9a5780601f10610b78576101008083540402835291820191610b9a565b820191906000526020600020905b815481529060010190602001808311610b86575b5050825160208401908083835b60208310610bc65780518252601f199092019160209182019101610ba7565b6001836020036101000a038019825116818451168082178552505050505050905001925050506040516020818303038152906040529150506104df565b6009610c0e846110de565b6040516020018083805460018160011615610100020316600290048015610c6c5780601f10610c4a576101008083540402835291820191610c6c565b820191906000526020600020905b815481529060010190602001808311610c58575b5050825160208401908083835b60208310610c985780518252601f199092019160209182019101610c79565b6001836020036101000a03801982511681845116808217855250505050505090500192505050604051602081830303815290604052915050919050565b6000610ce1600a6111b9565b6000610ced600a6111c2565b9050610cf983826111c6565b61074481600b6001840381548110610d0d57fe5b600091825260209182902001805460408051601f6002600019610100600187161502019094169390930492830185900485028101850190915281815292830182828015610d9b5780601f10610d7057610100808354040283529160200191610d9b565b820191906000526020600020905b815481529060010190602001808311610d7e57829003601f168201915b50505050506112f4565b6001600160a01b03918216600090815260056020908152604080832093909416825291909152205460ff1690565b6000610744600283611357565b3390565b600081815260046020526040902080546001600160a01b0319166001600160a01b0384169081179091558190610e198261077b565b6001600160a01b03167f8c5be1e5ebec7d5bd14f71427d1e84f3dd0314c0f7b2291e5b200ac8c7c3b92560405160405180910390a45050565b6000610744826111c2565b6000610e6882610dd3565b610ea35760405162461bcd60e51b815260040180806020018281038252602c815260200180611b0c602c913960400191505060405180910390fd5b6000610eae8361077b565b9050806001600160a01b0316846001600160a01b03161480610ee95750836001600160a01b0316610ede8461057a565b6001600160a01b0316145b80610ef95750610ef98185610da5565b949350505050565b826001600160a01b0316610f148261077b565b6001600160a01b031614610f595760405162461bcd60e51b8152600401808060200182810382526029815260200180611c3d6029913960400191505060405180910390fd5b6001600160a01b038216610f9e5760405162461bcd60e51b8152600401808060200182810382526024815260200180611ae86024913960400191505060405180910390fd5b610fa98383836106b2565b610fb4600082610de4565b6001600160a01b0383166000908152600160205260409020610fd69082611363565b506001600160a01b0382166000908152600160205260409020610ff9908261136f565b506110066002828461137b565b5080826001600160a01b0316846001600160a01b03167fddf252ad1be2c89b69c2b068fc378daa952ba7f163c4a11628f55a4df523b3ef60405160405180910390a4505050565b60006107418383611391565b600080808061106886866113f5565b9097909650945050505050565b6000611082848484611470565b90505b9392505050565b611097848484610f01565b6110a38484848461153a565b610a2a5760405162461bcd60e51b8152600401808060200182810382526032815260200180611ab66032913960400191505060405180910390fd5b60608161110357506040805180820190915260018152600360fc1b60208201526104df565b8160005b811561111b57600101600a82049150611107565b60008167ffffffffffffffff8111801561113457600080fd5b506040519080825280601f01601f19166020018201604052801561115f576020820181803683370190505b50859350905060001982015b83156111b057600a840660300160f81b8282806001900393508151811061118e57fe5b60200101906001600160f81b031916908160001a905350600a8404935061116b565b50949350505050565b80546001019055565b5490565b6001600160a01b038216611221576040805162461bcd60e51b815260206004820181905260248201527f4552433732313a206d696e7420746f20746865207a65726f2061646472657373604482015290519081900360640190fd5b61122a81610dd3565b1561127c576040805162461bcd60e51b815260206004820152601c60248201527f4552433732313a20746f6b656e20616c7265616479206d696e74656400000000604482015290519081900360640190fd5b611288600083836106b2565b6001600160a01b03821660009081526001602052604090206112aa908261136f565b506112b76002828461137b565b5060405181906001600160a01b038416906000907fddf252ad1be2c89b69c2b068fc378daa952ba7f163c4a11628f55a4df523b3ef908290a45050565b6112fd82610dd3565b6113385760405162461bcd60e51b815260040180806020018281038252602c815260200180611c11602c913960400191505060405180910390fd5b600082815260086020908152604090912082516106b2928401906119f2565b600061074183836116a2565b600061074183836116ba565b60006107418383611780565b600061108284846001600160a01b0385166117ca565b815460009082106113d35760405162461bcd60e51b8152600401808060200182810382526022815260200180611a946022913960400191505060405180910390fd5b8260000182815481106113e257fe5b9060005260206000200154905092915050565b8154600090819083106114395760405162461bcd60e51b8152600401808060200182810382526022815260200180611bc36022913960400191505060405180910390fd5b600084600001848154811061144a57fe5b906000526020600020906002020190508060000154816001015492509250509250929050565b6000828152600184016020526040812054828161150b5760405162461bcd60e51b81526004018080602001828103825283818151815260200191508051906020019080838360005b838110156114d05781810151838201526020016114b8565b50505050905090810190601f1680156114fd5780820380516001836020036101000a031916815260200191505b509250505060405180910390fd5b5084600001600182038154811061151e57fe5b9060005260206000209060020201600101549150509392505050565b600061154e846001600160a01b0316611861565b61155a57506001610ef9565b6000611668630a85bd0160e11b61156f610de0565b88878760405160240180856001600160a01b03168152602001846001600160a01b0316815260200183815260200180602001828103825283818151815260200191508051906020019080838360005b838110156115d65781810151838201526020016115be565b50505050905090810190601f1680156116035780820380516001836020036101000a031916815260200191505b5095505050505050604051602081830303815290604052906001600160e01b0319166020820180516001600160e01b038381831617835250505050604051806060016040528060328152602001611ab6603291396001600160a01b0388169190611867565b9050600081806020019051602081101561168157600080fd5b50516001600160e01b031916630a85bd0160e11b1492505050949350505050565b60009081526001919091016020526040902054151590565b6000818152600183016020526040812054801561177657835460001980830191908101906000908790839081106116ed57fe5b906000526020600020015490508087600001848154811061170a57fe5b60009182526020808320909101929092558281526001898101909252604090209084019055865487908061173a57fe5b60019003818190600052602060002001600090559055866001016000878152602001908152602001600020600090556001945050505050610744565b6000915050610744565b600061178c83836116a2565b6117c257508154600181810184556000848152602080822090930184905584548482528286019093526040902091909155610744565b506000610744565b60008281526001840160205260408120548061182f575050604080518082018252838152602080820184815286546001818101895560008981528481209551600290930290950191825591519082015586548684528188019092529290912055611085565b8285600001600183038154811061184257fe5b9060005260206000209060020201600101819055506000915050611085565b3b151590565b606061108284846000858561187b85611861565b6118cc576040805162461bcd60e51b815260206004820152601d60248201527f416464726573733a2063616c6c20746f206e6f6e2d636f6e7472616374000000604482015290519081900360640190fd5b600080866001600160a01b031685876040518082805190602001908083835b6020831061190a5780518252601f1990920191602091820191016118eb565b6001836020036101000a03801982511681845116808217855250505050505090500191505060006040518083038185875af1925050503d806000811461196c576040519150601f19603f3d011682016040523d82523d6000602084013e611971565b606091505b509150915061198182828661198c565b979650505050505050565b6060831561199b575081611085565b8251156119ab5782518084602001fd5b60405162461bcd60e51b81526020600482018181528451602484015284518593919283926044019190850190808383600083156114d05781810151838201526020016114b8565b828054600181600116156101000203166002900490600052602060002090601f016020900481019282611a285760008555611a6e565b82601f10611a4157805160ff1916838001178555611a6e565b82800160010185558215611a6e579182015b82811115611a6e578251825591602001919060010190611a53565b50611a7a929150611a7e565b5090565b5b80821115611a7a5760008155600101611a7f56fe456e756d657261626c655365743a20696e646578206f7574206f6620626f756e64734552433732313a207472616e7366657220746f206e6f6e20455243373231526563656976657220696d706c656d656e7465724552433732313a207472616e7366657220746f20746865207a65726f20616464726573734552433732313a206f70657261746f7220717565727920666f72206e6f6e6578697374656e7420746f6b656e4552433732313a20617070726f76652063616c6c6572206973206e6f74206f776e6572206e6f7220617070726f76656420666f7220616c6c4552433732313a2062616c616e636520717565727920666f7220746865207a65726f20616464726573734552433732313a206f776e657220717565727920666f72206e6f6e6578697374656e7420746f6b656e456e756d657261626c654d61703a20696e646578206f7574206f6620626f756e64734552433732313a20617070726f76656420717565727920666f72206e6f6e6578697374656e7420746f6b656e4552433732314d657461646174613a2055524920736574206f66206e6f6e6578697374656e7420746f6b656e4552433732313a207472616e73666572206f6620746f6b656e2074686174206973206e6f74206f776e4552433732314d657461646174613a2055524920717565727920666f72206e6f6e6578697374656e7420746f6b656e4552433732313a20617070726f76616c20746f2063757272656e74206f776e65724552433732313a207472616e736665722063616c6c6572206973206e6f74206f776e6572206e6f7220617070726f766564a2646970667358221220f19d6f64e593d8c4a17fa9b489128edf4163febeba4a5705e897a1787245d93864736f6c6343000706003368747470733a2f2f697066732e64616f6e6f6d69632e636f6d2f697066732f516d5541554d65415347646a6b555a44596d33477a6b614138394d6a65455a4c666252763937703865716a71765068747470733a2f2f697066732e64616f6e6f6d69632e636f6d2f697066732f516d665a6b534e3246647058736665555a7941684850375578364151486745744a477a3859395267467758654a6268747470733a2f2f697066732e64616f6e6f6d69632e636f6d2f697066732f516d64315a46755177757a32446d4a6a4b437a5466424a7a6b36346d626379646238594d6955664b6e664d69443968747470733a2f2f697066732e64616f6e6f6d69632e636f6d2f697066732f516d5173796f315267344a775355326637724d38336f6a744451507a364e345077384e574b674e6a666a77746a7868747470733a2f2f697066732e64616f6e6f6d69632e636f6d2f697066732f516d517a566b7052516138534b506551566261395956426d4859585865415a764c4b716b44326e327753734a453268747470733a2f2f697066732e64616f6e6f6d69632e636f6d2f697066732f516d54676154534d7a5354425974546b523173735a7650535a366937584a744347473974644b5664646f7539643568747470733a2f2f697066732e64616f6e6f6d69632e636f6d2f697066732f516d635a37564c38793637666179337558767947474d5574354d4a6b6e3138514b47655138386a5068556a79385168747470733a2f2f697066732e64616f6e6f6d69632e636f6d2f697066732f516d6562734442793839517446686136654337635134487379466d794c75745647725143343251746655657a6135697066733a2f2f697066732f516d554c5448467262317a48754d716733706673554a6432536f7a4147547a61453175774162697934754a416f3368747470733a2f2f697066732e64616f6e6f6d69632e636f6d2f697066732f516d61704c414c70466a377964506a46334847336d77745873506f414c666b4c454b324d6f487742763836516441",
  "linkReferences": {},
  "deployedLinkReferences": {}
}