{
  "contractName": "WhiteElephant",
  "abi": [
    {
      "anonymous": false,
      "inputs": [
        {
          "indexed": true,
          "internalType": "address",
          "name": "previousOwner",
          "type": "address"
        },
        {
          "indexed": true,
          "internalType": "address",
          "name": "newOwner",
          "type": "address"
        }
      ],
      "name": "OwnershipTransferred",
      "type": "event"
    },
    {
      "inputs": [],
      "name": "currNftToUnwrap",
      "outputs": [
        {
          "internalType": "uint256",
          "name": "",
          "type": "uint256"
        }
      ],
      "stateMutability": "view",
      "type": "function"
    },
    {
      "inputs": [],
      "name": "currentUnwrapper",
      "outputs": [
        {
          "internalType": "uint16",
          "name": "",
          "type": "uint16"
        }
      ],
      "stateMutability": "view",
      "type": "function"
    },
    {
      "inputs": [
        {
          "internalType": "uint256",
          "name": "",
          "type": "uint256"
        }
      ],
      "name": "nfts",
      "outputs": [
        {
          "internalType": "contract ERC721",
          "name": "nft",
          "type": "address"
        },
        {
          "internalType": "uint256",
          "name": "tokenId",
          "type": "uint256"
        }
      ],
      "stateMutability": "view",
      "type": "function"
    },
    {
      "inputs": [],
      "name": "orderNum",
      "outputs": [
        {
          "internalType": "uint16",
          "name": "",
          "type": "uint16"
        }
      ],
      "stateMutability": "view",
      "type": "function"
    },
    {
      "inputs": [],
      "name": "owner",
      "outputs": [
        {
          "internalType": "address",
          "name": "",
          "type": "address"
        }
      ],
      "stateMutability": "view",
      "type": "function"
    },
    {
      "inputs": [
        {
          "internalType": "uint256",
          "name": "",
          "type": "uint256"
        }
      ],
      "name": "playas",
      "outputs": [
        {
          "internalType": "address",
          "name": "",
          "type": "address"
        }
      ],
      "stateMutability": "view",
      "type": "function"
    },
    {
      "inputs": [],
      "name": "renounceOwnership",
      "outputs": [],
      "stateMutability": "nonpayable",
      "type": "function"
    },
    {
      "inputs": [
        {
          "internalType": "address",
          "name": "newOwner",
          "type": "address"
        }
      ],
      "name": "transferOwnership",
      "outputs": [],
      "stateMutability": "nonpayable",
      "type": "function"
    },
    {
      "inputs": [],
      "name": "buyTicket",
      "outputs": [],
      "stateMutability": "payable",
      "type": "function"
    },
    {
      "inputs": [
        {
          "internalType": "contract ERC721",
          "name": "_nft",
          "type": "address"
        },
        {
          "internalType": "uint256",
          "name": "_tokenId",
          "type": "uint256"
        }
      ],
      "name": "depositNft",
      "outputs": [],
      "stateMutability": "nonpayable",
      "type": "function"
    },
    {
      "inputs": [
        {
          "internalType": "uint256",
          "name": "_stealFrom",
          "type": "uint256"
        },
        {
          "internalType": "address",
          "name": "_theirAddress",
          "type": "address"
        }
      ],
      "name": "stealNft",
      "outputs": [],
      "stateMutability": "nonpayable",
      "type": "function"
    },
    {
      "inputs": [],
      "name": "unwrap",
      "outputs": [],
      "stateMutability": "nonpayable",
      "type": "function"
    },
    {
      "inputs": [],
      "name": "unwrapAfterStolen",
      "outputs": [],
      "stateMutability": "nonpayable",
      "type": "function"
    },
    {
      "inputs": [],
      "name": "myOrderNum",
      "outputs": [
        {
          "internalType": "uint16",
          "name": "",
          "type": "uint16"
        }
      ],
      "stateMutability": "view",
      "type": "function"
    },
    {
      "inputs": [],
      "name": "endEvent",
      "outputs": [],
      "stateMutability": "nonpayable",
      "type": "function"
    }
  ],
  "bytecode": "0x60806040526001600260006101000a81548161ffff021916908361ffff16021790555034801561002e57600080fd5b50600061003f6100e260201b60201c565b9050806000806101000a81548173ffffffffffffffffffffffffffffffffffffffff021916908373ffffffffffffffffffffffffffffffffffffffff1602179055508073ffffffffffffffffffffffffffffffffffffffff16600073ffffffffffffffffffffffffffffffffffffffff167f8be0079c531659141344cd1fd0a4f28419497f9722a3daafe3b4186f6b6457e060405160405180910390a3506100ea565b600033905090565b611ad6806100f96000396000f3fe6080604052600436106100e85760003560e01c80639d78c8341161008a578063f0178c8311610059578063f0178c8314610362578063f2fde38b1461038d578063f8e4f978146103de578063fd02ffb71461040d576100e8565b80639d78c834146102b7578063a72e2cd6146102e6578063edca914c14610341578063ef2a209a1461034b576100e8565b8063600d003b116100c6578063600d003b146101e3578063715018a61461024857806386ec61771461025f5780638da5cb5b14610276576100e8565b8063265aa621146100ed57806328ad0ccb146101595780634255f4ea14610188575b600080fd5b3480156100f957600080fd5b506101266004803603602081101561011057600080fd5b8101908080359060200190929190505050610424565b604051808373ffffffffffffffffffffffffffffffffffffffff1681526020018281526020019250505060405180910390f35b34801561016557600080fd5b5061016e610478565b604051808261ffff16815260200191505060405180910390f35b34801561019457600080fd5b506101e1600480360360408110156101ab57600080fd5b8101908080359060200190929190803573ffffffffffffffffffffffffffffffffffffffff16906020019092919050505061048c565b005b3480156101ef57600080fd5b5061021c6004803603602081101561020657600080fd5b810190808035906020019092919050505061091b565b604051808273ffffffffffffffffffffffffffffffffffffffff16815260200191505060405180910390f35b34801561025457600080fd5b5061025d61095a565b005b34801561026b57600080fd5b50610274610ae0565b005b34801561028257600080fd5b5061028b610d49565b604051808273ffffffffffffffffffffffffffffffffffffffff16815260200191505060405180910390f35b3480156102c357600080fd5b506102cc610d72565b604051808261ffff16815260200191505060405180910390f35b3480156102f257600080fd5b5061033f6004803603604081101561030957600080fd5b81019080803573ffffffffffffffffffffffffffffffffffffffff16906020019092919080359060200190929190505050610d86565b005b610349610eda565b005b34801561035757600080fd5b506103606111dc565b005b34801561036e57600080fd5b5061037761159d565b6040518082815260200191505060405180910390f35b34801561039957600080fd5b506103dc600480360360208110156103b057600080fd5b81019080803573ffffffffffffffffffffffffffffffffffffffff1690602001909291905050506115a3565b005b3480156103ea57600080fd5b506103f36117ae565b604051808261ffff16815260200191505060405180910390f35b34801561041957600080fd5b50610422611834565b005b6005818154811061043457600080fd5b90600052602060002090600202016000915090508060000160009054906101000a900473ffffffffffffffffffffffffffffffffffffffff16908060010154905082565b600460009054906101000a900461ffff1681565b33600460009054906101000a900461ffff1661ffff16600160008373ffffffffffffffffffffffffffffffffffffffff1673ffffffffffffffffffffffffffffffffffffffff16815260200190815260200160002060020160009054906101000a900461ffff1661ffff161461056a576040517f08c379a000000000000000000000000000000000000000000000000000000000815260040180806020018281038252600e8152602001807f6e6f7420796f7572206f7264657200000000000000000000000000000000000081525060200191505060405180910390fd5b6000600160003373ffffffffffffffffffffffffffffffffffffffff1673ffffffffffffffffffffffffffffffffffffffff1681526020019081526020016000209050838160020160009054906101000a900461ffff1661ffff1611610638576040517f08c379a00000000000000000000000000000000000000000000000000000000081526004018080602001828103825260148152602001807f63616e7420737465616c2066726f6d207468656d00000000000000000000000081525060200191505060405180910390fd5b60001515600160008573ffffffffffffffffffffffffffffffffffffffff1673ffffffffffffffffffffffffffffffffffffffff16815260200190815260200160002060020160039054906101000a900460ff16151514610701576040517f08c379a000000000000000000000000000000000000000000000000000000000815260040180806020018281038252601a8152602001807f63616e7420737465616c2066726f6d207468656d20616761696e00000000000081525060200191505060405180910390fd5b600160008473ffffffffffffffffffffffffffffffffffffffff1673ffffffffffffffffffffffffffffffffffffffff16815260200190815260200160002060000160009054906101000a900473ffffffffffffffffffffffffffffffffffffffff168160000160006101000a81548173ffffffffffffffffffffffffffffffffffffffff021916908373ffffffffffffffffffffffffffffffffffffffff160217905550600160008473ffffffffffffffffffffffffffffffffffffffff1673ffffffffffffffffffffffffffffffffffffffff16815260200190815260200160002060010154816001018190555060018060008573ffffffffffffffffffffffffffffffffffffffff1673ffffffffffffffffffffffffffffffffffffffff16815260200190815260200160002060020160036101000a81548160ff0219169083151502179055506000600160008573ffffffffffffffffffffffffffffffffffffffff1673ffffffffffffffffffffffffffffffffffffffff16815260200190815260200160002060000160006101000a81548173ffffffffffffffffffffffffffffffffffffffff021916908373ffffffffffffffffffffffffffffffffffffffff1602179055506000600160008573ffffffffffffffffffffffffffffffffffffffff1673ffffffffffffffffffffffffffffffffffffffff1681526020019081526020016000206001018190555050505050565b6003818154811061092b57600080fd5b906000526020600020016000915054906101000a900473ffffffffffffffffffffffffffffffffffffffff1681565b610962611a4c565b73ffffffffffffffffffffffffffffffffffffffff1660008054906101000a900473ffffffffffffffffffffffffffffffffffffffff1673ffffffffffffffffffffffffffffffffffffffff1614610a22576040517f08c379a00000000000000000000000000000000000000000000000000000000081526004018080602001828103825260208152602001807f4f776e61626c653a2063616c6c6572206973206e6f7420746865206f776e657281525060200191505060405180910390fd5b600073ffffffffffffffffffffffffffffffffffffffff1660008054906101000a900473ffffffffffffffffffffffffffffffffffffffff1673ffffffffffffffffffffffffffffffffffffffff167f8be0079c531659141344cd1fd0a4f28419497f9722a3daafe3b4186f6b6457e060405160405180910390a360008060006101000a81548173ffffffffffffffffffffffffffffffffffffffff021916908373ffffffffffffffffffffffffffffffffffffffff160217905550565b610ae8611a4c565b73ffffffffffffffffffffffffffffffffffffffff1660008054906101000a900473ffffffffffffffffffffffffffffffffffffffff1673ffffffffffffffffffffffffffffffffffffffff1614610ba8576040517f08c379a00000000000000000000000000000000000000000000000000000000081526004018080602001828103825260208152602001807f4f776e61626c653a2063616c6c6572206973206e6f7420746865206f776e657281525060200191505060405180910390fd5b60005b600380549050811015610d465760006001600060038481548110610bcb57fe5b9060005260206000200160009054906101000a900473ffffffffffffffffffffffffffffffffffffffff1673ffffffffffffffffffffffffffffffffffffffff1673ffffffffffffffffffffffffffffffffffffffff16815260200190815260200160002090508060000160009054906101000a900473ffffffffffffffffffffffffffffffffffffffff1673ffffffffffffffffffffffffffffffffffffffff166323b872dd3060038581548110610c8057fe5b9060005260206000200160009054906101000a900473ffffffffffffffffffffffffffffffffffffffff1684600101546040518463ffffffff1660e01b8152600401808473ffffffffffffffffffffffffffffffffffffffff1681526020018373ffffffffffffffffffffffffffffffffffffffff1681526020018281526020019350505050600060405180830381600087803b158015610d2057600080fd5b505af1158015610d34573d6000803e3d6000fd5b50505050508080600101915050610bab565b50565b60008060009054906101000a900473ffffffffffffffffffffffffffffffffffffffff16905090565b600260009054906101000a900461ffff1681565b8173ffffffffffffffffffffffffffffffffffffffff166323b872dd3330846040518463ffffffff1660e01b8152600401808473ffffffffffffffffffffffffffffffffffffffff1681526020018373ffffffffffffffffffffffffffffffffffffffff1681526020018281526020019350505050600060405180830381600087803b158015610e1557600080fd5b505af1158015610e29573d6000803e3d6000fd5b50505050600560405180604001604052808473ffffffffffffffffffffffffffffffffffffffff16815260200183815250908060018154018082558091505060019003906000526020600020906002020160009091909190915060008201518160000160006101000a81548173ffffffffffffffffffffffffffffffffffffffff021916908373ffffffffffffffffffffffffffffffffffffffff1602179055506020820151816001015550505050565b67016345785d8a0000341015610f58576040517f08c379a00000000000000000000000000000000000000000000000000000000081526004018080602001828103825260158152602001807f7469636b657420707269636520697320302e303031000000000000000000000081525060200191505060405180910390fd5b60001515600160003373ffffffffffffffffffffffffffffffffffffffff1673ffffffffffffffffffffffffffffffffffffffff16815260200190815260200160002060020160049054906101000a900460ff16151514611021576040517f08c379a000000000000000000000000000000000000000000000000000000000815260040180806020018281038252601b8152602001807f6f6e6c79206f6e65207469636b6574207065722061646472657373000000000081525060200191505060405180910390fd5b60018060003373ffffffffffffffffffffffffffffffffffffffff1673ffffffffffffffffffffffffffffffffffffffff16815260200190815260200160002060020160026101000a81548160ff02191690831515021790555060018060003373ffffffffffffffffffffffffffffffffffffffff1673ffffffffffffffffffffffffffffffffffffffff16815260200190815260200160002060020160046101000a81548160ff021916908315150217905550600260009054906101000a900461ffff16600160003373ffffffffffffffffffffffffffffffffffffffff1673ffffffffffffffffffffffffffffffffffffffff16815260200190815260200160002060020160006101000a81548161ffff021916908361ffff1602179055506002600081819054906101000a900461ffff168092919060010191906101000a81548161ffff021916908361ffff160217905550506003339080600181540180825580915050600190039060005260206000200160009091909190916101000a81548173ffffffffffffffffffffffffffffffffffffffff021916908373ffffffffffffffffffffffffffffffffffffffff160217905550565b6000600160003373ffffffffffffffffffffffffffffffffffffffff1673ffffffffffffffffffffffffffffffffffffffff16815260200190815260200160002090508060020160049054906101000a900460ff166112a3576040517f08c379a000000000000000000000000000000000000000000000000000000000815260040180806020018281038252600d8152602001807f796f752063616e7420706c61790000000000000000000000000000000000000081525060200191505060405180910390fd5b600115158160020160029054906101000a900460ff1615151461132e576040517f08c379a00000000000000000000000000000000000000000000000000000000081526004018080602001828103825260168152602001807f796f75206d75737420686176652061207469636b65740000000000000000000081525060200191505060405180910390fd5b600115158160020160039054906101000a900460ff161515146113b9576040517f08c379a000000000000000000000000000000000000000000000000000000000815260040180806020018281038252601e8152602001807f796f75206d7573742068617665206265656e2073746f6c656e2066726f6d000081525060200191505060405180910390fd5b600073ffffffffffffffffffffffffffffffffffffffff168160000160009054906101000a900473ffffffffffffffffffffffffffffffffffffffff1673ffffffffffffffffffffffffffffffffffffffff1614611462576040517f08c379a0000000000000000000000000000000000000000000000000000000008152600401808060200182810382526026815260200180611a7b6026913960400191505060405180910390fd5b60008160010154146114dc576040517f08c379a000000000000000000000000000000000000000000000000000000000815260040180806020018281038252600b8152602001807f7765697264206572726f7200000000000000000000000000000000000000000081525060200191505060405180910390fd5b6005600754815481106114eb57fe5b906000526020600020906002020160000160009054906101000a900473ffffffffffffffffffffffffffffffffffffffff168160000160006101000a81548173ffffffffffffffffffffffffffffffffffffffff021916908373ffffffffffffffffffffffffffffffffffffffff16021790555060056007548154811061156e57fe5b906000526020600020906002020160010154816001018190555060076000815480929190600101919050555050565b60075481565b6115ab611a4c565b73ffffffffffffffffffffffffffffffffffffffff1660008054906101000a900473ffffffffffffffffffffffffffffffffffffffff1673ffffffffffffffffffffffffffffffffffffffff161461166b576040517f08c379a00000000000000000000000000000000000000000000000000000000081526004018080602001828103825260208152602001807f4f776e61626c653a2063616c6c6572206973206e6f7420746865206f776e657281525060200191505060405180910390fd5b600073ffffffffffffffffffffffffffffffffffffffff168173ffffffffffffffffffffffffffffffffffffffff1614156116f1576040517f08c379a0000000000000000000000000000000000000000000000000000000008152600401808060200182810382526026815260200180611a556026913960400191505060405180910390fd5b8073ffffffffffffffffffffffffffffffffffffffff1660008054906101000a900473ffffffffffffffffffffffffffffffffffffffff1673ffffffffffffffffffffffffffffffffffffffff167f8be0079c531659141344cd1fd0a4f28419497f9722a3daafe3b4186f6b6457e060405160405180910390a3806000806101000a81548173ffffffffffffffffffffffffffffffffffffffff021916908373ffffffffffffffffffffffffffffffffffffffff16021790555050565b600080600160003373ffffffffffffffffffffffffffffffffffffffff1673ffffffffffffffffffffffffffffffffffffffff1681526020019081526020016000209050600015158160020160049054906101000a900460ff161515141561181a576000915050611831565b8060020160009054906101000a900461ffff169150505b90565b33600460009054906101000a900461ffff1661ffff16600160008373ffffffffffffffffffffffffffffffffffffffff1673ffffffffffffffffffffffffffffffffffffffff16815260200190815260200160002060020160009054906101000a900461ffff1661ffff1614611912576040517f08c379a000000000000000000000000000000000000000000000000000000000815260040180806020018281038252600e8152602001807f6e6f7420796f7572206f7264657200000000000000000000000000000000000081525060200191505060405180910390fd5b6000600160003373ffffffffffffffffffffffffffffffffffffffff1673ffffffffffffffffffffffffffffffffffffffff168152602001908152602001600020905060056007548154811061196457fe5b906000526020600020906002020160000160009054906101000a900473ffffffffffffffffffffffffffffffffffffffff168160000160006101000a81548173ffffffffffffffffffffffffffffffffffffffff021916908373ffffffffffffffffffffffffffffffffffffffff1602179055506005600754815481106119e757fe5b90600052602060002090600202016001015481600101819055506007600081548092919060010191905055506004600081819054906101000a900461ffff168092919060010191906101000a81548161ffff021916908361ffff160217905550505050565b60003390509056fe4f776e61626c653a206e6577206f776e657220697320746865207a65726f2061646472657373796f75206861766520616c726561647920756e7772617070656420616674657220737465616ca264697066735822122048099e9b5d0d9527aaaa5e76f52b2a0537bab3577adf37949ad7f0493e30742c64736f6c63430007050033",
  "immutableReferences": {},
  "source": "// SPDX-License-Identifier: MIT\npragma solidity ^0.7.5;\n\nimport \"../node_modules/@openzeppelin/contracts/token/ERC721/ERC721.sol\";\nimport \"../node_modules/@openzeppelin/contracts/access/Ownable.sol\";\n\ncontract WhiteElephant is Ownable {\n    struct Info {\n        address nft;\n        uint256 tokenId;\n        uint16 orderNum;\n        bool hasTicket;\n        bool wasStolenFrom;\n        bool exists;\n    }\n\n    struct Nft {\n        ERC721 nft;\n        uint256 tokenId;\n    }\n\n    mapping(address => Info) private info;\n\n    // todo: this will be chainlink\n    // 0 signifies no ticket number. i.e. you have not bought the ticket\n    uint16 public orderNum = 1;\n\n    // todo: decide on the max total number of players\n    address[] public playas;\n\n    uint16 public currentUnwrapper;\n\n    Nft[] public nfts;\n\n    // * for chainlink integration\n    uint256[] private unavailableNfts;\n\n    uint256 public currNftToUnwrap;\n\n    modifier yourOrder(address _sender) {\n        require(info[_sender].orderNum == currentUnwrapper, \"not your order\");\n        _;\n    }\n\n    modifier onChristmas() {\n        // todo: uncomment\n        // require(block.timestamp >= 1232321, \"wait for Christmas\");\n        _;\n    }\n\n    function buyTicket() public payable {\n        require(msg.value >= 0.1 ether, \"ticket price is 0.001\");\n        require(\n            info[msg.sender].exists == false,\n            \"only one ticket per address\"\n        );\n\n        info[msg.sender].hasTicket = true;\n        info[msg.sender].exists = true;\n        // give them a chainlink VRF here for the order in which they will go\n\n        // todo: refactor for chainlink\n        info[msg.sender].orderNum = orderNum;\n        orderNum++;\n\n        playas.push(msg.sender);\n    }\n\n    function depositNft(ERC721 _nft, uint256 _tokenId) public {\n        // will fail if not approved\n        _nft.transferFrom(msg.sender, address(this), _tokenId);\n        // todo: idea about deposits in the future. fees\n        nfts.push(Nft(_nft, _tokenId));\n    }\n\n    function stealNft(uint256 _stealFrom, address _theirAddress)\n        public\n        yourOrder(msg.sender)\n        onChristmas\n    {\n        // 1. user must not have the nft\n        // 2. can only steal from the people before them\n        // 3. ensure it is their order\n        Info storage player = info[msg.sender];\n\n        require(player.orderNum > _stealFrom, \"cant steal from them\");\n        require(\n            info[_theirAddress].wasStolenFrom == false,\n            \"cant steal from them again\"\n        );\n\n        player.nft = info[_theirAddress].nft;\n        player.tokenId = info[_theirAddress].tokenId;\n\n        info[_theirAddress].wasStolenFrom = true;\n        info[_theirAddress].nft = address(0);\n        info[_theirAddress].tokenId = 0;\n    }\n\n    // on Christmas Eve, this gets unlocked\n    function unwrap() public yourOrder(msg.sender) onChristmas {\n        Info storage player = info[msg.sender];\n        // todo: require christmas\n        // ensure the order is respected\n\n        // todo: integrate chainlink. right now linear unwrapping\n        player.nft = address(nfts[currNftToUnwrap].nft);\n        player.tokenId = nfts[currNftToUnwrap].tokenId;\n        currNftToUnwrap++;\n        // ----\n\n        // increment the unwrapper\n        currentUnwrapper++;\n    }\n\n    // * potential issue if this is called at the same time as unwrap by someone else\n    // and both get the same NFT... For cases like that, ensure we have the ability\n    // to send NFTs ourselves too\n    function unwrapAfterStolen() public onChristmas {\n        Info storage player = info[msg.sender];\n        require(player.exists, \"you cant play\");\n\n        // ensure that the user was stolen from\n        require(player.hasTicket == true, \"you must have a ticket\");\n        require(player.wasStolenFrom == true, \"you must have been stolen from\");\n        require(\n            address(player.nft) == address(0),\n            \"you have already unwrapped after steal\"\n        );\n        require(player.tokenId == 0, \"weird error\");\n\n        // todo: integrate chainlink for random unwrapping\n        player.nft = address(nfts[currNftToUnwrap].nft);\n        player.tokenId = nfts[currNftToUnwrap].tokenId;\n        currNftToUnwrap++;\n        // ------\n    }\n\n    function myOrderNum() public view returns (uint16) {\n        Info storage player = info[msg.sender];\n        if (player.exists == false) {\n            return 0;\n        } else {\n            return player.orderNum;\n        }\n    }\n\n    function endEvent() public onlyOwner onChristmas {\n        // todo: require christmas\n        for (uint256 i = 0; i < playas.length; i++) {\n            Info storage player = info[playas[i]];\n            ERC721(player.nft).transferFrom(\n                address(this),\n                playas[i],\n                player.tokenId\n            );\n        }\n    }\n}\n",
  "sourcePath": "/home/shredder/git/renft/white-elephant/contracts/WhiteElephant.sol",
  "compiler": {
    "name": "solc",
    "version": "0.7.5+commit.eb77ed08.Emscripten.clang"
  },
  "schemaVersion": "3.3.2",
  "updatedAt": "2020-12-16T15:12:47.934Z",
  "devdoc": {
    "kind": "dev",
    "methods": {
      "owner()": {
        "details": "Returns the address of the current owner."
      },
      "renounceOwnership()": {
        "details": "Leaves the contract without owner. It will not be possible to call `onlyOwner` functions anymore. Can only be called by the current owner. NOTE: Renouncing ownership will leave the contract without an owner, thereby removing any functionality that is only available to the owner."
      },
      "transferOwnership(address)": {
        "details": "Transfers ownership of the contract to a new account (`newOwner`). Can only be called by the current owner."
      }
    },
    "version": 1
  },
  "userdoc": {
    "kind": "user",
    "methods": {},
    "version": 1
  }
}