{
  "_format": "hh-sol-artifact-1",
  "contractName": "WhiteElephant",
  "sourceName": "contracts/WhiteElephant.sol",
  "abi": [
    {
      "anonymous": false,
      "inputs": [
        {
          "indexed": true,
          "internalType": "address",
          "name": "previousOwner",
          "type": "address"
        },
        {
          "indexed": true,
          "internalType": "address",
          "name": "newOwner",
          "type": "address"
        }
      ],
      "name": "OwnershipTransferred",
      "type": "event"
    },
    {
      "inputs": [
        {
          "internalType": "uint256",
          "name": "",
          "type": "uint256"
        }
      ],
      "name": "allNfts",
      "outputs": [
        {
          "internalType": "contract ERC721",
          "name": "nft",
          "type": "address"
        },
        {
          "internalType": "uint256",
          "name": "tokenId",
          "type": "uint256"
        }
      ],
      "stateMutability": "view",
      "type": "function"
    },
    {
      "inputs": [],
      "name": "buyTicket",
      "outputs": [],
      "stateMutability": "payable",
      "type": "function"
    },
    {
      "inputs": [],
      "name": "currNftToUnwrap",
      "outputs": [
        {
          "internalType": "uint16",
          "name": "",
          "type": "uint16"
        }
      ],
      "stateMutability": "view",
      "type": "function"
    },
    {
      "inputs": [
        {
          "internalType": "contract ERC721",
          "name": "_nft",
          "type": "address"
        },
        {
          "internalType": "uint256",
          "name": "_tokenId",
          "type": "uint256"
        }
      ],
      "name": "depositNft",
      "outputs": [],
      "stateMutability": "nonpayable",
      "type": "function"
    },
    {
      "inputs": [],
      "name": "endEvent",
      "outputs": [],
      "stateMutability": "nonpayable",
      "type": "function"
    },
    {
      "inputs": [
        {
          "internalType": "uint256",
          "name": "_number",
          "type": "uint256"
        }
      ],
      "name": "getPlayerNumber",
      "outputs": [
        {
          "internalType": "address",
          "name": "",
          "type": "address"
        }
      ],
      "stateMutability": "view",
      "type": "function"
    },
    {
      "inputs": [],
      "name": "myNftAddress",
      "outputs": [
        {
          "internalType": "address",
          "name": "",
          "type": "address"
        }
      ],
      "stateMutability": "view",
      "type": "function"
    },
    {
      "inputs": [],
      "name": "myOrderNum",
      "outputs": [
        {
          "internalType": "uint16",
          "name": "",
          "type": "uint16"
        }
      ],
      "stateMutability": "view",
      "type": "function"
    },
    {
      "inputs": [],
      "name": "myStolenFrom",
      "outputs": [
        {
          "internalType": "bool",
          "name": "",
          "type": "bool"
        }
      ],
      "stateMutability": "view",
      "type": "function"
    },
    {
      "inputs": [],
      "name": "myTicket",
      "outputs": [
        {
          "internalType": "bool",
          "name": "",
          "type": "bool"
        }
      ],
      "stateMutability": "view",
      "type": "function"
    },
    {
      "inputs": [],
      "name": "myTokenId",
      "outputs": [
        {
          "internalType": "uint256",
          "name": "",
          "type": "uint256"
        }
      ],
      "stateMutability": "view",
      "type": "function"
    },
    {
      "inputs": [],
      "name": "numberOfPlayers",
      "outputs": [
        {
          "internalType": "uint256",
          "name": "",
          "type": "uint256"
        }
      ],
      "stateMutability": "view",
      "type": "function"
    },
    {
      "inputs": [],
      "name": "orderNum",
      "outputs": [
        {
          "internalType": "uint16",
          "name": "",
          "type": "uint16"
        }
      ],
      "stateMutability": "view",
      "type": "function"
    },
    {
      "inputs": [],
      "name": "owner",
      "outputs": [
        {
          "internalType": "address",
          "name": "",
          "type": "address"
        }
      ],
      "stateMutability": "view",
      "type": "function"
    },
    {
      "inputs": [
        {
          "internalType": "uint256",
          "name": "",
          "type": "uint256"
        }
      ],
      "name": "players",
      "outputs": [
        {
          "internalType": "address",
          "name": "",
          "type": "address"
        }
      ],
      "stateMutability": "view",
      "type": "function"
    },
    {
      "inputs": [],
      "name": "renounceOwnership",
      "outputs": [],
      "stateMutability": "nonpayable",
      "type": "function"
    },
    {
      "inputs": [
        {
          "internalType": "uint256",
          "name": "_value",
          "type": "uint256"
        }
      ],
      "name": "setTicketPrice",
      "outputs": [],
      "stateMutability": "nonpayable",
      "type": "function"
    },
    {
      "inputs": [
        {
          "internalType": "uint256",
          "name": "_stealFrom",
          "type": "uint256"
        },
        {
          "internalType": "address",
          "name": "_theirAddress",
          "type": "address"
        }
      ],
      "name": "stealNft",
      "outputs": [],
      "stateMutability": "nonpayable",
      "type": "function"
    },
    {
      "inputs": [],
      "name": "ticketPrice",
      "outputs": [
        {
          "internalType": "uint256",
          "name": "",
          "type": "uint256"
        }
      ],
      "stateMutability": "view",
      "type": "function"
    },
    {
      "inputs": [
        {
          "internalType": "address",
          "name": "newOwner",
          "type": "address"
        }
      ],
      "name": "transferOwnership",
      "outputs": [],
      "stateMutability": "nonpayable",
      "type": "function"
    },
    {
      "inputs": [],
      "name": "unwrap",
      "outputs": [],
      "stateMutability": "nonpayable",
      "type": "function"
    }
  ],
  "bytecode": "0x60806040526002805463ffff00001961ffff19909116600117166201000017905567016345785d8a000060035534801561003857600080fd5b506000610043610092565b600080546001600160a01b0319166001600160a01b0383169081178255604051929350917f8be0079c531659141344cd1fd0a4f28419497f9722a3daafe3b4186f6b6457e0908290a350610096565b3390565b610f85806100a56000396000f3fe60806040526004361061012a5760003560e01c8063a72e2cd6116100ab578063f0178c831161006f578063f0178c8314610362578063f2fde38b14610377578063f5d9bce4146103aa578063f71d96cb146103bf578063f8e4f978146103e9578063fd02ffb7146103fe5761012a565b8063a72e2cd6146102aa578063c3b1cd89146102e3578063c529de65146102f8578063e8daf95614610345578063edca914c1461035a5761012a565b806386ec6177116100f257806386ec6177146101e55780638da5cb5b146101fa5780639542d1461461022b5780639d78c834146102545780639fce6fb5146102805761012a565b80631209b1f61461012f57806315981650146101565780634255f4ea146101825780636f4bda17146101bb578063715018a6146101d0575b600080fd5b34801561013b57600080fd5b50610144610413565b60408051918252519081900360200190f35b34801561016257600080fd5b506101806004803603602081101561017957600080fd5b5035610419565b005b34801561018e57600080fd5b50610180600480360360408110156101a557600080fd5b50803590602001356001600160a01b0316610488565b3480156101c757600080fd5b50610144610678565b3480156101dc57600080fd5b5061018061067f565b3480156101f157600080fd5b50610180610733565b34801561020657600080fd5b5061020f61086d565b604080516001600160a01b039092168252519081900360200190f35b34801561023757600080fd5b5061024061087c565b604080519115158252519081900360200190f35b34801561026057600080fd5b506102696108bd565b6040805161ffff9092168252519081900360200190f35b34801561028c57600080fd5b5061020f600480360360208110156102a357600080fd5b50356108c7565b3480156102b657600080fd5b50610180600480360360408110156102cd57600080fd5b506001600160a01b0381351690602001356108f1565b3480156102ef57600080fd5b506102406109f2565b34801561030457600080fd5b506103226004803603602081101561031b57600080fd5b5035610a32565b604080516001600160a01b03909316835260208301919091528051918290030190f35b34801561035157600080fd5b50610144610a6a565b610180610aa1565b34801561036e57600080fd5b50610269610c00565b34801561038357600080fd5b506101806004803603602081101561039a57600080fd5b50356001600160a01b0316610c10565b3480156103b657600080fd5b5061020f610d1a565b3480156103cb57600080fd5b5061020f600480360360208110156103e257600080fd5b5035610d57565b3480156103f557600080fd5b50610269610d81565b34801561040a57600080fd5b50610180610dbc565b60035481565b610421610f25565b6000546001600160a01b03908116911614610483576040805162461bcd60e51b815260206004820181905260248201527f4f776e61626c653a2063616c6c6572206973206e6f7420746865206f776e6572604482015290519081900360640190fd5b600355565b600280543360008181526001602052604090209092015461ffff9081166201000090920416146104f0576040805162461bcd60e51b815260206004820152600e60248201526d3737ba103cb7bab91037b93232b960911b604482015290519081900360640190fd5b600143101561053b576040805162461bcd60e51b81526020600482015260126024820152717761697420666f72204368726973746d617360701b604482015290519081900360640190fd5b336000908152600160205260409020600281015461ffff16841061059d576040805162461bcd60e51b815260206004820152601460248201527363616e7420737465616c2066726f6d207468656d60601b604482015290519081900360640190fd5b6001600160a01b0383166000908152600160205260409020600201546301000000900460ff1615610615576040805162461bcd60e51b815260206004820152601a60248201527f63616e7420737465616c2066726f6d207468656d20616761696e000000000000604482015290519081900360640190fd5b6001600160a01b0392831660009081526001602081905260408220805484546001600160a01b0319908116919097161784558082018054949092019390935560028301805463ff0000001916630100000017905582549094169091559091555050565b6004545b90565b610687610f25565b6000546001600160a01b039081169116146106e9576040805162461bcd60e51b815260206004820181905260248201527f4f776e61626c653a2063616c6c6572206973206e6f7420746865206f776e6572604482015290519081900360640190fd5b600080546040516001600160a01b03909116907f8be0079c531659141344cd1fd0a4f28419497f9722a3daafe3b4186f6b6457e0908390a3600080546001600160a01b0319169055565b600143101561077e576040805162461bcd60e51b81526020600482015260126024820152717761697420666f72204368726973746d617360701b604482015290519081900360640190fd5b60005b60045481101561086a576000600160006004848154811061079e57fe5b60009182526020808320909101546001600160a01b03908116845290830193909352604090910190208054600480549294509216916323b872dd91309190869081106107e657fe5b60009182526020822001546001860154604080516001600160e01b031960e088901b1681526001600160a01b03958616600482015294909216602485015260448401525160648084019382900301818387803b15801561084557600080fd5b505af1158015610859573d6000803e3d6000fd5b505060019093019250610781915050565b50565b6000546001600160a01b031690565b3360009081526001602052604081206002810154600160201b900460ff166108a857600091505061067c565b600201546301000000900460ff16905061067c565b60025461ffff1681565b6000600482815481106108d657fe5b6000918252602090912001546001600160a01b031692915050565b604080516323b872dd60e01b81523360048201523060248201526044810183905290516001600160a01b038416916323b872dd91606480830192600092919082900301818387803b15801561094557600080fd5b505af1158015610959573d6000803e3d6000fd5b5050604080518082019091526001600160a01b039485168152602081019384526005805460018101825560009190915290517f036b6384b5eca791c62761152d0c79bb0604c104a5fb6f4eb0703f3154bb3db0600290920291820180546001600160a01b03191691909616179094555050517f036b6384b5eca791c62761152d0c79bb0604c104a5fb6f4eb0703f3154bb3db190910155565b3360009081526001602052604081206002810154600160201b900460ff16610a1e57600091505061067c565b6002015462010000900460ff16905061067c565b60058181548110610a4257600080fd5b6000918252602090912060029091020180546001909101546001600160a01b03909116915082565b3360009081526001602052604081206002810154600160201b900460ff16610a9657600091505061067c565b60010154905061067c565b600354341015610af8576040805162461bcd60e51b815260206004820181905260248201527f796f75206172652073656e64696e6720696e636f727265637420616d6f756e74604482015290519081900360640190fd5b33600090815260016020526040902060020154600160201b900460ff1615610b67576040805162461bcd60e51b815260206004820152601b60248201527f6f6e6c79206f6e65207469636b65742070657220616464726573730000000000604482015290519081900360640190fd5b33600081815260016020819052604082206002908101805464ff000000001962ff000019909116620100001716600160201b17808255825461ffff1991821661ffff918216179092558254808316850190921691161790556004805491820181559091527f8a35acfbc15ff81a39ae7d344fd709f28e8600b4aa8c65c6b64bfe7fe36bd19b0180546001600160a01b0319169091179055565b60025462010000900461ffff1681565b610c18610f25565b6000546001600160a01b03908116911614610c7a576040805162461bcd60e51b815260206004820181905260248201527f4f776e61626c653a2063616c6c6572206973206e6f7420746865206f776e6572604482015290519081900360640190fd5b6001600160a01b038116610cbf5760405162461bcd60e51b8152600401808060200182810382526026815260200180610f2a6026913960400191505060405180910390fd5b600080546040516001600160a01b03808516939216917f8be0079c531659141344cd1fd0a4f28419497f9722a3daafe3b4186f6b6457e091a3600080546001600160a01b0319166001600160a01b0392909216919091179055565b3360009081526001602052604081206002810154600160201b900460ff16610d4657600091505061067c565b546001600160a01b0316905061067c565b60048181548110610d6757600080fd5b6000918252602090912001546001600160a01b0316905081565b3360009081526001602052604081206002810154600160201b900460ff16610dad57600091505061067c565b6002015461ffff16905061067c565b600280543360008181526001602052604090209092015461ffff908116620100009092041614610e24576040805162461bcd60e51b815260206004820152600e60248201526d3737ba103cb7bab91037b93232b960911b604482015290519081900360640190fd5b6001431015610e6f576040805162461bcd60e51b81526020600482015260126024820152717761697420666f72204368726973746d617360701b604482015290519081900360640190fd5b33600090815260016020526040902060025460058054909162010000900461ffff16908110610e9a57fe5b600091825260209091206002918202015482546001600160a01b0319166001600160a01b039091161782555460058054909161ffff6201000090910416908110610ee057fe5b600091825260209091206001600292830290910181015492810192909255805461ffff6201000080830482169094011690920263ffff00001990921691909117905550565b339056fe4f776e61626c653a206e6577206f776e657220697320746865207a65726f2061646472657373a2646970667358221220a0b3ce7861697887c13cd9c5cd91775a1366dee3cf272f8e38d4dcd27c9cb98c64736f6c63430007060033",
  "linkReferences": {},
  "deployedLinkReferences": {}
}