{
  "_format": "hh-sol-artifact-1",
  "contractName": "WhiteElephant",
  "sourceName": "contracts/WhiteElephant.sol",
  "abi": [
    {
      "anonymous": false,
      "inputs": [
        {
          "indexed": true,
          "internalType": "address",
          "name": "previousOwner",
          "type": "address"
        },
        {
          "indexed": true,
          "internalType": "address",
          "name": "newOwner",
          "type": "address"
        }
      ],
      "name": "OwnershipTransferred",
      "type": "event"
    },
    {
      "inputs": [
        {
          "internalType": "uint256",
          "name": "",
          "type": "uint256"
        }
      ],
      "name": "allNfts",
      "outputs": [
        {
          "internalType": "contract ERC721",
          "name": "nft",
          "type": "address"
        },
        {
          "internalType": "uint256",
          "name": "tokenId",
          "type": "uint256"
        }
      ],
      "stateMutability": "view",
      "type": "function"
    },
    {
      "inputs": [],
      "name": "buyTicket",
      "outputs": [],
      "stateMutability": "payable",
      "type": "function"
    },
    {
      "inputs": [],
      "name": "currNftToUnwrap",
      "outputs": [
        {
          "internalType": "uint16",
          "name": "",
          "type": "uint16"
        }
      ],
      "stateMutability": "view",
      "type": "function"
    },
    {
      "inputs": [
        {
          "internalType": "contract ERC721",
          "name": "_nft",
          "type": "address"
        },
        {
          "internalType": "uint256",
          "name": "_tokenId",
          "type": "uint256"
        }
      ],
      "name": "depositNft",
      "outputs": [],
      "stateMutability": "nonpayable",
      "type": "function"
    },
    {
      "inputs": [],
      "name": "endEvent",
      "outputs": [],
      "stateMutability": "nonpayable",
      "type": "function"
    },
    {
      "inputs": [
        {
          "internalType": "address",
          "name": "_player",
          "type": "address"
        }
      ],
      "name": "getPlayerInfo",
      "outputs": [
        {
          "internalType": "address",
          "name": "nft",
          "type": "address"
        },
        {
          "internalType": "uint256",
          "name": "tokenId",
          "type": "uint256"
        },
        {
          "internalType": "uint16",
          "name": "orderNumber",
          "type": "uint16"
        },
        {
          "internalType": "bool",
          "name": "hasTicket",
          "type": "bool"
        },
        {
          "internalType": "bool",
          "name": "wasStolenFrom",
          "type": "bool"
        },
        {
          "internalType": "bool",
          "name": "exists",
          "type": "bool"
        }
      ],
      "stateMutability": "view",
      "type": "function"
    },
    {
      "inputs": [
        {
          "internalType": "uint256",
          "name": "_number",
          "type": "uint256"
        }
      ],
      "name": "getPlayerNumber",
      "outputs": [
        {
          "internalType": "address",
          "name": "",
          "type": "address"
        }
      ],
      "stateMutability": "view",
      "type": "function"
    },
    {
      "inputs": [],
      "name": "myNftAddress",
      "outputs": [
        {
          "internalType": "address",
          "name": "",
          "type": "address"
        }
      ],
      "stateMutability": "view",
      "type": "function"
    },
    {
      "inputs": [],
      "name": "myOrderNum",
      "outputs": [
        {
          "internalType": "uint16",
          "name": "",
          "type": "uint16"
        }
      ],
      "stateMutability": "view",
      "type": "function"
    },
    {
      "inputs": [],
      "name": "myStolenFrom",
      "outputs": [
        {
          "internalType": "bool",
          "name": "",
          "type": "bool"
        }
      ],
      "stateMutability": "view",
      "type": "function"
    },
    {
      "inputs": [],
      "name": "myTicket",
      "outputs": [
        {
          "internalType": "bool",
          "name": "",
          "type": "bool"
        }
      ],
      "stateMutability": "view",
      "type": "function"
    },
    {
      "inputs": [],
      "name": "myTokenId",
      "outputs": [
        {
          "internalType": "uint256",
          "name": "",
          "type": "uint256"
        }
      ],
      "stateMutability": "view",
      "type": "function"
    },
    {
      "inputs": [],
      "name": "numberOfPlayers",
      "outputs": [
        {
          "internalType": "uint256",
          "name": "",
          "type": "uint256"
        }
      ],
      "stateMutability": "view",
      "type": "function"
    },
    {
      "inputs": [],
      "name": "orderNum",
      "outputs": [
        {
          "internalType": "uint16",
          "name": "",
          "type": "uint16"
        }
      ],
      "stateMutability": "view",
      "type": "function"
    },
    {
      "inputs": [],
      "name": "owner",
      "outputs": [
        {
          "internalType": "address",
          "name": "",
          "type": "address"
        }
      ],
      "stateMutability": "view",
      "type": "function"
    },
    {
      "inputs": [
        {
          "internalType": "uint256",
          "name": "",
          "type": "uint256"
        }
      ],
      "name": "players",
      "outputs": [
        {
          "internalType": "address",
          "name": "",
          "type": "address"
        }
      ],
      "stateMutability": "view",
      "type": "function"
    },
    {
      "inputs": [],
      "name": "renounceOwnership",
      "outputs": [],
      "stateMutability": "nonpayable",
      "type": "function"
    },
    {
      "inputs": [
        {
          "internalType": "uint256",
          "name": "_value",
          "type": "uint256"
        }
      ],
      "name": "setTicketPrice",
      "outputs": [],
      "stateMutability": "nonpayable",
      "type": "function"
    },
    {
      "inputs": [
        {
          "internalType": "address",
          "name": "_theirAddress",
          "type": "address"
        }
      ],
      "name": "stealNft",
      "outputs": [],
      "stateMutability": "nonpayable",
      "type": "function"
    },
    {
      "inputs": [],
      "name": "ticketPrice",
      "outputs": [
        {
          "internalType": "uint256",
          "name": "",
          "type": "uint256"
        }
      ],
      "stateMutability": "view",
      "type": "function"
    },
    {
      "inputs": [
        {
          "internalType": "address",
          "name": "newOwner",
          "type": "address"
        }
      ],
      "name": "transferOwnership",
      "outputs": [],
      "stateMutability": "nonpayable",
      "type": "function"
    },
    {
      "inputs": [],
      "name": "unwrap",
      "outputs": [],
      "stateMutability": "nonpayable",
      "type": "function"
    },
    {
      "inputs": [],
      "name": "unwrapAfterSteal",
      "outputs": [],
      "stateMutability": "nonpayable",
      "type": "function"
    }
  ],
  "bytecode": "0x60806040526002805463ffff00001961ffff1990911660011716905567016345785d8a000060035534801561003357600080fd5b50600061003e61008d565b600080546001600160a01b0319166001600160a01b0383169081178255604051929350917f8be0079c531659141344cd1fd0a4f28419497f9722a3daafe3b4186f6b6457e0908290a350610091565b3390565b611229806100a06000396000f3fe6080604052600436106101405760003560e01c8063a72e2cd6116100b6578063f0178c831161006f578063f0178c83146103fe578063f2fde38b14610413578063f5d9bce414610446578063f71d96cb1461045b578063f8e4f97814610485578063fd02ffb71461049a57610140565b8063a72e2cd614610313578063b6bc11c11461034c578063c3b1cd891461037f578063c529de6514610394578063e8daf956146103e1578063edca914c146103f657610140565b8063715018a611610108578063715018a61461023957806386ec61771461024e5780638da5cb5b146102635780639542d146146102945780639d78c834146102bd5780639fce6fb5146102e957610140565b80631209b1f614610145578063159816501461016c57806333980c201461019857806359328401146101ad5780636f4bda1714610224575b600080fd5b34801561015157600080fd5b5061015a6104af565b60408051918252519081900360200190f35b34801561017857600080fd5b506101966004803603602081101561018f57600080fd5b50356104b5565b005b3480156101a457600080fd5b50610196610524565b3480156101b957600080fd5b506101e0600480360360208110156101d057600080fd5b50356001600160a01b031661068a565b604080516001600160a01b039097168752602087019590955261ffff90931685850152901515606085015215156080840152151560a0830152519081900360c00190f35b34801561023057600080fd5b5061015a6106df565b34801561024557600080fd5b506101966106e6565b34801561025a57600080fd5b5061019661079a565b34801561026f57600080fd5b506102786108d4565b604080516001600160a01b039092168252519081900360200190f35b3480156102a057600080fd5b506102a96108e3565b604080519115158252519081900360200190f35b3480156102c957600080fd5b506102d2610924565b6040805161ffff9092168252519081900360200190f35b3480156102f557600080fd5b506102786004803603602081101561030c57600080fd5b503561092e565b34801561031f57600080fd5b506101966004803603604081101561033657600080fd5b506001600160a01b038135169060200135610958565b34801561035857600080fd5b506101966004803603602081101561036f57600080fd5b50356001600160a01b0316610a59565b34801561038b57600080fd5b506102a9610c8f565b3480156103a057600080fd5b506103be600480360360208110156103b757600080fd5b5035610ccf565b604080516001600160a01b03909316835260208301919091528051918290030190f35b3480156103ed57600080fd5b5061015a610d07565b610196610d3e565b34801561040a57600080fd5b506102d2610e9d565b34801561041f57600080fd5b506101966004803603602081101561043657600080fd5b50356001600160a01b0316610ead565b34801561045257600080fd5b50610278610fb7565b34801561046757600080fd5b506102786004803603602081101561047e57600080fd5b5035610ff4565b34801561049157600080fd5b506102d261101e565b3480156104a657600080fd5b50610196611059565b60035481565b6104bd6111c9565b6000546001600160a01b0390811691161461051f576040805162461bcd60e51b815260206004820181905260248201527f4f776e61626c653a2063616c6c6572206973206e6f7420746865206f776e6572604482015290519081900360640190fd5b600355565b600143101561056f576040805162461bcd60e51b81526020600482015260126024820152717761697420666f72204368726973746d617360701b604482015290519081900360640190fd5b33600090815260016020819052604090912060028101549091600160201b90910460ff1615151461059f57600080fd5b60028101546301000000900460ff1615156001146105bc57600080fd5b80546001600160a01b0316156105d157600080fd5b6001810154156105e057600080fd5b600281015461ffff166105f257600080fd5b600281015462010000900460ff16151560011461060e57600080fd5b60025460058054909162010000900461ffff1690811061062a57fe5b600091825260209091206002918202015482546001600160a01b0319166001600160a01b039091161782555460058054909161ffff620100009091041690811061067057fe5b600091825260209091206001600290920201810154910155565b6001600160a01b039081166000908152600160208190526040909120805491810154600290910154919092169261ffff82169160ff62010000820481169263010000008304821692600160201b900490911690565b6004545b90565b6106ee6111c9565b6000546001600160a01b03908116911614610750576040805162461bcd60e51b815260206004820181905260248201527f4f776e61626c653a2063616c6c6572206973206e6f7420746865206f776e6572604482015290519081900360640190fd5b600080546040516001600160a01b03909116907f8be0079c531659141344cd1fd0a4f28419497f9722a3daafe3b4186f6b6457e0908390a3600080546001600160a01b0319169055565b60014310156107e5576040805162461bcd60e51b81526020600482015260126024820152717761697420666f72204368726973746d617360701b604482015290519081900360640190fd5b60005b6004548110156108d1576000600160006004848154811061080557fe5b60009182526020808320909101546001600160a01b03908116845290830193909352604090910190208054600480549294509216916323b872dd913091908690811061084d57fe5b60009182526020822001546001860154604080516001600160e01b031960e088901b1681526001600160a01b03958616600482015294909216602485015260448401525160648084019382900301818387803b1580156108ac57600080fd5b505af11580156108c0573d6000803e3d6000fd5b5050600190930192506107e8915050565b50565b6000546001600160a01b031690565b3360009081526001602052604081206002810154600160201b900460ff1661090f5760009150506106e3565b600201546301000000900460ff1690506106e3565b60025461ffff1681565b60006004828154811061093d57fe5b6000918252602090912001546001600160a01b031692915050565b604080516323b872dd60e01b81523360048201523060248201526044810183905290516001600160a01b038416916323b872dd91606480830192600092919082900301818387803b1580156109ac57600080fd5b505af11580156109c0573d6000803e3d6000fd5b5050604080518082019091526001600160a01b039485168152602081019384526005805460018101825560009190915290517f036b6384b5eca791c62761152d0c79bb0604c104a5fb6f4eb0703f3154bb3db0600290920291820180546001600160a01b03191691909616179094555050517f036b6384b5eca791c62761152d0c79bb0604c104a5fb6f4eb0703f3154bb3db190910155565b6002805433600081815260016020819052604090912090930154909261ffff918216620100009093048216011614610ac8576040805162461bcd60e51b815260206004820152600d60248201526c3737ba103cb7bab9103a3ab93760991b604482015290519081900360640190fd5b6001431015610b13576040805162461bcd60e51b81526020600482015260126024820152717761697420666f72204368726973746d617360701b604482015290519081900360640190fd5b3360009081526001602081905260408083206001600160a01b0386168452922060028101549091600160201b90910460ff16151514610b5157600080fd5b6002808201549083015461ffff918216911611610bac576040805162461bcd60e51b815260206004820152601460248201527363616e7420737465616c2066726f6d207468656d60601b604482015290519081900360640190fd5b60028101546301000000900460ff1615610c0d576040805162461bcd60e51b815260206004820152601a60248201527f63616e7420737465616c2066726f6d207468656d20616761696e000000000000604482015290519081900360640190fd5b6001600160a01b0393841660009081526001602081905260408220805485546001600160a01b031990811691909816178555810154938101939093556002808301805463ff000000191663010000001790558254909516825590820155825461ffff6201000080830482169093011690910263ffff0000199091161790915550565b3360009081526001602052604081206002810154600160201b900460ff16610cbb5760009150506106e3565b6002015462010000900460ff1690506106e3565b60058181548110610cdf57600080fd5b6000918252602090912060029091020180546001909101546001600160a01b03909116915082565b3360009081526001602052604081206002810154600160201b900460ff16610d335760009150506106e3565b6001015490506106e3565b600354341015610d95576040805162461bcd60e51b815260206004820181905260248201527f796f75206172652073656e64696e6720696e636f727265637420616d6f756e74604482015290519081900360640190fd5b33600090815260016020526040902060020154600160201b900460ff1615610e04576040805162461bcd60e51b815260206004820152601b60248201527f6f6e6c79206f6e65207469636b65742070657220616464726573730000000000604482015290519081900360640190fd5b33600081815260016020819052604082206002908101805464ff000000001962ff000019909116620100001716600160201b17808255825461ffff1991821661ffff918216179092558254808316850190921691161790556004805491820181559091527f8a35acfbc15ff81a39ae7d344fd709f28e8600b4aa8c65c6b64bfe7fe36bd19b0180546001600160a01b0319169091179055565b60025462010000900461ffff1681565b610eb56111c9565b6000546001600160a01b03908116911614610f17576040805162461bcd60e51b815260206004820181905260248201527f4f776e61626c653a2063616c6c6572206973206e6f7420746865206f776e6572604482015290519081900360640190fd5b6001600160a01b038116610f5c5760405162461bcd60e51b81526004018080602001828103825260268152602001806111ce6026913960400191505060405180910390fd5b600080546040516001600160a01b03808516939216917f8be0079c531659141344cd1fd0a4f28419497f9722a3daafe3b4186f6b6457e091a3600080546001600160a01b0319166001600160a01b0392909216919091179055565b3360009081526001602052604081206002810154600160201b900460ff16610fe35760009150506106e3565b546001600160a01b031690506106e3565b6004818154811061100457600080fd5b6000918252602090912001546001600160a01b0316905081565b3360009081526001602052604081206002810154600160201b900460ff1661104a5760009150506106e3565b6002015461ffff1690506106e3565b6002805433600081815260016020819052604090912090930154909261ffff9182166201000090930482160116146110c8576040805162461bcd60e51b815260206004820152600d60248201526c3737ba103cb7bab9103a3ab93760991b604482015290519081900360640190fd5b6001431015611113576040805162461bcd60e51b81526020600482015260126024820152717761697420666f72204368726973746d617360701b604482015290519081900360640190fd5b33600090815260016020526040902060025460058054909162010000900461ffff1690811061113e57fe5b600091825260209091206002918202015482546001600160a01b0319166001600160a01b039091161782555460058054909161ffff620100009091041690811061118457fe5b600091825260209091206001600292830290910181015492810192909255805461ffff6201000080830482169094011690920263ffff00001990921691909117905550565b339056fe4f776e61626c653a206e6577206f776e657220697320746865207a65726f2061646472657373a2646970667358221220af1c80e85b12ce2e532cd55e932ba7ed6080d404603a98a351a677d47bc23c6364736f6c63430007060033",
  "linkReferences": {},
  "deployedLinkReferences": {}
}