{
  "_format": "hh-sol-artifact-1",
  "contractName": "WhiteElephant",
  "sourceName": "contracts/WhiteElephant.sol",
  "abi": [
    {
      "inputs": [],
      "stateMutability": "nonpayable",
      "type": "constructor"
    },
    {
      "anonymous": false,
      "inputs": [
        {
          "indexed": true,
          "internalType": "address",
          "name": "previousOwner",
          "type": "address"
        },
        {
          "indexed": true,
          "internalType": "address",
          "name": "newOwner",
          "type": "address"
        }
      ],
      "name": "OwnershipTransferred",
      "type": "event"
    },
    {
      "inputs": [
        {
          "internalType": "address[]",
          "name": "_delta",
          "type": "address[]"
        }
      ],
      "name": "addWhitelistedDepositors",
      "outputs": [],
      "stateMutability": "nonpayable",
      "type": "function"
    },
    {
      "inputs": [
        {
          "internalType": "uint256",
          "name": "",
          "type": "uint256"
        }
      ],
      "name": "allNfts",
      "outputs": [
        {
          "internalType": "contract ERC721",
          "name": "nft",
          "type": "address"
        },
        {
          "internalType": "uint256",
          "name": "tokenId",
          "type": "uint256"
        }
      ],
      "stateMutability": "view",
      "type": "function"
    },
    {
      "inputs": [
        {
          "internalType": "uint256",
          "name": "_userProvidedSeed",
          "type": "uint256"
        }
      ],
      "name": "buyTicket",
      "outputs": [],
      "stateMutability": "payable",
      "type": "function"
    },
    {
      "inputs": [],
      "name": "christmasTimestamp",
      "outputs": [
        {
          "internalType": "uint256",
          "name": "",
          "type": "uint256"
        }
      ],
      "stateMutability": "view",
      "type": "function"
    },
    {
      "inputs": [],
      "name": "claimNft",
      "outputs": [],
      "stateMutability": "nonpayable",
      "type": "function"
    },
    {
      "inputs": [
        {
          "internalType": "contract ERC721",
          "name": "_nft",
          "type": "address"
        },
        {
          "internalType": "uint256",
          "name": "_tokenId",
          "type": "uint256"
        }
      ],
      "name": "depositNft",
      "outputs": [],
      "stateMutability": "nonpayable",
      "type": "function"
    },
    {
      "inputs": [],
      "name": "endEvent",
      "outputs": [],
      "stateMutability": "nonpayable",
      "type": "function"
    },
    {
      "inputs": [
        {
          "internalType": "bytes32",
          "name": "",
          "type": "bytes32"
        }
      ],
      "name": "entropy",
      "outputs": [
        {
          "internalType": "uint256",
          "name": "",
          "type": "uint256"
        }
      ],
      "stateMutability": "view",
      "type": "function"
    },
    {
      "inputs": [],
      "name": "eventEnded",
      "outputs": [
        {
          "internalType": "bool",
          "name": "",
          "type": "bool"
        }
      ],
      "stateMutability": "view",
      "type": "function"
    },
    {
      "inputs": [
        {
          "internalType": "address",
          "name": "_player",
          "type": "address"
        }
      ],
      "name": "getPlayerInfo",
      "outputs": [
        {
          "internalType": "address",
          "name": "nft",
          "type": "address"
        },
        {
          "internalType": "uint256",
          "name": "tokenId",
          "type": "uint256"
        },
        {
          "internalType": "bytes32",
          "name": "randomnessRequestId",
          "type": "bytes32"
        },
        {
          "internalType": "bytes32",
          "name": "stealerRequestId",
          "type": "bytes32"
        },
        {
          "internalType": "bool",
          "name": "hasTicket",
          "type": "bool"
        },
        {
          "internalType": "bool",
          "name": "wasStolenFrom",
          "type": "bool"
        },
        {
          "internalType": "bool",
          "name": "exists",
          "type": "bool"
        }
      ],
      "stateMutability": "view",
      "type": "function"
    },
    {
      "inputs": [
        {
          "internalType": "uint256",
          "name": "_number",
          "type": "uint256"
        }
      ],
      "name": "getPlayerNumber",
      "outputs": [
        {
          "internalType": "address",
          "name": "",
          "type": "address"
        }
      ],
      "stateMutability": "view",
      "type": "function"
    },
    {
      "inputs": [
        {
          "internalType": "bytes32",
          "name": "",
          "type": "bytes32"
        }
      ],
      "name": "nonces",
      "outputs": [
        {
          "internalType": "uint256",
          "name": "",
          "type": "uint256"
        }
      ],
      "stateMutability": "view",
      "type": "function"
    },
    {
      "inputs": [],
      "name": "numberOfPlayers",
      "outputs": [
        {
          "internalType": "uint256",
          "name": "",
          "type": "uint256"
        }
      ],
      "stateMutability": "view",
      "type": "function"
    },
    {
      "inputs": [
        {
          "internalType": "address",
          "name": "",
          "type": "address"
        },
        {
          "internalType": "address",
          "name": "",
          "type": "address"
        },
        {
          "internalType": "uint256",
          "name": "",
          "type": "uint256"
        },
        {
          "internalType": "bytes",
          "name": "",
          "type": "bytes"
        }
      ],
      "name": "onERC721Received",
      "outputs": [
        {
          "internalType": "bytes4",
          "name": "",
          "type": "bytes4"
        }
      ],
      "stateMutability": "nonpayable",
      "type": "function"
    },
    {
      "inputs": [],
      "name": "owner",
      "outputs": [
        {
          "internalType": "address",
          "name": "",
          "type": "address"
        }
      ],
      "stateMutability": "view",
      "type": "function"
    },
    {
      "inputs": [
        {
          "internalType": "uint256",
          "name": "",
          "type": "uint256"
        }
      ],
      "name": "players",
      "outputs": [
        {
          "internalType": "address",
          "name": "",
          "type": "address"
        }
      ],
      "stateMutability": "view",
      "type": "function"
    },
    {
      "inputs": [],
      "name": "playersTurn",
      "outputs": [
        {
          "internalType": "address",
          "name": "",
          "type": "address"
        }
      ],
      "stateMutability": "view",
      "type": "function"
    },
    {
      "inputs": [
        {
          "internalType": "bytes32",
          "name": "requestId",
          "type": "bytes32"
        },
        {
          "internalType": "uint256",
          "name": "randomness",
          "type": "uint256"
        }
      ],
      "name": "rawFulfillRandomness",
      "outputs": [],
      "stateMutability": "nonpayable",
      "type": "function"
    },
    {
      "inputs": [
        {
          "internalType": "address[]",
          "name": "_delta",
          "type": "address[]"
        }
      ],
      "name": "removeWhitelistedDepositors",
      "outputs": [],
      "stateMutability": "nonpayable",
      "type": "function"
    },
    {
      "inputs": [],
      "name": "renounceOwnership",
      "outputs": [],
      "stateMutability": "nonpayable",
      "type": "function"
    },
    {
      "inputs": [
        {
          "internalType": "uint256",
          "name": "_value",
          "type": "uint256"
        }
      ],
      "name": "setTicketPrice",
      "outputs": [],
      "stateMutability": "nonpayable",
      "type": "function"
    },
    {
      "inputs": [
        {
          "internalType": "address",
          "name": "_theirAddress",
          "type": "address"
        },
        {
          "internalType": "address[]",
          "name": "_order",
          "type": "address[]"
        },
        {
          "internalType": "address[]",
          "name": "redro_",
          "type": "address[]"
        }
      ],
      "name": "stealNft",
      "outputs": [],
      "stateMutability": "nonpayable",
      "type": "function"
    },
    {
      "inputs": [],
      "name": "ticketPrice",
      "outputs": [
        {
          "internalType": "uint256",
          "name": "",
          "type": "uint256"
        }
      ],
      "stateMutability": "view",
      "type": "function"
    },
    {
      "inputs": [
        {
          "internalType": "address",
          "name": "newOwner",
          "type": "address"
        }
      ],
      "name": "transferOwnership",
      "outputs": [],
      "stateMutability": "nonpayable",
      "type": "function"
    },
    {
      "inputs": [
        {
          "internalType": "address[]",
          "name": "order",
          "type": "address[]"
        },
        {
          "internalType": "address[]",
          "name": "redro",
          "type": "address[]"
        }
      ],
      "name": "unwrap",
      "outputs": [],
      "stateMutability": "nonpayable",
      "type": "function"
    },
    {
      "inputs": [
        {
          "internalType": "address[]",
          "name": "_order",
          "type": "address[]"
        }
      ],
      "name": "unwrapAfterSteal",
      "outputs": [],
      "stateMutability": "nonpayable",
      "type": "function"
    },
    {
      "inputs": [
        {
          "internalType": "address",
          "name": "erc20",
          "type": "address"
        }
      ],
      "name": "withdrawERC20",
      "outputs": [],
      "stateMutability": "nonpayable",
      "type": "function"
    },
    {
      "inputs": [
        {
          "internalType": "address",
          "name": "nft",
          "type": "address"
        },
        {
          "internalType": "uint256",
          "name": "tokenId",
          "type": "uint256"
        }
      ],
      "name": "withdrawERC721",
      "outputs": [],
      "stateMutability": "nonpayable",
      "type": "function"
    },
    {
      "inputs": [],
      "name": "withdrawEth",
      "outputs": [],
      "stateMutability": "nonpayable",
      "type": "function"
    }
  ],
  "bytecode": "0x60c060405266038d7ea4c68000600555600a805460ff191660019081179091556078600b55600c819055600d5534801561003857600080fd5b5073dd3782915140c8f3b190b5d67eac6dc5760c46e973a36085f69e2889c224210f603d836748e7dc0088600061006d610155565b600080546001600160a01b0319166001600160a01b0383169081178255604051929350917f8be0079c531659141344cd1fd0a4f28419497f9722a3daafe3b4186f6b6457e0908290a3506001600160601b0319606092831b811660a052911b16608052600160028190557f6c3699283bda56ad74f6b855546325b68d482e983852a7a82979cc4807b641f460085567016345785d8a000060095573465dca9995d6c2a81a9be80fbced5a770dee3dae600052600f6020527f63b10e24d903827652f91eece0ec82eef8c06682071a9166ad855c95967e9cad805460ff19169091179055610159565b3390565b60805160601c60a05160601c612a9661018c60003980611789528061278352508061266952806127545250612a966000f3fe6080604052600436106101c25760003560e01c80638b5c218f116100f7578063a72e2cd611610095578063f3e414f811610064578063f3e414f8146108e2578063f4f3b2001461091b578063f57e63e21461094e578063f71d96cb14610977576101c2565b8063a72e2cd614610814578063c03a83ac1461084d578063c529de6514610862578063f2fde38b146108af576101c2565b8063993e8961116100d1578063993e8961146107305780639e317f12146107ab5780639fce6fb5146107d5578063a0ef91df146107ff576101c2565b80638b5c218f146106205780638da5cb5b146106eb57806394985ddd14610700576101c2565b8063593284011161016457806367dd74ca1161013e57806367dd74ca146105c45780636f4bda17146105e1578063715018a6146105f657806386ec61771461060b576101c2565b806359328401146104595780635ae2afa4146104d45780635cfa8c50146104e9576101c2565b8063150b7a02116101a0578063150b7a021461029c578063159816501461038a57806319ea2567146103b4578063523ed4401461042f576101c2565b806306880689146101c757806308cade1b146101f85780631209b1f614610275575b600080fd5b3480156101d357600080fd5b506101dc6109a1565b604080516001600160a01b039092168252519081900360200190f35b34801561020457600080fd5b506102736004803603602081101561021b57600080fd5b810190602081018135600160201b81111561023557600080fd5b82018360208201111561024757600080fd5b803590602001918460208302840111600160201b8311171561026857600080fd5b5090925090506109b5565b005b34801561028157600080fd5b5061028a610b43565b60408051918252519081900360200190f35b3480156102a857600080fd5b5061036d600480360360808110156102bf57600080fd5b6001600160a01b03823581169260208101359091169160408201359190810190608081016060820135600160201b8111156102f957600080fd5b82018360208201111561030b57600080fd5b803590602001918460018302840111600160201b8311171561032c57600080fd5b91908080601f016020809104026020016040519081016040528093929190818152602001838380828437600092019190915250929550610b49945050505050565b604080516001600160e01b03199092168252519081900360200190f35b34801561039657600080fd5b50610273600480360360208110156103ad57600080fd5b5035610b82565b3480156103c057600080fd5b50610273600480360360208110156103d757600080fd5b810190602081018135600160201b8111156103f157600080fd5b82018360208201111561040357600080fd5b803590602001918460208302840111600160201b8311171561042457600080fd5b509092509050610bdf565b34801561043b57600080fd5b5061028a6004803603602081101561045257600080fd5b5035610c92565b34801561046557600080fd5b5061048c6004803603602081101561047c57600080fd5b50356001600160a01b0316610ca4565b604080516001600160a01b039098168852602088019690965286860194909452606086019290925215156080850152151560a0840152151560c0830152519081900360e00190f35b3480156104e057600080fd5b50610273610cfe565b3480156104f557600080fd5b506102736004803603606081101561050c57600080fd5b6001600160a01b038235169190810190604081016020820135600160201b81111561053657600080fd5b82018360208201111561054857600080fd5b803590602001918460208302840111600160201b8311171561056957600080fd5b919390929091602081019035600160201b81111561058657600080fd5b82018360208201111561059857600080fd5b803590602001918460208302840111600160201b831117156105b957600080fd5b509092509050610e83565b610273600480360360208110156105da57600080fd5b5035611205565b3480156105ed57600080fd5b5061028a6113bd565b34801561060257600080fd5b506102736113c3565b34801561061757600080fd5b50610273611465565b34801561062c57600080fd5b506102736004803603604081101561064357600080fd5b810190602081018135600160201b81111561065d57600080fd5b82018360208201111561066f57600080fd5b803590602001918460208302840111600160201b8311171561069057600080fd5b919390929091602081019035600160201b8111156106ad57600080fd5b8201836020820111156106bf57600080fd5b803590602001918460208302840111600160201b831117156106e057600080fd5b5090925090506114cc565b3480156106f757600080fd5b506101dc61176f565b34801561070c57600080fd5b506102736004803603604081101561072357600080fd5b508035906020013561177e565b34801561073c57600080fd5b506102736004803603602081101561075357600080fd5b810190602081018135600160201b81111561076d57600080fd5b82018360208201111561077f57600080fd5b803590602001918460208302840111600160201b831117156107a057600080fd5b509092509050611809565b3480156107b757600080fd5b5061028a600480360360208110156107ce57600080fd5b50356118b7565b3480156107e157600080fd5b506101dc600480360360208110156107f857600080fd5b50356118c9565b34801561080b57600080fd5b506102736118f3565b34801561082057600080fd5b506102736004803603604081101561083757600080fd5b506001600160a01b03813516906020013561197a565b34801561085957600080fd5b5061028a611ad8565b34801561086e57600080fd5b5061088c6004803603602081101561088557600080fd5b5035611ade565b604080516001600160a01b03909316835260208301919091528051918290030190f35b3480156108bb57600080fd5b50610273600480360360208110156108d257600080fd5b50356001600160a01b0316611b13565b3480156108ee57600080fd5b506102736004803603604081101561090557600080fd5b506001600160a01b038135169060200135611c0b565b34801561092757600080fd5b506102736004803603602081101561093e57600080fd5b50356001600160a01b0316611cd3565b34801561095a57600080fd5b50610963611eb4565b604080519115158252519081900360200190f35b34801561098357600080fd5b506101dc6004803603602081101561099a57600080fd5b5035611ebd565b600a5461010090046001600160a01b031681565b6002805414156109fa576040805162461bcd60e51b815260206004820152601f60248201526000805160206129da833981519152604482015290519081900360640190fd5b60028055600c54421015610a4c576040805162461bcd60e51b81526020600482015260146024820152731dd85a5d08199bdc88195d995b9d081cdd185c9d60621b604482015290519081900360640190fd5b336000908152600360205260409020600481015462010000900460ff161515600114610a7757600080fd5b60048101546301000000900460ff161515600114610a9457600080fd5b6003810154610aa257600080fd5b80546001600160a01b031615610ab757600080fd5b6000610aca848484600301546001611ee4565b50905060078181548110610ada57fe5b600091825260209091206002909102015482546001600160a01b0319166001600160a01b039091161782556007805482908110610b1357fe5b90600052602060002090600202016001015482600101819055508160030160009055505060016002819055505050565b60055481565b600060405162461bcd60e51b8152600401808060200182810382526021815260200180612a206021913960400191505060405180910390fd5b610b8a6122a2565b6000546001600160a01b03908116911614610bda576040805162461bcd60e51b81526020600482018190526024820152600080516020612a41833981519152604482015290519081900360640190fd5b600555565b610be76122a2565b6000546001600160a01b03908116911614610c37576040805162461bcd60e51b81526020600482018190526024820152600080516020612a41833981519152604482015290519081900360640190fd5b60005b81811015610c8d576000600f6000858585818110610c5457fe5b602090810292909201356001600160a01b0316835250810191909152604001600020805460ff1916911515919091179055600101610c3a565b505050565b60046020526000908152604090205481565b6001600160a01b03908116600090815260036020819052604090912080546001820154600283015493830154600490930154919094169460ff62010000830481169263010000008104821692600160201b90910490911690565b600e5460ff16610d55576040805162461bcd60e51b815260206004820152601d60248201527f746865206576656e74206973206e6f742066696e697368656420796574000000604482015290519081900360640190fd5b33600090815260036020526040902080546001600160a01b0316610db3576040805162461bcd60e51b815260206004820152601060248201526f6e6f7468696e6720746f20636c61696d60801b604482015290519081900360640190fd5b600481015462010000900460ff16610e0b576040805162461bcd60e51b81526020600482015260166024820152751e5bdd48191bdb9d081a185d994818481d1a58dad95d60521b604482015290519081900360640190fd5b80546001820154604080516323b872dd60e01b81523060048201523360248201526044810192909252516001600160a01b03909216916323b872dd9160648082019260009290919082900301818387803b158015610e6857600080fd5b505af1158015610e7c573d6000803e3d6000fd5b5050505050565b600280541415610ec8576040805162461bcd60e51b815260206004820152601f60248201526000805160206129da833981519152604482015290519081900360640190fd5b60028055600c54421015610f1a576040805162461bcd60e51b81526020600482015260146024820152731dd85a5d08199bdc88195d995b9d081cdd185c9d60621b604482015290519081900360640190fd5b336000908152600360205260408082206001600160a01b038816835291206004810154600160201b900460ff161515600114610f5557600080fd5b60048101546301000000900460ff1615610fb6576040805162461bcd60e51b815260206004820152601a60248201527f63616e7420737465616c2066726f6d207468656d20616761696e000000000000604482015290519081900360640190fd5b600280820154600090815260046020526040808220549285015482529020541161101e576040805162461bcd60e51b815260206004820152601460248201527363616e7420737465616c2066726f6d207468656d60601b604482015290519081900360640190fd5b600061102a87876122a6565b600b54600d54919250014260018282111561111a575b8282111561105857600b549290920191600101611040565b8183111561106557600019015b60008060005b6006548110156110e3578361109d578a8a8281811061108657fe5b905060200201356001600160a01b031691506110e3565b82156110aa576001840393505b338b8b838181106110b757fe5b905060200201356001600160a01b03166001600160a01b031614156110db57600192505b60010161106b565b50600a546001600160a01b0382811661010090920416141561111757600a8054610100600160a81b03191633610100021790555b50505b600a5461010090046001600160a01b0316331461116e576040805162461bcd60e51b815260206004820152600d60248201526c3737ba103cb7bab9103a3ab93760991b604482015290519081900360640190fd5b5050506001600160a01b0397881660009081526003602081905260408220805486546001600160a01b0319908116918d169190911787556001918201548783015560048601805463ff000000191663010000001790556002968701805493870193909355855416855593840182905555600a80549190981661010002610100600160a81b0319909116179096559490945550505050565b60028054141561124a576040805162461bcd60e51b815260206004820152601f60248201526000805160206129da833981519152604482015290519081900360640190fd5b600280556005543410156112a5576040805162461bcd60e51b815260206004820181905260248201527f796f75206172652073656e64696e6720696e636f727265637420616d6f756e74604482015290519081900360640190fd5b33600090815260036020526040902060040154600160201b900460ff1615611314576040805162461bcd60e51b815260206004820152601b60248201527f6f6e6c79206f6e65207469636b65742070657220616464726573730000000000604482015290519081900360640190fd5b61131d816125e0565b50336000818152600360205260408120600401805464ff000000001962ff000019909116620100001716600160201b1790556006805460018101825591527ff652222313e28459528d920b65115c16c04f3efc82aaedc97be59f3f377c0d3f0180546001600160a01b0319169091179055600a5460ff16156113b557600a8054610100600160a81b03191633610100021760ff191690555b506001600255565b60065490565b6113cb6122a2565b6000546001600160a01b0390811691161461141b576040805162461bcd60e51b81526020600482018190526024820152600080516020612a41833981519152604482015290519081900360640190fd5b600080546040516001600160a01b03909116907f8be0079c531659141344cd1fd0a4f28419497f9722a3daafe3b4186f6b6457e0908390a3600080546001600160a01b0319169055565b61146d6122a2565b6000546001600160a01b039081169116146114bd576040805162461bcd60e51b81526020600482018190526024820152600080516020612a41833981519152604482015290519081900360640190fd5b600e805460ff19166001179055565b600280541415611511576040805162461bcd60e51b815260206004820152601f60248201526000805160206129da833981519152604482015290519081900360640190fd5b60028055600c54421015611563576040805162461bcd60e51b81526020600482015260146024820152731dd85a5d08199bdc88195d995b9d081cdd185c9d60621b604482015290519081900360640190fd5b3360009081526003602052604081206002810154909190819061158a908890889084611ee4565b600b54600d54929450909250014260018282111561167d575b828211156115bb57600b5492909201916001016115a3565b818311156115c857600019015b60008060005b6006548110156116465783611600578a8a828181106115e957fe5b905060200201356001600160a01b03169150611646565b821561160d576001840393505b338b8b8381811061161a57fe5b905060200201356001600160a01b03166001600160a01b0316141561163e57600192505b6001016115ce565b50600a546001600160a01b0382811661010090920416141561167a57600a8054610100600160a81b03191633610100021790555b50505b600a5461010090046001600160a01b031633146116d1576040805162461bcd60e51b815260206004820152600d60248201526c3737ba103cb7bab9103a3ab93760991b604482015290519081900360640190fd5b600785815481106116de57fe5b600091825260209091206002909102015486546001600160a01b0319166001600160a01b03909116178655600780548690811061171757fe5b600091825260208220600160029283029091018101548982015597810191909155600a80546001600160a01b0390961661010002610100600160a81b03199096169590951790945550600d5550919091555050505050565b6000546001600160a01b031690565b336001600160a01b037f000000000000000000000000000000000000000000000000000000000000000016146117fb576040805162461bcd60e51b815260206004820152601f60248201527f4f6e6c7920565246436f6f7264696e61746f722063616e2066756c66696c6c00604482015290519081900360640190fd5b611805828261273e565b5050565b6118116122a2565b6000546001600160a01b03908116911614611861576040805162461bcd60e51b81526020600482018190526024820152600080516020612a41833981519152604482015290519081900360640190fd5b60005b81811015610c8d576001600f600085858581811061187e57fe5b602090810292909201356001600160a01b0316835250810191909152604001600020805460ff1916911515919091179055600101611864565b60016020526000908152604090205481565b6000600682815481106118d857fe5b6000918252602090912001546001600160a01b031692915050565b6118fb6122a2565b6000546001600160a01b0390811691161461194b576040805162461bcd60e51b81526020600482018190526024820152600080516020612a41833981519152604482015290519081900360640190fd5b60405133904780156108fc02916000818181858888f19350505050158015611977573d6000803e3d6000fd5b50565b336000908152600f602052604090205460ff166119d7576040805162461bcd60e51b81526020600482015260166024820152751b9bdd08185b1b1bddd959081d1bc819195c1bdcda5d60521b604482015290519081900360640190fd5b604080516323b872dd60e01b81523360048201523060248201526044810183905290516001600160a01b038416916323b872dd91606480830192600092919082900301818387803b158015611a2b57600080fd5b505af1158015611a3f573d6000803e3d6000fd5b5050604080518082019091526001600160a01b039485168152602081019384526007805460018101825560009190915290517fa66cc928b5edb82af9bd49922954155ab7b0942694bea4ce44661d9a8736c688600290920291820180546001600160a01b03191691909616179094555050517fa66cc928b5edb82af9bd49922954155ab7b0942694bea4ce44661d9a8736c68990910155565b600c5481565b60078181548110611aeb57fe5b6000918252602090912060029091020180546001909101546001600160a01b03909116915082565b611b1b6122a2565b6000546001600160a01b03908116911614611b6b576040805162461bcd60e51b81526020600482018190526024820152600080516020612a41833981519152604482015290519081900360640190fd5b6001600160a01b038116611bb05760405162461bcd60e51b81526004018080602001828103825260268152602001806129fa6026913960400191505060405180910390fd5b600080546040516001600160a01b03808516939216917f8be0079c531659141344cd1fd0a4f28419497f9722a3daafe3b4186f6b6457e091a3600080546001600160a01b0319166001600160a01b0392909216919091179055565b611c136122a2565b6000546001600160a01b03908116911614611c63576040805162461bcd60e51b81526020600482018190526024820152600080516020612a41833981519152604482015290519081900360640190fd5b604080516323b872dd60e01b81523060048201523360248201526044810183905290516001600160a01b038416916323b872dd91606480830192600092919082900301818387803b158015611cb757600080fd5b505af1158015611ccb573d6000803e3d6000fd5b505050505050565b611cdb6122a2565b6000546001600160a01b03908116911614611d2b576040805162461bcd60e51b81526020600482018190526024820152600080516020612a41833981519152604482015290519081900360640190fd5b6040805163095ea7b360e01b81523360048201526f0fffffffffffffffffffffffffffffff6024820152905182916001600160a01b0383169163095ea7b3916044808201926020929091908290030181600087803b158015611d8c57600080fd5b505af1158015611da0573d6000803e3d6000fd5b505050506040513d6020811015611db657600080fd5b5050604080516370a0823160e01b815230600482015290516001600160a01b0383169163a9059cbb91339184916370a0823191602480820192602092909190829003018186803b158015611e0957600080fd5b505afa158015611e1d573d6000803e3d6000fd5b505050506040513d6020811015611e3357600080fd5b5051604080516001600160e01b031960e086901b1681526001600160a01b03909316600484015260248301919091525160448083019260209291908290030181600087803b158015611e8457600080fd5b505af1158015611e98573d6000803e3d6000fd5b505050506040513d6020811015611eae57600080fd5b50505050565b600e5460ff1681565b60068181548110611eca57fe5b6000918252602090912001546001600160a01b0316905081565b60065460009081908514611f3f576040805162461bcd60e51b815260206004820152601b60248201527f6875682067657420796f7572206c656e6774687320736f727465640000000000604482015290519081900360640190fd5b6001851415611f5357506000905080612299565b6003600087876000818110611f6457fe5b905060200201356001600160a01b03166001600160a01b03166001600160a01b0316815260200190815260200160002060040160029054906101000a900460ff1615156001151514611ff0576040805162461bcd60e51b815260206004820152601060248201526f646f6e74206265206368656174696e6760801b604482015290519081900360640190fd5b600060046000600360008a8a600081811061200757fe5b905060200201356001600160a01b03166001600160a01b03166001600160a01b031681526020019081526020016000206002015481526020019081526020016000205490506000600190505b60065460001901811015612296576003600089898481811061207157fe5b905060200201356001600160a01b03166001600160a01b03166001600160a01b0316815260200190815260200160002060040160029054906101000a900460ff16151560011515146120fd576040805162461bcd60e51b815260206004820152601060248201526f646f6e74206265206368656174696e6760801b604482015290519081900360640190fd5b600060046000600360008c8c8781811061211357fe5b905060200201356001600160a01b03166001600160a01b03166001600160a01b03168152602001908152602001600020600201548152602001908152602001600020549050808311156121ad576040805162461bcd60e51b815260206004820152601d60248201527f696e636f72726563746c79206f726465726564207475726e7320617272000000604482015290519081900360640190fd5b6000861561220057600360008b8b868181106121c557fe5b905060200201356001600160a01b03166001600160a01b03166001600160a01b03168152602001908152602001600020600201549050612247565b600360008b8b8681811061221057fe5b905060200201356001600160a01b03166001600160a01b03166001600160a01b031681526020019081526020016000206003015490505b8781141561228c57600654929550859260018401141561226a576000945061228c565b89898460010181811061227957fe5b905060200201356001600160a01b031694505b5050600101612053565b50505b94509492505050565b3390565b60065460009082146122ff576040805162461bcd60e51b815260206004820152601b60248201527f6875682067657420796f7572206c656e6774687320736f727465640000000000604482015290519081900360640190fd5b6001821415612310575060006125da565b600360008484600081811061232157fe5b905060200201356001600160a01b03166001600160a01b03166001600160a01b0316815260200190815260200160002060040160029054906101000a900460ff16151560011515146123ad576040805162461bcd60e51b815260206004820152601060248201526f646f6e74206265206368656174696e6760801b604482015290519081900360640190fd5b60006004600060036000878760008181106123c457fe5b905060200201356001600160a01b03166001600160a01b03166001600160a01b031681526020019081526020016000206002015481526020019081526020016000205490506000600190505b600654600019018110156125d7576003600086868481811061242e57fe5b905060200201356001600160a01b03166001600160a01b03166001600160a01b0316815260200190815260200160002060040160029054906101000a900460ff16151560011515146124ba576040805162461bcd60e51b815260206004820152601060248201526f646f6e74206265206368656174696e6760801b604482015290519081900360640190fd5b600060046000600360008989878181106124d057fe5b905060200201356001600160a01b03166001600160a01b03166001600160a01b031681526020019081526020016000206002015481526020019081526020016000205490508083111561256a576040805162461bcd60e51b815260206004820152601d60248201527f696e636f72726563746c79206f726465726564207475726e7320617272000000604482015290519081900360640190fd5b3386868481811061257757fe5b905060200201356001600160a01b03166001600160a01b031614156125ce576006546001830114156125ac57600093506125ce565b8585836001018181106125bb57fe5b905060200201356001600160a01b031693505b50600101612410565b50505b92915050565b336000908152600360205260408120600281015415612646576040805162461bcd60e51b815260206004820152601c60248201527f63616e742067656e6572617465206d6f7265207468616e206f6e636500000000604482015290519081900360640190fd5b600954604080516370a0823160e01b815230600482015290516001600160a01b037f000000000000000000000000000000000000000000000000000000000000000016916370a08231916024808301926020929190829003018186803b1580156126af57600080fd5b505afa1580156126c3573d6000803e3d6000fd5b505050506040513d60208110156126d957600080fd5b50511015612720576040805162461bcd60e51b815260206004820152600f60248201526e6e6f7420656e6f756768204c494e4b60881b604482015290519081900360640190fd5b61272f60085460095485612750565b60029091018190559050919050565b60009182526004602052604090912055565b60007f00000000000000000000000000000000000000000000000000000000000000006001600160a01b0316634000aea07f000000000000000000000000000000000000000000000000000000000000000085878660405160200180838152602001828152602001925050506040516020818303038152906040526040518463ffffffff1660e01b815260040180846001600160a01b0316815260200183815260200180602001828103825283818151815260200191508051906020019080838360005b8381101561282c578181015183820152602001612814565b50505050905090810190601f1680156128595780820380516001836020036101000a031916815260200191505b50945050505050602060405180830381600087803b15801561287a57600080fd5b505af115801561288e573d6000803e3d6000fd5b505050506040513d60208110156128a457600080fd5b50506000848152600160205260408120546128c490869085903090612905565b6000868152600160208190526040909120549192506128e3919061294c565b6000868152600160205260409020556128fc85826129ad565b95945050505050565b60408051602080820196909652808201949094526001600160a01b039290921660608401526080808401919091528151808403909101815260a09092019052805191012090565b6000828201838110156129a6576040805162461bcd60e51b815260206004820152601b60248201527f536166654d6174683a206164646974696f6e206f766572666c6f770000000000604482015290519081900360640190fd5b9392505050565b60408051602080820194909452808201929092528051808303820181526060909201905280519101209056fe5265656e7472616e637947756172643a207265656e7472616e742063616c6c004f776e61626c653a206e6577206f776e657220697320746865207a65726f20616464726573736465706f73697420746865204e46547320776974682072654e46542066726f6e744f776e61626c653a2063616c6c6572206973206e6f7420746865206f776e6572a2646970667358221220c9cf775a13a42dc357363d56a53038827db8c9850fe62e75c74c66171d5d970a64736f6c634300060c0033",
  "linkReferences": {},
  "deployedLinkReferences": {}
}