{
  "_format": "hh-sol-artifact-1",
  "contractName": "WhiteElephant",
  "sourceName": "contracts/WhiteElephant.sol",
  "abi": [
    {
      "inputs": [],
      "stateMutability": "nonpayable",
      "type": "constructor"
    },
    {
      "anonymous": false,
      "inputs": [
        {
          "indexed": true,
          "internalType": "address",
          "name": "previousOwner",
          "type": "address"
        },
        {
          "indexed": true,
          "internalType": "address",
          "name": "newOwner",
          "type": "address"
        }
      ],
      "name": "OwnershipTransferred",
      "type": "event"
    },
    {
      "inputs": [
        {
          "internalType": "uint256",
          "name": "",
          "type": "uint256"
        }
      ],
      "name": "allNfts",
      "outputs": [
        {
          "internalType": "contract ERC721",
          "name": "nft",
          "type": "address"
        },
        {
          "internalType": "uint256",
          "name": "tokenId",
          "type": "uint256"
        }
      ],
      "stateMutability": "view",
      "type": "function"
    },
    {
      "inputs": [
        {
          "internalType": "uint256",
          "name": "_userProvidedSeed",
          "type": "uint256"
        }
      ],
      "name": "buyTicket",
      "outputs": [],
      "stateMutability": "payable",
      "type": "function"
    },
    {
      "inputs": [],
      "name": "currNftToUnwrap",
      "outputs": [
        {
          "internalType": "uint16",
          "name": "",
          "type": "uint16"
        }
      ],
      "stateMutability": "view",
      "type": "function"
    },
    {
      "inputs": [
        {
          "internalType": "contract ERC721",
          "name": "_nft",
          "type": "address"
        },
        {
          "internalType": "uint256",
          "name": "_tokenId",
          "type": "uint256"
        }
      ],
      "name": "depositNft",
      "outputs": [],
      "stateMutability": "nonpayable",
      "type": "function"
    },
    {
      "inputs": [
        {
          "internalType": "address[]",
          "name": "_turns",
          "type": "address[]"
        }
      ],
      "name": "endEvent",
      "outputs": [],
      "stateMutability": "nonpayable",
      "type": "function"
    },
    {
      "inputs": [
        {
          "internalType": "bytes32",
          "name": "",
          "type": "bytes32"
        }
      ],
      "name": "entropy",
      "outputs": [
        {
          "internalType": "uint256",
          "name": "",
          "type": "uint256"
        }
      ],
      "stateMutability": "view",
      "type": "function"
    },
    {
      "inputs": [
        {
          "internalType": "address",
          "name": "_player",
          "type": "address"
        }
      ],
      "name": "getPlayerInfo",
      "outputs": [
        {
          "internalType": "address",
          "name": "nft",
          "type": "address"
        },
        {
          "internalType": "uint256",
          "name": "tokenId",
          "type": "uint256"
        },
        {
          "internalType": "bytes32",
          "name": "randomnessRequestId",
          "type": "bytes32"
        },
        {
          "internalType": "bytes32",
          "name": "stealerRequestId",
          "type": "bytes32"
        },
        {
          "internalType": "bool",
          "name": "hasTicket",
          "type": "bool"
        },
        {
          "internalType": "bool",
          "name": "wasStolenFrom",
          "type": "bool"
        },
        {
          "internalType": "bool",
          "name": "exists",
          "type": "bool"
        }
      ],
      "stateMutability": "view",
      "type": "function"
    },
    {
      "inputs": [
        {
          "internalType": "uint256",
          "name": "_number",
          "type": "uint256"
        }
      ],
      "name": "getPlayerNumber",
      "outputs": [
        {
          "internalType": "address",
          "name": "",
          "type": "address"
        }
      ],
      "stateMutability": "view",
      "type": "function"
    },
    {
      "inputs": [],
      "name": "myNftAddress",
      "outputs": [
        {
          "internalType": "address",
          "name": "",
          "type": "address"
        }
      ],
      "stateMutability": "view",
      "type": "function"
    },
    {
      "inputs": [],
      "name": "myOrderNum",
      "outputs": [
        {
          "internalType": "uint16",
          "name": "",
          "type": "uint16"
        }
      ],
      "stateMutability": "view",
      "type": "function"
    },
    {
      "inputs": [],
      "name": "myStolenFrom",
      "outputs": [
        {
          "internalType": "bool",
          "name": "",
          "type": "bool"
        }
      ],
      "stateMutability": "view",
      "type": "function"
    },
    {
      "inputs": [],
      "name": "myTicket",
      "outputs": [
        {
          "internalType": "bool",
          "name": "",
          "type": "bool"
        }
      ],
      "stateMutability": "view",
      "type": "function"
    },
    {
      "inputs": [],
      "name": "myTokenId",
      "outputs": [
        {
          "internalType": "uint256",
          "name": "",
          "type": "uint256"
        }
      ],
      "stateMutability": "view",
      "type": "function"
    },
    {
      "inputs": [
        {
          "internalType": "bytes32",
          "name": "",
          "type": "bytes32"
        }
      ],
      "name": "nonces",
      "outputs": [
        {
          "internalType": "uint256",
          "name": "",
          "type": "uint256"
        }
      ],
      "stateMutability": "view",
      "type": "function"
    },
    {
      "inputs": [],
      "name": "numberOfPlayers",
      "outputs": [
        {
          "internalType": "uint256",
          "name": "",
          "type": "uint256"
        }
      ],
      "stateMutability": "view",
      "type": "function"
    },
    {
      "inputs": [
        {
          "internalType": "address",
          "name": "",
          "type": "address"
        },
        {
          "internalType": "address",
          "name": "",
          "type": "address"
        },
        {
          "internalType": "uint256",
          "name": "",
          "type": "uint256"
        },
        {
          "internalType": "bytes",
          "name": "",
          "type": "bytes"
        }
      ],
      "name": "onERC721Received",
      "outputs": [
        {
          "internalType": "bytes4",
          "name": "",
          "type": "bytes4"
        }
      ],
      "stateMutability": "nonpayable",
      "type": "function"
    },
    {
      "inputs": [],
      "name": "orderNum",
      "outputs": [
        {
          "internalType": "uint16",
          "name": "",
          "type": "uint16"
        }
      ],
      "stateMutability": "view",
      "type": "function"
    },
    {
      "inputs": [],
      "name": "owner",
      "outputs": [
        {
          "internalType": "address",
          "name": "",
          "type": "address"
        }
      ],
      "stateMutability": "view",
      "type": "function"
    },
    {
      "inputs": [
        {
          "internalType": "uint256",
          "name": "",
          "type": "uint256"
        }
      ],
      "name": "players",
      "outputs": [
        {
          "internalType": "address",
          "name": "",
          "type": "address"
        }
      ],
      "stateMutability": "view",
      "type": "function"
    },
    {
      "inputs": [],
      "name": "playersTurn",
      "outputs": [
        {
          "internalType": "address",
          "name": "",
          "type": "address"
        }
      ],
      "stateMutability": "view",
      "type": "function"
    },
    {
      "inputs": [
        {
          "internalType": "bytes32",
          "name": "requestId",
          "type": "bytes32"
        },
        {
          "internalType": "uint256",
          "name": "randomness",
          "type": "uint256"
        }
      ],
      "name": "rawFulfillRandomness",
      "outputs": [],
      "stateMutability": "nonpayable",
      "type": "function"
    },
    {
      "inputs": [],
      "name": "renounceOwnership",
      "outputs": [],
      "stateMutability": "nonpayable",
      "type": "function"
    },
    {
      "inputs": [
        {
          "internalType": "uint256",
          "name": "_value",
          "type": "uint256"
        }
      ],
      "name": "setTicketPrice",
      "outputs": [],
      "stateMutability": "nonpayable",
      "type": "function"
    },
    {
      "inputs": [
        {
          "internalType": "address",
          "name": "_theirAddress",
          "type": "address"
        },
        {
          "internalType": "address[]",
          "name": "_order",
          "type": "address[]"
        }
      ],
      "name": "stealNft",
      "outputs": [],
      "stateMutability": "nonpayable",
      "type": "function"
    },
    {
      "inputs": [],
      "name": "ticketPrice",
      "outputs": [
        {
          "internalType": "uint256",
          "name": "",
          "type": "uint256"
        }
      ],
      "stateMutability": "view",
      "type": "function"
    },
    {
      "inputs": [
        {
          "internalType": "address",
          "name": "newOwner",
          "type": "address"
        }
      ],
      "name": "transferOwnership",
      "outputs": [],
      "stateMutability": "nonpayable",
      "type": "function"
    },
    {
      "inputs": [
        {
          "internalType": "address[]",
          "name": "order",
          "type": "address[]"
        }
      ],
      "name": "unwrap",
      "outputs": [],
      "stateMutability": "nonpayable",
      "type": "function"
    },
    {
      "inputs": [
        {
          "internalType": "address[]",
          "name": "_order",
          "type": "address[]"
        }
      ],
      "name": "unwrapAfterSteal",
      "outputs": [],
      "stateMutability": "nonpayable",
      "type": "function"
    },
    {
      "inputs": [
        {
          "internalType": "address",
          "name": "erc20",
          "type": "address"
        }
      ],
      "name": "withdrawERC20",
      "outputs": [],
      "stateMutability": "nonpayable",
      "type": "function"
    },
    {
      "inputs": [
        {
          "internalType": "address",
          "name": "nft",
          "type": "address"
        },
        {
          "internalType": "uint256",
          "name": "tokenId",
          "type": "uint256"
        }
      ],
      "name": "withdrawERC721",
      "outputs": [],
      "stateMutability": "nonpayable",
      "type": "function"
    },
    {
      "inputs": [],
      "name": "withdrawEth",
      "outputs": [],
      "stateMutability": "nonpayable",
      "type": "function"
    }
  ],
  "bytecode": "0x60c060405260048054600161ffff19909116811763ffff0000191690915567016345785d8a0000600555600c5534801561003857600080fd5b5073dd3782915140c8f3b190b5d67eac6dc5760c46e973a36085f69e2889c224210f603d836748e7dc0088600061006d61010a565b600080546001600160a01b0319166001600160a01b0383169081178255604051929350917f8be0079c531659141344cd1fd0a4f28419497f9722a3daafe3b4186f6b6457e0908290a3506001600160601b0319606092831b811660a052911b1660805260016002557f6c3699283bda56ad74f6b855546325b68d482e983852a7a82979cc4807b641f460085567016345785d8a000060095561010e565b3390565b60805160601c60a05160601c6129ae6101416000398061120d52806126a2525080612371528061267352506129ae6000f3fe6080604052600436106101d85760003560e01c80639d78c83411610102578063f0178c8311610095578063f4f3b20011610064578063f4f3b2001461086b578063f5d9bce41461089e578063f71d96cb146108b3578063f8e4f978146108dd576101d8565b8063f0178c831461076f578063f06102ed14610784578063f2fde38b146107ff578063f3e414f814610832576101d8565b8063a72e2cd6116100d1578063a72e2cd6146106bf578063c3b1cd89146106f8578063c529de651461070d578063e8daf9561461075a576101d8565b80639d78c8341461062a5780639e317f12146106565780639fce6fb514610680578063a0ef91df146106aa576101d8565b8063593284011161017a578063803d817811610149578063803d8178146105415780638da5cb5b146105bc57806394985ddd146105d15780639542d14614610601576101d8565b8063593284011461047f57806367dd74ca146104fa5780636f4bda1714610517578063715018a61461052c576101d8565b8063150b7a02116101b6578063150b7a02146102b257806315981650146103a05780633d18c920146103ca578063523ed44014610455576101d8565b806306880689146101dd57806308cade1b1461020e5780631209b1f61461028b575b600080fd5b3480156101e957600080fd5b506101f26108f2565b604080516001600160a01b039092168252519081900360200190f35b34801561021a57600080fd5b506102896004803603602081101561023157600080fd5b810190602081018135600160201b81111561024b57600080fd5b82018360208201111561025d57600080fd5b803590602001918460208302840111600160201b8311171561027e57600080fd5b509092509050610901565b005b34801561029757600080fd5b506102a0610a8d565b60408051918252519081900360200190f35b3480156102be57600080fd5b50610383600480360360808110156102d557600080fd5b6001600160a01b03823581169260208101359091169160408201359190810190608081016060820135600160201b81111561030f57600080fd5b82018360208201111561032157600080fd5b803590602001918460018302840111600160201b8311171561034257600080fd5b91908080601f016020809104026020016040519081016040528093929190818152602001838380828437600092019190915250929550610a93945050505050565b604080516001600160e01b03199092168252519081900360200190f35b3480156103ac57600080fd5b50610289600480360360208110156103c357600080fd5b5035610acc565b3480156103d657600080fd5b50610289600480360360408110156103ed57600080fd5b6001600160a01b038235169190810190604081016020820135600160201b81111561041757600080fd5b82018360208201111561042957600080fd5b803590602001918460208302840111600160201b8311171561044a57600080fd5b509092509050610b29565b34801561046157600080fd5b506102a06004803603602081101561047857600080fd5b5035610da7565b34801561048b57600080fd5b506104b2600480360360208110156104a257600080fd5b50356001600160a01b0316610db9565b604080516001600160a01b039098168852602088019690965286860194909452606086019290925215156080850152151560a0840152151560c0830152519081900360e00190f35b6102896004803603602081101561051057600080fd5b5035610e13565b34801561052357600080fd5b506102a0610fa8565b34801561053857600080fd5b50610289610faf565b34801561054d57600080fd5b506102896004803603602081101561056457600080fd5b810190602081018135600160201b81111561057e57600080fd5b82018360208201111561059057600080fd5b803590602001918460208302840111600160201b831117156105b157600080fd5b509092509050611051565b3480156105c857600080fd5b506101f26111f3565b3480156105dd57600080fd5b50610289600480360360408110156105f457600080fd5b5080359060200135611202565b34801561060d57600080fd5b5061061661128d565b604080519115158252519081900360200190f35b34801561063657600080fd5b5061063f6112ce565b6040805161ffff9092168252519081900360200190f35b34801561066257600080fd5b506102a06004803603602081101561067957600080fd5b50356112d8565b34801561068c57600080fd5b506101f2600480360360208110156106a357600080fd5b50356112ea565b3480156106b657600080fd5b50610289611314565b3480156106cb57600080fd5b50610289600480360360408110156106e257600080fd5b506001600160a01b03813516906020013561139b565b34801561070457600080fd5b5061061661149c565b34801561071957600080fd5b506107376004803603602081101561073057600080fd5b50356114dc565b604080516001600160a01b03909316835260208301919091528051918290030190f35b34801561076657600080fd5b506102a0611511565b34801561077b57600080fd5b5061063f611548565b34801561079057600080fd5b50610289600480360360208110156107a757600080fd5b810190602081018135600160201b8111156107c157600080fd5b8201836020820111156107d357600080fd5b803590602001918460208302840111600160201b831117156107f457600080fd5b509092509050611558565b34801561080b57600080fd5b506102896004803603602081101561082257600080fd5b50356001600160a01b03166117ac565b34801561083e57600080fd5b506102896004803603604081101561085557600080fd5b506001600160a01b0381351690602001356118a4565b34801561087757600080fd5b506102896004803603602081101561088e57600080fd5b50356001600160a01b031661196c565b3480156108aa57600080fd5b506101f2611b4d565b3480156108bf57600080fd5b506101f2600480360360208110156108d657600080fd5b5035611b8a565b3480156108e957600080fd5b5061063f611bb1565b600b546001600160a01b031681565b600280541415610946576040805162461bcd60e51b815260206004820152601f60248201526000805160206128f2833981519152604482015290519081900360640190fd5b60028055600c54431015610996576040805162461bcd60e51b81526020600482015260126024820152717761697420666f72204368726973746d617360701b604482015290519081900360640190fd5b336000908152600360205260409020600481015462010000900460ff1615156001146109c157600080fd5b60048101546301000000900460ff1615156001146109de57600080fd5b60038101546109ec57600080fd5b80546001600160a01b031615610a0157600080fd5b6000610a14848484600301546001611bec565b50905060078181548110610a2457fe5b600091825260209091206002909102015482546001600160a01b0319166001600160a01b039091161782556007805482908110610a5d57fe5b90600052602060002090600202016001015482600101819055508160030160009055505060016002819055505050565b60055481565b600060405162461bcd60e51b81526004018080602001828103825260218152602001806129386021913960400191505060405180910390fd5b610ad4611faa565b6000546001600160a01b03908116911614610b24576040805162461bcd60e51b81526020600482018190526024820152600080516020612959833981519152604482015290519081900360640190fd5b600555565b600280541415610b6e576040805162461bcd60e51b815260206004820152601f60248201526000805160206128f2833981519152604482015290519081900360640190fd5b60028055600b5433906001600160a01b03168114610bc3576040805162461bcd60e51b815260206004820152600d60248201526c3737ba103cb7bab9103a3ab93760991b604482015290519081900360640190fd5b600c54431015610c0f576040805162461bcd60e51b81526020600482015260126024820152717761697420666f72204368726973746d617360701b604482015290519081900360640190fd5b336000908152600360205260408082206001600160a01b038716835291206004810154600160201b900460ff161515600114610c4a57600080fd5b60048101546301000000900460ff1615610cab576040805162461bcd60e51b815260206004820152601a60248201527f63616e7420737465616c2066726f6d207468656d20616761696e000000000000604482015290519081900360640190fd5b6002808201546000908152600a60205260408082205492850154825290205411610d13576040805162461bcd60e51b815260206004820152601460248201527363616e7420737465616c2066726f6d207468656d60601b604482015290519081900360640190fd5b6000610d1f8686611fae565b6001600160a01b039788166000908152600360208190526040822080548754908c166001600160a01b031991821617885560019182015482890155600487018054630100000063ff000000199091161790556002978801805493880193909355865481168755958101839055919055600b805490941691909816179091555093909355505050565b600a6020526000908152604090205481565b6001600160a01b03908116600090815260036020819052604090912080546001820154600283015493830154600490930154919094169460ff62010000830481169263010000008104821692600160201b90910490911690565b600280541415610e58576040805162461bcd60e51b815260206004820152601f60248201526000805160206128f2833981519152604482015290519081900360640190fd5b60028055600554341015610eb3576040805162461bcd60e51b815260206004820181905260248201527f796f75206172652073656e64696e6720696e636f727265637420616d6f756e74604482015290519081900360640190fd5b33600090815260036020526040902060040154600160201b900460ff1615610f22576040805162461bcd60e51b815260206004820152601b60248201527f6f6e6c79206f6e65207469636b65742070657220616464726573730000000000604482015290519081900360640190fd5b610f2b816122e8565b5050336000818152600360205260408120600401805464ff000000001962ff000019909116620100001716600160201b1790556006805460018181018355919092527ff652222313e28459528d920b65115c16c04f3efc82aaedc97be59f3f377c0d3f90910180546001600160a01b031916909217909155600255565b6006545b90565b610fb7611faa565b6000546001600160a01b03908116911614611007576040805162461bcd60e51b81526020600482018190526024820152600080516020612959833981519152604482015290519081900360640190fd5b600080546040516001600160a01b03909116907f8be0079c531659141344cd1fd0a4f28419497f9722a3daafe3b4186f6b6457e0908390a3600080546001600160a01b0319169055565b600280541415611096576040805162461bcd60e51b815260206004820152601f60248201526000805160206128f2833981519152604482015290519081900360640190fd5b60028055600b5433906001600160a01b031681146110eb576040805162461bcd60e51b815260206004820152600d60248201526c3737ba103cb7bab9103a3ab93760991b604482015290519081900360640190fd5b600c54431015611137576040805162461bcd60e51b81526020600482015260126024820152717761697420666f72204368726973746d617360701b604482015290519081900360640190fd5b3360009081526003602052604081206002810154909190819061115e908790879084611bec565b915091506007828154811061116f57fe5b600091825260209091206002909102015483546001600160a01b0319166001600160a01b0390911617835560078054839081106111a857fe5b6000918252602082206002918202016001908101548682015594810191909155600b80546001600160a01b0319166001600160a01b0393909316929092179091559190915550505050565b6000546001600160a01b031690565b336001600160a01b037f0000000000000000000000000000000000000000000000000000000000000000161461127f576040805162461bcd60e51b815260206004820152601f60248201527f4f6e6c7920565246436f6f7264696e61746f722063616e2066756c66696c6c00604482015290519081900360640190fd5b6112898282612446565b5050565b3360009081526003602052604081206004810154600160201b900460ff166112b9576000915050610fac565b600401546301000000900460ff169050610fac565b60045461ffff1681565b60016020526000908152604090205481565b6000600682815481106112f957fe5b6000918252602090912001546001600160a01b031692915050565b61131c611faa565b6000546001600160a01b0390811691161461136c576040805162461bcd60e51b81526020600482018190526024820152600080516020612959833981519152604482015290519081900360640190fd5b60405133904780156108fc02916000818181858888f19350505050158015611398573d6000803e3d6000fd5b50565b604080516323b872dd60e01b81523360048201523060248201526044810183905290516001600160a01b038416916323b872dd91606480830192600092919082900301818387803b1580156113ef57600080fd5b505af1158015611403573d6000803e3d6000fd5b5050604080518082019091526001600160a01b039485168152602081019384526007805460018101825560009190915290517fa66cc928b5edb82af9bd49922954155ab7b0942694bea4ce44661d9a8736c688600290920291820180546001600160a01b03191691909616179094555050517fa66cc928b5edb82af9bd49922954155ab7b0942694bea4ce44661d9a8736c68990910155565b3360009081526003602052604081206004810154600160201b900460ff166114c8576000915050610fac565b6004015462010000900460ff169050610fac565b600781815481106114e957fe5b6000918252602090912060029091020180546001909101546001600160a01b03909116915082565b3360009081526003602052604081206004810154600160201b900460ff1661153d576000915050610fac565b600101549050610fac565b60045462010000900461ffff1681565b600c544310156115a4576040805162461bcd60e51b81526020600482015260126024820152717761697420666f72204368726973746d617360701b604482015290519081900360640190fd5b6115ae8282611fae565b5060005b6006548110156117a757600060036000600684815481106115cf57fe5b60009182526020808320909101546001600160a01b0390811684529083019390935260409091019020805490925016156116a3578054600680546001600160a01b03909216916323b872dd9130918690811061162757fe5b60009182526020822001546001860154604080516001600160e01b031960e088901b1681526001600160a01b03958616600482015294909216602485015260448401525160648084019382900301818387803b15801561168657600080fd5b505af115801561169a573d6000803e3d6000fd5b5050505061179e565b60006116b485858460020154612458565b9050600781815481106116c357fe5b6000918252602090912060029091020154600680546001600160a01b03909216916323b872dd913091879081106116f657fe5b600091825260209091200154600780546001600160a01b03909216918690811061171c57fe5b9060005260206000209060020201600101546040518463ffffffff1660e01b815260040180846001600160a01b03168152602001836001600160a01b031681526020018281526020019350505050600060405180830381600087803b15801561178457600080fd5b505af1158015611798573d6000803e3d6000fd5b50505050505b506001016115b2565b505050565b6117b4611faa565b6000546001600160a01b03908116911614611804576040805162461bcd60e51b81526020600482018190526024820152600080516020612959833981519152604482015290519081900360640190fd5b6001600160a01b0381166118495760405162461bcd60e51b81526004018080602001828103825260268152602001806129126026913960400191505060405180910390fd5b600080546040516001600160a01b03808516939216917f8be0079c531659141344cd1fd0a4f28419497f9722a3daafe3b4186f6b6457e091a3600080546001600160a01b0319166001600160a01b0392909216919091179055565b6118ac611faa565b6000546001600160a01b039081169116146118fc576040805162461bcd60e51b81526020600482018190526024820152600080516020612959833981519152604482015290519081900360640190fd5b604080516323b872dd60e01b81523060048201523360248201526044810183905290516001600160a01b038416916323b872dd91606480830192600092919082900301818387803b15801561195057600080fd5b505af1158015611964573d6000803e3d6000fd5b505050505050565b611974611faa565b6000546001600160a01b039081169116146119c4576040805162461bcd60e51b81526020600482018190526024820152600080516020612959833981519152604482015290519081900360640190fd5b6040805163095ea7b360e01b81523360048201526f0fffffffffffffffffffffffffffffff6024820152905182916001600160a01b0383169163095ea7b3916044808201926020929091908290030181600087803b158015611a2557600080fd5b505af1158015611a39573d6000803e3d6000fd5b505050506040513d6020811015611a4f57600080fd5b5050604080516370a0823160e01b815230600482015290516001600160a01b0383169163a9059cbb91339184916370a0823191602480820192602092909190829003018186803b158015611aa257600080fd5b505afa158015611ab6573d6000803e3d6000fd5b505050506040513d6020811015611acc57600080fd5b5051604080516001600160e01b031960e086901b1681526001600160a01b03909316600484015260248301919091525160448083019260209291908290030181600087803b158015611b1d57600080fd5b505af1158015611b31573d6000803e3d6000fd5b505050506040513d6020811015611b4757600080fd5b50505050565b3360009081526003602052604081206004810154600160201b900460ff16611b79576000915050610fac565b546001600160a01b03169050610fac565b60068181548110611b9757fe5b6000918252602090912001546001600160a01b0316905081565b3360009081526003602052604081206004810154600160201b900460ff16611bdd576000915050610fac565b6004015461ffff169050610fac565b60065460009081908514611c47576040805162461bcd60e51b815260206004820152601b60248201527f6875682067657420796f7572206c656e6774687320736f727465640000000000604482015290519081900360640190fd5b6001851415611c5b57506000905080611fa1565b6003600087876000818110611c6c57fe5b905060200201356001600160a01b03166001600160a01b03166001600160a01b0316815260200190815260200160002060040160029054906101000a900460ff1615156001151514611cf8576040805162461bcd60e51b815260206004820152601060248201526f646f6e74206265206368656174696e6760801b604482015290519081900360640190fd5b6000600a6000600360008a8a6000818110611d0f57fe5b905060200201356001600160a01b03166001600160a01b03166001600160a01b031681526020019081526020016000206002015481526020019081526020016000205490506000600190505b60065460001901811015611f9e5760036000898984818110611d7957fe5b905060200201356001600160a01b03166001600160a01b03166001600160a01b0316815260200190815260200160002060040160029054906101000a900460ff1615156001151514611e05576040805162461bcd60e51b815260206004820152601060248201526f646f6e74206265206368656174696e6760801b604482015290519081900360640190fd5b6000600a6000600360008c8c87818110611e1b57fe5b905060200201356001600160a01b03166001600160a01b03166001600160a01b0316815260200190815260200160002060020154815260200190815260200160002054905080831115611eb5576040805162461bcd60e51b815260206004820152601d60248201527f696e636f72726563746c79206f726465726564207475726e7320617272000000604482015290519081900360640190fd5b60008615611f0857600360008b8b86818110611ecd57fe5b905060200201356001600160a01b03166001600160a01b03166001600160a01b03168152602001908152602001600020600201549050611f4f565b600360008b8b86818110611f1857fe5b905060200201356001600160a01b03166001600160a01b03166001600160a01b031681526020019081526020016000206003015490505b87811415611f94576006549295508592600184011415611f725760009450611f94565b898984600101818110611f8157fe5b905060200201356001600160a01b031694505b5050600101611d5b565b50505b94509492505050565b3390565b6006546000908214612007576040805162461bcd60e51b815260206004820152601b60248201527f6875682067657420796f7572206c656e6774687320736f727465640000000000604482015290519081900360640190fd5b6001821415612018575060006122e2565b600360008484600081811061202957fe5b905060200201356001600160a01b03166001600160a01b03166001600160a01b0316815260200190815260200160002060040160029054906101000a900460ff16151560011515146120b5576040805162461bcd60e51b815260206004820152601060248201526f646f6e74206265206368656174696e6760801b604482015290519081900360640190fd5b6000600a600060036000878760008181106120cc57fe5b905060200201356001600160a01b03166001600160a01b03166001600160a01b031681526020019081526020016000206002015481526020019081526020016000205490506000600190505b600654600019018110156122df576003600086868481811061213657fe5b905060200201356001600160a01b03166001600160a01b03166001600160a01b0316815260200190815260200160002060040160029054906101000a900460ff16151560011515146121c2576040805162461bcd60e51b815260206004820152601060248201526f646f6e74206265206368656174696e6760801b604482015290519081900360640190fd5b6000600a6000600360008989878181106121d857fe5b905060200201356001600160a01b03166001600160a01b03166001600160a01b0316815260200190815260200160002060020154815260200190815260200160002054905080831115612272576040805162461bcd60e51b815260206004820152601d60248201527f696e636f72726563746c79206f726465726564207475726e7320617272000000604482015290519081900360640190fd5b3386868481811061227f57fe5b905060200201356001600160a01b03166001600160a01b031614156122d6576006546001830114156122b457600093506122d6565b8585836001018181106122c357fe5b905060200201356001600160a01b031693505b50600101612118565b50505b92915050565b33600090815260036020526040812060028101541561234e576040805162461bcd60e51b815260206004820152601c60248201527f63616e742067656e6572617465206d6f7265207468616e206f6e636500000000604482015290519081900360640190fd5b600954604080516370a0823160e01b815230600482015290516001600160a01b037f000000000000000000000000000000000000000000000000000000000000000016916370a08231916024808301926020929190829003018186803b1580156123b757600080fd5b505afa1580156123cb573d6000803e3d6000fd5b505050506040513d60208110156123e157600080fd5b50511015612428576040805162461bcd60e51b815260206004820152600f60248201526e6e6f7420656e6f756768204c494e4b60881b604482015290519081900360640190fd5b6124376008546009548561266f565b60029091018190559050919050565b6000918252600a602052604090912055565b60065460009083146124b1576040805162461bcd60e51b815260206004820152601b60248201527f6875682067657420796f7572206c656e6774687320736f727465640000000000604482015290519081900360640190fd5b60018314156124c257506000612668565b60036000858560008181106124d357fe5b905060200201356001600160a01b03166001600160a01b03166001600160a01b0316815260200190815260200160002060040160029054906101000a900460ff161515600115151461255f576040805162461bcd60e51b815260206004820152601060248201526f646f6e74206265206368656174696e6760801b604482015290519081900360640190fd5b60015b60065460001901811015612666576003600086868481811061258057fe5b905060200201356001600160a01b03166001600160a01b03166001600160a01b0316815260200190815260200160002060040160029054906101000a900460ff161515600115151461260c576040805162461bcd60e51b815260206004820152601060248201526f646f6e74206265206368656174696e6760801b604482015290519081900360640190fd5b826003600087878581811061261d57fe5b905060200201356001600160a01b03166001600160a01b03166001600160a01b0316815260200190815260200160002060020154141561265e579050612668565b600101612562565b505b9392505050565b60007f00000000000000000000000000000000000000000000000000000000000000006001600160a01b0316634000aea07f000000000000000000000000000000000000000000000000000000000000000085878660405160200180838152602001828152602001925050506040516020818303038152906040526040518463ffffffff1660e01b815260040180846001600160a01b0316815260200183815260200180602001828103825283818151815260200191508051906020019080838360005b8381101561274b578181015183820152602001612733565b50505050905090810190601f1680156127785780820380516001836020036101000a031916815260200191505b50945050505050602060405180830381600087803b15801561279957600080fd5b505af11580156127ad573d6000803e3d6000fd5b505050506040513d60208110156127c357600080fd5b50506000848152600160205260408120546127e390869085903090612824565b600086815260016020819052604090912054919250612802919061286b565b60008681526001602052604090205561281b85826128c5565b95945050505050565b60408051602080820196909652808201949094526001600160a01b039290921660608401526080808401919091528151808403909101815260a09092019052805191012090565b600082820183811015612668576040805162461bcd60e51b815260206004820152601b60248201527f536166654d6174683a206164646974696f6e206f766572666c6f770000000000604482015290519081900360640190fd5b60408051602080820194909452808201929092528051808303820181526060909201905280519101209056fe5265656e7472616e637947756172643a207265656e7472616e742063616c6c004f776e61626c653a206e6577206f776e657220697320746865207a65726f20616464726573736465706f73697420746865204e46547320776974682072654e46542066726f6e744f776e61626c653a2063616c6c6572206973206e6f7420746865206f776e6572a2646970667358221220d91e624ddb643d9ecb662803925ee699c6bd78aa55a4ef3ae6810c272346dd7464736f6c634300060c0033",
  "linkReferences": {},
  "deployedLinkReferences": {}
}