{
  "_format": "hh-sol-artifact-1",
  "contractName": "WhiteElephant",
  "sourceName": "contracts/WhiteElephant.sol",
  "abi": [
    {
      "anonymous": false,
      "inputs": [
        {
          "indexed": true,
          "internalType": "address",
          "name": "previousOwner",
          "type": "address"
        },
        {
          "indexed": true,
          "internalType": "address",
          "name": "newOwner",
          "type": "address"
        }
      ],
      "name": "OwnershipTransferred",
      "type": "event"
    },
    {
      "inputs": [
        {
          "internalType": "uint256",
          "name": "",
          "type": "uint256"
        }
      ],
      "name": "allNfts",
      "outputs": [
        {
          "internalType": "contract ERC721",
          "name": "nft",
          "type": "address"
        },
        {
          "internalType": "uint256",
          "name": "tokenId",
          "type": "uint256"
        }
      ],
      "stateMutability": "view",
      "type": "function"
    },
    {
      "inputs": [],
      "name": "buyTicket",
      "outputs": [],
      "stateMutability": "payable",
      "type": "function"
    },
    {
      "inputs": [],
      "name": "currNftToUnwrap",
      "outputs": [
        {
          "internalType": "uint16",
          "name": "",
          "type": "uint16"
        }
      ],
      "stateMutability": "view",
      "type": "function"
    },
    {
      "inputs": [
        {
          "internalType": "contract ERC721",
          "name": "_nft",
          "type": "address"
        },
        {
          "internalType": "uint256",
          "name": "_tokenId",
          "type": "uint256"
        }
      ],
      "name": "depositNft",
      "outputs": [],
      "stateMutability": "nonpayable",
      "type": "function"
    },
    {
      "inputs": [],
      "name": "endEvent",
      "outputs": [],
      "stateMutability": "nonpayable",
      "type": "function"
    },
    {
      "inputs": [
        {
          "internalType": "address",
          "name": "_player",
          "type": "address"
        }
      ],
      "name": "getPlayerInfo",
      "outputs": [
        {
          "internalType": "address",
          "name": "nft",
          "type": "address"
        },
        {
          "internalType": "uint256",
          "name": "tokenId",
          "type": "uint256"
        },
        {
          "internalType": "uint16",
          "name": "orderNumber",
          "type": "uint16"
        },
        {
          "internalType": "bool",
          "name": "hasTicket",
          "type": "bool"
        },
        {
          "internalType": "bool",
          "name": "wasStolenFrom",
          "type": "bool"
        },
        {
          "internalType": "bool",
          "name": "exists",
          "type": "bool"
        }
      ],
      "stateMutability": "view",
      "type": "function"
    },
    {
      "inputs": [
        {
          "internalType": "uint256",
          "name": "_number",
          "type": "uint256"
        }
      ],
      "name": "getPlayerNumber",
      "outputs": [
        {
          "internalType": "address",
          "name": "",
          "type": "address"
        }
      ],
      "stateMutability": "view",
      "type": "function"
    },
    {
      "inputs": [],
      "name": "myNftAddress",
      "outputs": [
        {
          "internalType": "address",
          "name": "",
          "type": "address"
        }
      ],
      "stateMutability": "view",
      "type": "function"
    },
    {
      "inputs": [],
      "name": "myOrderNum",
      "outputs": [
        {
          "internalType": "uint16",
          "name": "",
          "type": "uint16"
        }
      ],
      "stateMutability": "view",
      "type": "function"
    },
    {
      "inputs": [],
      "name": "myStolenFrom",
      "outputs": [
        {
          "internalType": "bool",
          "name": "",
          "type": "bool"
        }
      ],
      "stateMutability": "view",
      "type": "function"
    },
    {
      "inputs": [],
      "name": "myTicket",
      "outputs": [
        {
          "internalType": "bool",
          "name": "",
          "type": "bool"
        }
      ],
      "stateMutability": "view",
      "type": "function"
    },
    {
      "inputs": [],
      "name": "myTokenId",
      "outputs": [
        {
          "internalType": "uint256",
          "name": "",
          "type": "uint256"
        }
      ],
      "stateMutability": "view",
      "type": "function"
    },
    {
      "inputs": [],
      "name": "numberOfPlayers",
      "outputs": [
        {
          "internalType": "uint256",
          "name": "",
          "type": "uint256"
        }
      ],
      "stateMutability": "view",
      "type": "function"
    },
    {
      "inputs": [
        {
          "internalType": "address",
          "name": "",
          "type": "address"
        },
        {
          "internalType": "address",
          "name": "",
          "type": "address"
        },
        {
          "internalType": "uint256",
          "name": "",
          "type": "uint256"
        },
        {
          "internalType": "bytes",
          "name": "",
          "type": "bytes"
        }
      ],
      "name": "onERC721Received",
      "outputs": [
        {
          "internalType": "bytes4",
          "name": "",
          "type": "bytes4"
        }
      ],
      "stateMutability": "nonpayable",
      "type": "function"
    },
    {
      "inputs": [],
      "name": "orderNum",
      "outputs": [
        {
          "internalType": "uint16",
          "name": "",
          "type": "uint16"
        }
      ],
      "stateMutability": "view",
      "type": "function"
    },
    {
      "inputs": [],
      "name": "owner",
      "outputs": [
        {
          "internalType": "address",
          "name": "",
          "type": "address"
        }
      ],
      "stateMutability": "view",
      "type": "function"
    },
    {
      "inputs": [
        {
          "internalType": "uint256",
          "name": "",
          "type": "uint256"
        }
      ],
      "name": "players",
      "outputs": [
        {
          "internalType": "address",
          "name": "",
          "type": "address"
        }
      ],
      "stateMutability": "view",
      "type": "function"
    },
    {
      "inputs": [],
      "name": "renounceOwnership",
      "outputs": [],
      "stateMutability": "nonpayable",
      "type": "function"
    },
    {
      "inputs": [
        {
          "internalType": "uint256",
          "name": "_value",
          "type": "uint256"
        }
      ],
      "name": "setTicketPrice",
      "outputs": [],
      "stateMutability": "nonpayable",
      "type": "function"
    },
    {
      "inputs": [
        {
          "internalType": "address",
          "name": "_theirAddress",
          "type": "address"
        }
      ],
      "name": "stealNft",
      "outputs": [],
      "stateMutability": "nonpayable",
      "type": "function"
    },
    {
      "inputs": [],
      "name": "ticketPrice",
      "outputs": [
        {
          "internalType": "uint256",
          "name": "",
          "type": "uint256"
        }
      ],
      "stateMutability": "view",
      "type": "function"
    },
    {
      "inputs": [
        {
          "internalType": "address",
          "name": "newOwner",
          "type": "address"
        }
      ],
      "name": "transferOwnership",
      "outputs": [],
      "stateMutability": "nonpayable",
      "type": "function"
    },
    {
      "inputs": [],
      "name": "unwrap",
      "outputs": [],
      "stateMutability": "nonpayable",
      "type": "function"
    },
    {
      "inputs": [],
      "name": "unwrapAfterSteal",
      "outputs": [],
      "stateMutability": "nonpayable",
      "type": "function"
    }
  ],
  "bytecode": "0x60806040526002805463ffff00001961ffff1990911660011716905567016345785d8a000060035534801561003357600080fd5b50600061003e61008d565b600080546001600160a01b0319166001600160a01b0383169081178255604051929350917f8be0079c531659141344cd1fd0a4f28419497f9722a3daafe3b4186f6b6457e0908290a350610091565b3390565b61137c806100a06000396000f3fe60806040526004361061014b5760003560e01c8063a72e2cd6116100b6578063f0178c831161006f578063f0178c83146104f7578063f2fde38b1461050c578063f5d9bce41461053f578063f71d96cb14610554578063f8e4f9781461057e578063fd02ffb7146105935761014b565b8063a72e2cd61461040c578063b6bc11c114610445578063c3b1cd8914610478578063c529de651461048d578063e8daf956146104da578063edca914c146104ef5761014b565b8063715018a611610108578063715018a61461033257806386ec6177146103475780638da5cb5b1461035c5780639542d1461461038d5780639d78c834146103b65780639fce6fb5146103e25761014b565b80631209b1f614610150578063150b7a0214610177578063159816501461026557806333980c201461029157806359328401146102a65780636f4bda171461031d575b600080fd5b34801561015c57600080fd5b506101656105a8565b60408051918252519081900360200190f35b34801561018357600080fd5b506102486004803603608081101561019a57600080fd5b6001600160a01b03823581169260208101359091169160408201359190810190608081016060820135600160201b8111156101d457600080fd5b8201836020820111156101e657600080fd5b803590602001918460018302840111600160201b8311171561020757600080fd5b91908080601f0160208091040260200160405190810160405280939291908181526020018383808284376000920191909152509295506105ae945050505050565b604080516001600160e01b03199092168252519081900360200190f35b34801561027157600080fd5b5061028f6004803603602081101561028857600080fd5b50356105e7565b005b34801561029d57600080fd5b5061028f610656565b3480156102b257600080fd5b506102d9600480360360208110156102c957600080fd5b50356001600160a01b03166107bc565b604080516001600160a01b039097168752602087019590955261ffff90931685850152901515606085015215156080840152151560a0830152519081900360c00190f35b34801561032957600080fd5b50610165610811565b34801561033e57600080fd5b5061028f610818565b34801561035357600080fd5b5061028f6108cc565b34801561036857600080fd5b50610371610a06565b604080516001600160a01b039092168252519081900360200190f35b34801561039957600080fd5b506103a2610a15565b604080519115158252519081900360200190f35b3480156103c257600080fd5b506103cb610a56565b6040805161ffff9092168252519081900360200190f35b3480156103ee57600080fd5b506103716004803603602081101561040557600080fd5b5035610a60565b34801561041857600080fd5b5061028f6004803603604081101561042f57600080fd5b506001600160a01b038135169060200135610a8a565b34801561045157600080fd5b5061028f6004803603602081101561046857600080fd5b50356001600160a01b0316610b8b565b34801561048457600080fd5b506103a2610dc1565b34801561049957600080fd5b506104b7600480360360208110156104b057600080fd5b5035610e01565b604080516001600160a01b03909316835260208301919091528051918290030190f35b3480156104e657600080fd5b50610165610e39565b61028f610e70565b34801561050357600080fd5b506103cb610fcf565b34801561051857600080fd5b5061028f6004803603602081101561052f57600080fd5b50356001600160a01b0316610fdf565b34801561054b57600080fd5b506103716110e9565b34801561056057600080fd5b506103716004803603602081101561057757600080fd5b5035611126565b34801561058a57600080fd5b506103cb611150565b34801561059f57600080fd5b5061028f61118b565b60035481565b600060405162461bcd60e51b81526004018080602001828103825260218152602001806113266021913960400191505060405180910390fd5b6105ef6112fb565b6000546001600160a01b03908116911614610651576040805162461bcd60e51b815260206004820181905260248201527f4f776e61626c653a2063616c6c6572206973206e6f7420746865206f776e6572604482015290519081900360640190fd5b600355565b60014310156106a1576040805162461bcd60e51b81526020600482015260126024820152717761697420666f72204368726973746d617360701b604482015290519081900360640190fd5b33600090815260016020819052604090912060028101549091600160201b90910460ff161515146106d157600080fd5b60028101546301000000900460ff1615156001146106ee57600080fd5b80546001600160a01b03161561070357600080fd5b60018101541561071257600080fd5b600281015461ffff1661072457600080fd5b600281015462010000900460ff16151560011461074057600080fd5b60025460058054909162010000900461ffff1690811061075c57fe5b600091825260209091206002918202015482546001600160a01b0319166001600160a01b039091161782555460058054909161ffff62010000909104169081106107a257fe5b600091825260209091206001600290920201810154910155565b6001600160a01b039081166000908152600160208190526040909120805491810154600290910154919092169261ffff82169160ff62010000820481169263010000008304821692600160201b900490911690565b6004545b90565b6108206112fb565b6000546001600160a01b03908116911614610882576040805162461bcd60e51b815260206004820181905260248201527f4f776e61626c653a2063616c6c6572206973206e6f7420746865206f776e6572604482015290519081900360640190fd5b600080546040516001600160a01b03909116907f8be0079c531659141344cd1fd0a4f28419497f9722a3daafe3b4186f6b6457e0908390a3600080546001600160a01b0319169055565b6001431015610917576040805162461bcd60e51b81526020600482015260126024820152717761697420666f72204368726973746d617360701b604482015290519081900360640190fd5b60005b600454811015610a03576000600160006004848154811061093757fe5b60009182526020808320909101546001600160a01b03908116845290830193909352604090910190208054600480549294509216916323b872dd913091908690811061097f57fe5b60009182526020822001546001860154604080516001600160e01b031960e088901b1681526001600160a01b03958616600482015294909216602485015260448401525160648084019382900301818387803b1580156109de57600080fd5b505af11580156109f2573d6000803e3d6000fd5b50506001909301925061091a915050565b50565b6000546001600160a01b031690565b3360009081526001602052604081206002810154600160201b900460ff16610a41576000915050610815565b600201546301000000900460ff169050610815565b60025461ffff1681565b600060048281548110610a6f57fe5b6000918252602090912001546001600160a01b031692915050565b604080516323b872dd60e01b81523360048201523060248201526044810183905290516001600160a01b038416916323b872dd91606480830192600092919082900301818387803b158015610ade57600080fd5b505af1158015610af2573d6000803e3d6000fd5b5050604080518082019091526001600160a01b039485168152602081019384526005805460018101825560009190915290517f036b6384b5eca791c62761152d0c79bb0604c104a5fb6f4eb0703f3154bb3db0600290920291820180546001600160a01b03191691909616179094555050517f036b6384b5eca791c62761152d0c79bb0604c104a5fb6f4eb0703f3154bb3db190910155565b6002805433600081815260016020819052604090912090930154909261ffff918216620100009093048216011614610bfa576040805162461bcd60e51b815260206004820152600d60248201526c3737ba103cb7bab9103a3ab93760991b604482015290519081900360640190fd5b6001431015610c45576040805162461bcd60e51b81526020600482015260126024820152717761697420666f72204368726973746d617360701b604482015290519081900360640190fd5b3360009081526001602081905260408083206001600160a01b0386168452922060028101549091600160201b90910460ff16151514610c8357600080fd5b6002808201549083015461ffff918216911611610cde576040805162461bcd60e51b815260206004820152601460248201527363616e7420737465616c2066726f6d207468656d60601b604482015290519081900360640190fd5b60028101546301000000900460ff1615610d3f576040805162461bcd60e51b815260206004820152601a60248201527f63616e7420737465616c2066726f6d207468656d20616761696e000000000000604482015290519081900360640190fd5b6001600160a01b0393841660009081526001602081905260408220805485546001600160a01b031990811691909816178555810154938101939093556002808301805463ff000000191663010000001790558254909516825590820155825461ffff6201000080830482169093011690910263ffff0000199091161790915550565b3360009081526001602052604081206002810154600160201b900460ff16610ded576000915050610815565b6002015462010000900460ff169050610815565b60058181548110610e1157600080fd5b6000918252602090912060029091020180546001909101546001600160a01b03909116915082565b3360009081526001602052604081206002810154600160201b900460ff16610e65576000915050610815565b600101549050610815565b600354341015610ec7576040805162461bcd60e51b815260206004820181905260248201527f796f75206172652073656e64696e6720696e636f727265637420616d6f756e74604482015290519081900360640190fd5b33600090815260016020526040902060020154600160201b900460ff1615610f36576040805162461bcd60e51b815260206004820152601b60248201527f6f6e6c79206f6e65207469636b65742070657220616464726573730000000000604482015290519081900360640190fd5b33600081815260016020819052604082206002908101805464ff000000001962ff000019909116620100001716600160201b17808255825461ffff1991821661ffff918216179092558254808316850190921691161790556004805491820181559091527f8a35acfbc15ff81a39ae7d344fd709f28e8600b4aa8c65c6b64bfe7fe36bd19b0180546001600160a01b0319169091179055565b60025462010000900461ffff1681565b610fe76112fb565b6000546001600160a01b03908116911614611049576040805162461bcd60e51b815260206004820181905260248201527f4f776e61626c653a2063616c6c6572206973206e6f7420746865206f776e6572604482015290519081900360640190fd5b6001600160a01b03811661108e5760405162461bcd60e51b81526004018080602001828103825260268152602001806113006026913960400191505060405180910390fd5b600080546040516001600160a01b03808516939216917f8be0079c531659141344cd1fd0a4f28419497f9722a3daafe3b4186f6b6457e091a3600080546001600160a01b0319166001600160a01b0392909216919091179055565b3360009081526001602052604081206002810154600160201b900460ff16611115576000915050610815565b546001600160a01b03169050610815565b6004818154811061113657600080fd5b6000918252602090912001546001600160a01b0316905081565b3360009081526001602052604081206002810154600160201b900460ff1661117c576000915050610815565b6002015461ffff169050610815565b6002805433600081815260016020819052604090912090930154909261ffff9182166201000090930482160116146111fa576040805162461bcd60e51b815260206004820152600d60248201526c3737ba103cb7bab9103a3ab93760991b604482015290519081900360640190fd5b6001431015611245576040805162461bcd60e51b81526020600482015260126024820152717761697420666f72204368726973746d617360701b604482015290519081900360640190fd5b33600090815260016020526040902060025460058054909162010000900461ffff1690811061127057fe5b600091825260209091206002918202015482546001600160a01b0319166001600160a01b039091161782555460058054909161ffff62010000909104169081106112b657fe5b600091825260209091206001600292830290910181015492810192909255805461ffff6201000080830482169094011690920263ffff00001990921691909117905550565b339056fe4f776e61626c653a206e6577206f776e657220697320746865207a65726f20616464726573736465706f73697420746865204e46547320776974682072654e46542066726f6e74a264697066735822122053012d911a4e58842a4922188b5b3214a6b21cf4b358089f6190158bf928af6964736f6c63430007060033",
  "linkReferences": {},
  "deployedLinkReferences": {}
}