{
  "_format": "hh-sol-artifact-1",
  "contractName": "WhiteElephant",
  "sourceName": "contracts/WhiteElephant.sol",
  "abi": [
    {
      "anonymous": false,
      "inputs": [
        {
          "indexed": true,
          "internalType": "address",
          "name": "previousOwner",
          "type": "address"
        },
        {
          "indexed": true,
          "internalType": "address",
          "name": "newOwner",
          "type": "address"
        }
      ],
      "name": "OwnershipTransferred",
      "type": "event"
    },
    {
      "inputs": [
        {
          "internalType": "uint256",
          "name": "",
          "type": "uint256"
        }
      ],
      "name": "allNfts",
      "outputs": [
        {
          "internalType": "contract ERC721",
          "name": "nft",
          "type": "address"
        },
        {
          "internalType": "uint256",
          "name": "tokenId",
          "type": "uint256"
        }
      ],
      "stateMutability": "view",
      "type": "function"
    },
    {
      "inputs": [],
      "name": "buyTicket",
      "outputs": [],
      "stateMutability": "payable",
      "type": "function"
    },
    {
      "inputs": [],
      "name": "currNftToUnwrap",
      "outputs": [
        {
          "internalType": "uint16",
          "name": "",
          "type": "uint16"
        }
      ],
      "stateMutability": "view",
      "type": "function"
    },
    {
      "inputs": [
        {
          "internalType": "contract ERC721",
          "name": "_nft",
          "type": "address"
        },
        {
          "internalType": "uint256",
          "name": "_tokenId",
          "type": "uint256"
        }
      ],
      "name": "depositNft",
      "outputs": [],
      "stateMutability": "nonpayable",
      "type": "function"
    },
    {
      "inputs": [],
      "name": "endEvent",
      "outputs": [],
      "stateMutability": "nonpayable",
      "type": "function"
    },
    {
      "inputs": [
        {
          "internalType": "address",
          "name": "_player",
          "type": "address"
        }
      ],
      "name": "getPlayerInfo",
      "outputs": [
        {
          "internalType": "address",
          "name": "nft",
          "type": "address"
        },
        {
          "internalType": "uint256",
          "name": "tokenId",
          "type": "uint256"
        },
        {
          "internalType": "uint16",
          "name": "orderNumber",
          "type": "uint16"
        },
        {
          "internalType": "bool",
          "name": "hasTicket",
          "type": "bool"
        },
        {
          "internalType": "bool",
          "name": "wasStolenFrom",
          "type": "bool"
        },
        {
          "internalType": "bool",
          "name": "exists",
          "type": "bool"
        }
      ],
      "stateMutability": "view",
      "type": "function"
    },
    {
      "inputs": [
        {
          "internalType": "uint256",
          "name": "_number",
          "type": "uint256"
        }
      ],
      "name": "getPlayerNumber",
      "outputs": [
        {
          "internalType": "address",
          "name": "",
          "type": "address"
        }
      ],
      "stateMutability": "view",
      "type": "function"
    },
    {
      "inputs": [],
      "name": "myNftAddress",
      "outputs": [
        {
          "internalType": "address",
          "name": "",
          "type": "address"
        }
      ],
      "stateMutability": "view",
      "type": "function"
    },
    {
      "inputs": [],
      "name": "myOrderNum",
      "outputs": [
        {
          "internalType": "uint16",
          "name": "",
          "type": "uint16"
        }
      ],
      "stateMutability": "view",
      "type": "function"
    },
    {
      "inputs": [],
      "name": "myStolenFrom",
      "outputs": [
        {
          "internalType": "bool",
          "name": "",
          "type": "bool"
        }
      ],
      "stateMutability": "view",
      "type": "function"
    },
    {
      "inputs": [],
      "name": "myTicket",
      "outputs": [
        {
          "internalType": "bool",
          "name": "",
          "type": "bool"
        }
      ],
      "stateMutability": "view",
      "type": "function"
    },
    {
      "inputs": [],
      "name": "myTokenId",
      "outputs": [
        {
          "internalType": "uint256",
          "name": "",
          "type": "uint256"
        }
      ],
      "stateMutability": "view",
      "type": "function"
    },
    {
      "inputs": [],
      "name": "numberOfPlayers",
      "outputs": [
        {
          "internalType": "uint256",
          "name": "",
          "type": "uint256"
        }
      ],
      "stateMutability": "view",
      "type": "function"
    },
    {
      "inputs": [],
      "name": "orderNum",
      "outputs": [
        {
          "internalType": "uint16",
          "name": "",
          "type": "uint16"
        }
      ],
      "stateMutability": "view",
      "type": "function"
    },
    {
      "inputs": [],
      "name": "owner",
      "outputs": [
        {
          "internalType": "address",
          "name": "",
          "type": "address"
        }
      ],
      "stateMutability": "view",
      "type": "function"
    },
    {
      "inputs": [
        {
          "internalType": "uint256",
          "name": "",
          "type": "uint256"
        }
      ],
      "name": "players",
      "outputs": [
        {
          "internalType": "address",
          "name": "",
          "type": "address"
        }
      ],
      "stateMutability": "view",
      "type": "function"
    },
    {
      "inputs": [],
      "name": "renounceOwnership",
      "outputs": [],
      "stateMutability": "nonpayable",
      "type": "function"
    },
    {
      "inputs": [
        {
          "internalType": "uint256",
          "name": "_value",
          "type": "uint256"
        }
      ],
      "name": "setTicketPrice",
      "outputs": [],
      "stateMutability": "nonpayable",
      "type": "function"
    },
    {
      "inputs": [
        {
          "internalType": "uint256",
          "name": "_stealFrom",
          "type": "uint256"
        },
        {
          "internalType": "address",
          "name": "_theirAddress",
          "type": "address"
        }
      ],
      "name": "stealNft",
      "outputs": [],
      "stateMutability": "nonpayable",
      "type": "function"
    },
    {
      "inputs": [],
      "name": "ticketPrice",
      "outputs": [
        {
          "internalType": "uint256",
          "name": "",
          "type": "uint256"
        }
      ],
      "stateMutability": "view",
      "type": "function"
    },
    {
      "inputs": [
        {
          "internalType": "address",
          "name": "newOwner",
          "type": "address"
        }
      ],
      "name": "transferOwnership",
      "outputs": [],
      "stateMutability": "nonpayable",
      "type": "function"
    },
    {
      "inputs": [],
      "name": "unwrap",
      "outputs": [],
      "stateMutability": "nonpayable",
      "type": "function"
    }
  ],
  "bytecode": "0x60806040526002805463ffff00001961ffff19909116600117166201000017905567016345785d8a000060035534801561003857600080fd5b506000610043610092565b600080546001600160a01b0319166001600160a01b0383169081178255604051929350917f8be0079c531659141344cd1fd0a4f28419497f9722a3daafe3b4186f6b6457e0908290a350610096565b3390565b61105a806100a56000396000f3fe6080604052600436106101355760003560e01c8063a72e2cd6116100ab578063f0178c831161006f578063f0178c83146103e4578063f2fde38b146103f9578063f5d9bce41461042c578063f71d96cb14610441578063f8e4f9781461046b578063fd02ffb71461048057610135565b8063a72e2cd61461032c578063c3b1cd8914610365578063c529de651461037a578063e8daf956146103c7578063edca914c146103dc57610135565b8063715018a6116100fd578063715018a61461025257806386ec6177146102675780638da5cb5b1461027c5780639542d146146102ad5780639d78c834146102d65780639fce6fb51461030257610135565b80631209b1f61461013a57806315981650146101615780634255f4ea1461018d57806359328401146101c65780636f4bda171461023d575b600080fd5b34801561014657600080fd5b5061014f610495565b60408051918252519081900360200190f35b34801561016d57600080fd5b5061018b6004803603602081101561018457600080fd5b503561049b565b005b34801561019957600080fd5b5061018b600480360360408110156101b057600080fd5b50803590602001356001600160a01b031661050a565b3480156101d257600080fd5b506101f9600480360360208110156101e957600080fd5b50356001600160a01b03166106f9565b604080516001600160a01b039097168752602087019590955261ffff90931685850152901515606085015215156080840152151560a0830152519081900360c00190f35b34801561024957600080fd5b5061014f61074e565b34801561025e57600080fd5b5061018b610755565b34801561027357600080fd5b5061018b610809565b34801561028857600080fd5b50610291610943565b604080516001600160a01b039092168252519081900360200190f35b3480156102b957600080fd5b506102c2610952565b604080519115158252519081900360200190f35b3480156102e257600080fd5b506102eb610993565b6040805161ffff9092168252519081900360200190f35b34801561030e57600080fd5b506102916004803603602081101561032557600080fd5b503561099d565b34801561033857600080fd5b5061018b6004803603604081101561034f57600080fd5b506001600160a01b0381351690602001356109c7565b34801561037157600080fd5b506102c2610ac8565b34801561038657600080fd5b506103a46004803603602081101561039d57600080fd5b5035610b08565b604080516001600160a01b03909316835260208301919091528051918290030190f35b3480156103d357600080fd5b5061014f610b40565b61018b610b77565b3480156103f057600080fd5b506102eb610cd6565b34801561040557600080fd5b5061018b6004803603602081101561041c57600080fd5b50356001600160a01b0316610ce6565b34801561043857600080fd5b50610291610df0565b34801561044d57600080fd5b506102916004803603602081101561046457600080fd5b5035610e2d565b34801561047757600080fd5b506102eb610e57565b34801561048c57600080fd5b5061018b610e92565b60035481565b6104a3610ffa565b6000546001600160a01b03908116911614610505576040805162461bcd60e51b815260206004820181905260248201527f4f776e61626c653a2063616c6c6572206973206e6f7420746865206f776e6572604482015290519081900360640190fd5b600355565b600280543360008181526001602052604090209092015461ffff908116620100009092041614610571576040805162461bcd60e51b815260206004820152600d60248201526c3737ba103cb7bab9103a3ab93760991b604482015290519081900360640190fd5b60014310156105bc576040805162461bcd60e51b81526020600482015260126024820152717761697420666f72204368726973746d617360701b604482015290519081900360640190fd5b336000908152600160205260409020600281015461ffff16841061061e576040805162461bcd60e51b815260206004820152601460248201527363616e7420737465616c2066726f6d207468656d60601b604482015290519081900360640190fd5b6001600160a01b0383166000908152600160205260409020600201546301000000900460ff1615610696576040805162461bcd60e51b815260206004820152601a60248201527f63616e7420737465616c2066726f6d207468656d20616761696e000000000000604482015290519081900360640190fd5b6001600160a01b0392831660009081526001602081905260408220805484546001600160a01b0319908116919097161784558082018054949092019390935560028301805463ff0000001916630100000017905582549094169091559091555050565b6001600160a01b039081166000908152600160208190526040909120805491810154600290910154919092169261ffff82169160ff62010000820481169263010000008304821692600160201b900490911690565b6004545b90565b61075d610ffa565b6000546001600160a01b039081169116146107bf576040805162461bcd60e51b815260206004820181905260248201527f4f776e61626c653a2063616c6c6572206973206e6f7420746865206f776e6572604482015290519081900360640190fd5b600080546040516001600160a01b03909116907f8be0079c531659141344cd1fd0a4f28419497f9722a3daafe3b4186f6b6457e0908390a3600080546001600160a01b0319169055565b6001431015610854576040805162461bcd60e51b81526020600482015260126024820152717761697420666f72204368726973746d617360701b604482015290519081900360640190fd5b60005b600454811015610940576000600160006004848154811061087457fe5b60009182526020808320909101546001600160a01b03908116845290830193909352604090910190208054600480549294509216916323b872dd91309190869081106108bc57fe5b60009182526020822001546001860154604080516001600160e01b031960e088901b1681526001600160a01b03958616600482015294909216602485015260448401525160648084019382900301818387803b15801561091b57600080fd5b505af115801561092f573d6000803e3d6000fd5b505060019093019250610857915050565b50565b6000546001600160a01b031690565b3360009081526001602052604081206002810154600160201b900460ff1661097e576000915050610752565b600201546301000000900460ff169050610752565b60025461ffff1681565b6000600482815481106109ac57fe5b6000918252602090912001546001600160a01b031692915050565b604080516323b872dd60e01b81523360048201523060248201526044810183905290516001600160a01b038416916323b872dd91606480830192600092919082900301818387803b158015610a1b57600080fd5b505af1158015610a2f573d6000803e3d6000fd5b5050604080518082019091526001600160a01b039485168152602081019384526005805460018101825560009190915290517f036b6384b5eca791c62761152d0c79bb0604c104a5fb6f4eb0703f3154bb3db0600290920291820180546001600160a01b03191691909616179094555050517f036b6384b5eca791c62761152d0c79bb0604c104a5fb6f4eb0703f3154bb3db190910155565b3360009081526001602052604081206002810154600160201b900460ff16610af4576000915050610752565b6002015462010000900460ff169050610752565b60058181548110610b1857600080fd5b6000918252602090912060029091020180546001909101546001600160a01b03909116915082565b3360009081526001602052604081206002810154600160201b900460ff16610b6c576000915050610752565b600101549050610752565b600354341015610bce576040805162461bcd60e51b815260206004820181905260248201527f796f75206172652073656e64696e6720696e636f727265637420616d6f756e74604482015290519081900360640190fd5b33600090815260016020526040902060020154600160201b900460ff1615610c3d576040805162461bcd60e51b815260206004820152601b60248201527f6f6e6c79206f6e65207469636b65742070657220616464726573730000000000604482015290519081900360640190fd5b33600081815260016020819052604082206002908101805464ff000000001962ff000019909116620100001716600160201b17808255825461ffff1991821661ffff918216179092558254808316850190921691161790556004805491820181559091527f8a35acfbc15ff81a39ae7d344fd709f28e8600b4aa8c65c6b64bfe7fe36bd19b0180546001600160a01b0319169091179055565b60025462010000900461ffff1681565b610cee610ffa565b6000546001600160a01b03908116911614610d50576040805162461bcd60e51b815260206004820181905260248201527f4f776e61626c653a2063616c6c6572206973206e6f7420746865206f776e6572604482015290519081900360640190fd5b6001600160a01b038116610d955760405162461bcd60e51b8152600401808060200182810382526026815260200180610fff6026913960400191505060405180910390fd5b600080546040516001600160a01b03808516939216917f8be0079c531659141344cd1fd0a4f28419497f9722a3daafe3b4186f6b6457e091a3600080546001600160a01b0319166001600160a01b0392909216919091179055565b3360009081526001602052604081206002810154600160201b900460ff16610e1c576000915050610752565b546001600160a01b03169050610752565b60048181548110610e3d57600080fd5b6000918252602090912001546001600160a01b0316905081565b3360009081526001602052604081206002810154600160201b900460ff16610e83576000915050610752565b6002015461ffff169050610752565b600280543360008181526001602052604090209092015461ffff908116620100009092041614610ef9576040805162461bcd60e51b815260206004820152600d60248201526c3737ba103cb7bab9103a3ab93760991b604482015290519081900360640190fd5b6001431015610f44576040805162461bcd60e51b81526020600482015260126024820152717761697420666f72204368726973746d617360701b604482015290519081900360640190fd5b33600090815260016020526040902060025460058054909162010000900461ffff16908110610f6f57fe5b600091825260209091206002918202015482546001600160a01b0319166001600160a01b039091161782555460058054909161ffff6201000090910416908110610fb557fe5b600091825260209091206001600292830290910181015492810192909255805461ffff6201000080830482169094011690920263ffff00001990921691909117905550565b339056fe4f776e61626c653a206e6577206f776e657220697320746865207a65726f2061646472657373a264697066735822122010a29c4aeb3d5c3fd91b0ad558edf36b3667aee75fb2adad089775460092bd9064736f6c63430007060033",
  "linkReferences": {},
  "deployedLinkReferences": {}
}