{
  "_format": "hh-sol-artifact-1",
  "contractName": "WhiteElephant",
  "sourceName": "contracts/WhiteElephant.sol",
  "abi": [
    {
      "inputs": [],
      "stateMutability": "nonpayable",
      "type": "constructor"
    },
    {
      "anonymous": false,
      "inputs": [
        {
          "indexed": true,
          "internalType": "address",
          "name": "previousOwner",
          "type": "address"
        },
        {
          "indexed": true,
          "internalType": "address",
          "name": "newOwner",
          "type": "address"
        }
      ],
      "name": "OwnershipTransferred",
      "type": "event"
    },
    {
      "inputs": [
        {
          "internalType": "address[]",
          "name": "_delta",
          "type": "address[]"
        }
      ],
      "name": "addWhitelistedDepositors",
      "outputs": [],
      "stateMutability": "nonpayable",
      "type": "function"
    },
    {
      "inputs": [
        {
          "internalType": "uint256",
          "name": "",
          "type": "uint256"
        }
      ],
      "name": "allNfts",
      "outputs": [
        {
          "internalType": "contract ERC721",
          "name": "nft",
          "type": "address"
        },
        {
          "internalType": "uint256",
          "name": "tokenId",
          "type": "uint256"
        }
      ],
      "stateMutability": "view",
      "type": "function"
    },
    {
      "inputs": [
        {
          "internalType": "contract ERC721[]",
          "name": "_nfts",
          "type": "address[]"
        },
        {
          "internalType": "uint256[]",
          "name": "_tokenIds",
          "type": "uint256[]"
        }
      ],
      "name": "batchDepositNft",
      "outputs": [],
      "stateMutability": "nonpayable",
      "type": "function"
    },
    {
      "inputs": [
        {
          "internalType": "uint256",
          "name": "_userProvidedSeed",
          "type": "uint256"
        }
      ],
      "name": "buyTicket",
      "outputs": [],
      "stateMutability": "payable",
      "type": "function"
    },
    {
      "inputs": [],
      "name": "christmasTimestamp",
      "outputs": [
        {
          "internalType": "uint256",
          "name": "",
          "type": "uint256"
        }
      ],
      "stateMutability": "view",
      "type": "function"
    },
    {
      "inputs": [],
      "name": "claimNft",
      "outputs": [],
      "stateMutability": "nonpayable",
      "type": "function"
    },
    {
      "inputs": [
        {
          "internalType": "contract ERC721",
          "name": "_nft",
          "type": "address"
        },
        {
          "internalType": "uint256",
          "name": "_tokenId",
          "type": "uint256"
        }
      ],
      "name": "depositNft",
      "outputs": [],
      "stateMutability": "nonpayable",
      "type": "function"
    },
    {
      "inputs": [],
      "name": "endEvent",
      "outputs": [],
      "stateMutability": "nonpayable",
      "type": "function"
    },
    {
      "inputs": [
        {
          "internalType": "bytes32",
          "name": "",
          "type": "bytes32"
        }
      ],
      "name": "entropy",
      "outputs": [
        {
          "internalType": "uint256",
          "name": "",
          "type": "uint256"
        }
      ],
      "stateMutability": "view",
      "type": "function"
    },
    {
      "inputs": [],
      "name": "eventEnded",
      "outputs": [
        {
          "internalType": "bool",
          "name": "",
          "type": "bool"
        }
      ],
      "stateMutability": "view",
      "type": "function"
    },
    {
      "inputs": [
        {
          "internalType": "address",
          "name": "_player",
          "type": "address"
        }
      ],
      "name": "getPlayerInfo",
      "outputs": [
        {
          "internalType": "address",
          "name": "nft",
          "type": "address"
        },
        {
          "internalType": "uint256",
          "name": "tokenId",
          "type": "uint256"
        },
        {
          "internalType": "bytes32",
          "name": "randomnessRequestId",
          "type": "bytes32"
        },
        {
          "internalType": "bytes32",
          "name": "stealerRequestId",
          "type": "bytes32"
        },
        {
          "internalType": "bool",
          "name": "hasTicket",
          "type": "bool"
        },
        {
          "internalType": "bool",
          "name": "wasStolenFrom",
          "type": "bool"
        },
        {
          "internalType": "bool",
          "name": "exists",
          "type": "bool"
        }
      ],
      "stateMutability": "view",
      "type": "function"
    },
    {
      "inputs": [
        {
          "internalType": "uint256",
          "name": "_number",
          "type": "uint256"
        }
      ],
      "name": "getPlayerNumber",
      "outputs": [
        {
          "internalType": "address",
          "name": "",
          "type": "address"
        }
      ],
      "stateMutability": "view",
      "type": "function"
    },
    {
      "inputs": [
        {
          "internalType": "bytes32",
          "name": "",
          "type": "bytes32"
        }
      ],
      "name": "nonces",
      "outputs": [
        {
          "internalType": "uint256",
          "name": "",
          "type": "uint256"
        }
      ],
      "stateMutability": "view",
      "type": "function"
    },
    {
      "inputs": [],
      "name": "numberOfPlayers",
      "outputs": [
        {
          "internalType": "uint256",
          "name": "",
          "type": "uint256"
        }
      ],
      "stateMutability": "view",
      "type": "function"
    },
    {
      "inputs": [
        {
          "internalType": "address",
          "name": "",
          "type": "address"
        },
        {
          "internalType": "address",
          "name": "",
          "type": "address"
        },
        {
          "internalType": "uint256",
          "name": "",
          "type": "uint256"
        },
        {
          "internalType": "bytes",
          "name": "",
          "type": "bytes"
        }
      ],
      "name": "onERC721Received",
      "outputs": [
        {
          "internalType": "bytes4",
          "name": "",
          "type": "bytes4"
        }
      ],
      "stateMutability": "nonpayable",
      "type": "function"
    },
    {
      "inputs": [],
      "name": "owner",
      "outputs": [
        {
          "internalType": "address",
          "name": "",
          "type": "address"
        }
      ],
      "stateMutability": "view",
      "type": "function"
    },
    {
      "inputs": [
        {
          "internalType": "uint256",
          "name": "",
          "type": "uint256"
        }
      ],
      "name": "players",
      "outputs": [
        {
          "internalType": "address",
          "name": "",
          "type": "address"
        }
      ],
      "stateMutability": "view",
      "type": "function"
    },
    {
      "inputs": [],
      "name": "playersTurn",
      "outputs": [
        {
          "internalType": "address",
          "name": "",
          "type": "address"
        }
      ],
      "stateMutability": "view",
      "type": "function"
    },
    {
      "inputs": [
        {
          "internalType": "bytes32",
          "name": "requestId",
          "type": "bytes32"
        },
        {
          "internalType": "uint256",
          "name": "randomness",
          "type": "uint256"
        }
      ],
      "name": "rawFulfillRandomness",
      "outputs": [],
      "stateMutability": "nonpayable",
      "type": "function"
    },
    {
      "inputs": [
        {
          "internalType": "address[]",
          "name": "_delta",
          "type": "address[]"
        }
      ],
      "name": "removeWhitelistedDepositors",
      "outputs": [],
      "stateMutability": "nonpayable",
      "type": "function"
    },
    {
      "inputs": [],
      "name": "renounceOwnership",
      "outputs": [],
      "stateMutability": "nonpayable",
      "type": "function"
    },
    {
      "inputs": [
        {
          "internalType": "uint256",
          "name": "_value",
          "type": "uint256"
        }
      ],
      "name": "setTicketPrice",
      "outputs": [],
      "stateMutability": "nonpayable",
      "type": "function"
    },
    {
      "inputs": [
        {
          "internalType": "address",
          "name": "_theirAddress",
          "type": "address"
        },
        {
          "internalType": "address[]",
          "name": "_order",
          "type": "address[]"
        },
        {
          "internalType": "address[]",
          "name": "redro_",
          "type": "address[]"
        }
      ],
      "name": "stealNft",
      "outputs": [],
      "stateMutability": "nonpayable",
      "type": "function"
    },
    {
      "inputs": [],
      "name": "ticketPrice",
      "outputs": [
        {
          "internalType": "uint256",
          "name": "",
          "type": "uint256"
        }
      ],
      "stateMutability": "view",
      "type": "function"
    },
    {
      "inputs": [
        {
          "internalType": "address",
          "name": "newOwner",
          "type": "address"
        }
      ],
      "name": "transferOwnership",
      "outputs": [],
      "stateMutability": "nonpayable",
      "type": "function"
    },
    {
      "inputs": [
        {
          "internalType": "address[]",
          "name": "order",
          "type": "address[]"
        },
        {
          "internalType": "address[]",
          "name": "redro",
          "type": "address[]"
        }
      ],
      "name": "unwrap",
      "outputs": [],
      "stateMutability": "nonpayable",
      "type": "function"
    },
    {
      "inputs": [
        {
          "internalType": "address[]",
          "name": "_order",
          "type": "address[]"
        }
      ],
      "name": "unwrapAfterSteal",
      "outputs": [],
      "stateMutability": "nonpayable",
      "type": "function"
    },
    {
      "inputs": [
        {
          "internalType": "address",
          "name": "erc20",
          "type": "address"
        }
      ],
      "name": "withdrawERC20",
      "outputs": [],
      "stateMutability": "nonpayable",
      "type": "function"
    },
    {
      "inputs": [
        {
          "internalType": "address",
          "name": "nft",
          "type": "address"
        },
        {
          "internalType": "uint256",
          "name": "tokenId",
          "type": "uint256"
        }
      ],
      "name": "withdrawERC721",
      "outputs": [],
      "stateMutability": "nonpayable",
      "type": "function"
    },
    {
      "inputs": [],
      "name": "withdrawEth",
      "outputs": [],
      "stateMutability": "nonpayable",
      "type": "function"
    }
  ],
  "bytecode": "0x60c060405266038d7ea4c68000600555600a805460ff191660019081179091556078600b55600c819055600d5534801561003857600080fd5b5073dd3782915140c8f3b190b5d67eac6dc5760c46e973a36085f69e2889c224210f603d836748e7dc0088600061006d610155565b600080546001600160a01b0319166001600160a01b0383169081178255604051929350917f8be0079c531659141344cd1fd0a4f28419497f9722a3daafe3b4186f6b6457e0908290a3506001600160601b0319606092831b811660a052911b16608052600160028190557f6c3699283bda56ad74f6b855546325b68d482e983852a7a82979cc4807b641f460085567016345785d8a000060095573465dca9995d6c2a81a9be80fbced5a770dee3dae600052600f6020527f63b10e24d903827652f91eece0ec82eef8c06682071a9166ad855c95967e9cad805460ff19169091179055610159565b3390565b60805160601c60a05160601c612c5b6200018d6000398061185f528061294852508061282e52806129195250612c5b6000f3fe6080604052600436106101cd5760003560e01c80638da5cb5b116100f7578063a72e2cd611610095578063f3e414f811610064578063f3e414f8146109b8578063f4f3b200146109f1578063f57e63e214610a24578063f71d96cb14610a4d576101cd565b8063a72e2cd6146108ea578063c03a83ac14610923578063c529de6514610938578063f2fde38b14610985576101cd565b806399f84c5c116100d157806399f84c5c146107b65780639e317f12146108815780639fce6fb5146108ab578063a0ef91df146108d5576101cd565b80638da5cb5b146106f657806394985ddd1461070b578063993e89611461073b576101cd565b8063593284011161016f5780636f4bda171161013e5780636f4bda17146105ec578063715018a61461060157806386ec6177146106165780638b5c218f1461062b576101cd565b806359328401146104645780635ae2afa4146104df5780635cfa8c50146104f457806367dd74ca146105cf576101cd565b8063150b7a02116101ab578063150b7a02146102a7578063159816501461039557806319ea2567146103bf578063523ed4401461043a576101cd565b806306880689146101d257806308cade1b146102035780631209b1f614610280575b600080fd5b3480156101de57600080fd5b506101e7610a77565b604080516001600160a01b039092168252519081900360200190f35b34801561020f57600080fd5b5061027e6004803603602081101561022657600080fd5b810190602081018135600160201b81111561024057600080fd5b82018360208201111561025257600080fd5b803590602001918460208302840111600160201b8311171561027357600080fd5b509092509050610a8b565b005b34801561028c57600080fd5b50610295610c19565b60408051918252519081900360200190f35b3480156102b357600080fd5b50610378600480360360808110156102ca57600080fd5b6001600160a01b03823581169260208101359091169160408201359190810190608081016060820135600160201b81111561030457600080fd5b82018360208201111561031657600080fd5b803590602001918460018302840111600160201b8311171561033757600080fd5b91908080601f016020809104026020016040519081016040528093929190818152602001838380828437600092019190915250929550610c1f945050505050565b604080516001600160e01b03199092168252519081900360200190f35b3480156103a157600080fd5b5061027e600480360360208110156103b857600080fd5b5035610c58565b3480156103cb57600080fd5b5061027e600480360360208110156103e257600080fd5b810190602081018135600160201b8111156103fc57600080fd5b82018360208201111561040e57600080fd5b803590602001918460208302840111600160201b8311171561042f57600080fd5b509092509050610cb5565b34801561044657600080fd5b506102956004803603602081101561045d57600080fd5b5035610d68565b34801561047057600080fd5b506104976004803603602081101561048757600080fd5b50356001600160a01b0316610d7a565b604080516001600160a01b039098168852602088019690965286860194909452606086019290925215156080850152151560a0840152151560c0830152519081900360e00190f35b3480156104eb57600080fd5b5061027e610dd4565b34801561050057600080fd5b5061027e6004803603606081101561051757600080fd5b6001600160a01b038235169190810190604081016020820135600160201b81111561054157600080fd5b82018360208201111561055357600080fd5b803590602001918460208302840111600160201b8311171561057457600080fd5b919390929091602081019035600160201b81111561059157600080fd5b8201836020820111156105a357600080fd5b803590602001918460208302840111600160201b831117156105c457600080fd5b509092509050610f59565b61027e600480360360208110156105e557600080fd5b50356112db565b3480156105f857600080fd5b50610295611493565b34801561060d57600080fd5b5061027e611499565b34801561062257600080fd5b5061027e61153b565b34801561063757600080fd5b5061027e6004803603604081101561064e57600080fd5b810190602081018135600160201b81111561066857600080fd5b82018360208201111561067a57600080fd5b803590602001918460208302840111600160201b8311171561069b57600080fd5b919390929091602081019035600160201b8111156106b857600080fd5b8201836020820111156106ca57600080fd5b803590602001918460208302840111600160201b831117156106eb57600080fd5b5090925090506115a2565b34801561070257600080fd5b506101e7611845565b34801561071757600080fd5b5061027e6004803603604081101561072e57600080fd5b5080359060200135611854565b34801561074757600080fd5b5061027e6004803603602081101561075e57600080fd5b810190602081018135600160201b81111561077857600080fd5b82018360208201111561078a57600080fd5b803590602001918460208302840111600160201b831117156107ab57600080fd5b5090925090506118df565b3480156107c257600080fd5b5061027e600480360360408110156107d957600080fd5b810190602081018135600160201b8111156107f357600080fd5b82018360208201111561080557600080fd5b803590602001918460208302840111600160201b8311171561082657600080fd5b919390929091602081019035600160201b81111561084357600080fd5b82018360208201111561085557600080fd5b803590602001918460208302840111600160201b8311171561087657600080fd5b50909250905061198d565b34801561088d57600080fd5b50610295600480360360208110156108a457600080fd5b5035611a7c565b3480156108b757600080fd5b506101e7600480360360208110156108ce57600080fd5b5035611a8e565b3480156108e157600080fd5b5061027e611ab8565b3480156108f657600080fd5b5061027e6004803603604081101561090d57600080fd5b506001600160a01b038135169060200135611b3f565b34801561092f57600080fd5b50610295611c9d565b34801561094457600080fd5b506109626004803603602081101561095b57600080fd5b5035611ca3565b604080516001600160a01b03909316835260208301919091528051918290030190f35b34801561099157600080fd5b5061027e600480360360208110156109a857600080fd5b50356001600160a01b0316611cd8565b3480156109c457600080fd5b5061027e600480360360408110156109db57600080fd5b506001600160a01b038135169060200135611dd0565b3480156109fd57600080fd5b5061027e60048036036020811015610a1457600080fd5b50356001600160a01b0316611e98565b348015610a3057600080fd5b50610a39612079565b604080519115158252519081900360200190f35b348015610a5957600080fd5b506101e760048036036020811015610a7057600080fd5b5035612082565b600a5461010090046001600160a01b031681565b600280541415610ad0576040805162461bcd60e51b815260206004820152601f6024820152600080516020612b9f833981519152604482015290519081900360640190fd5b60028055600c54421015610b22576040805162461bcd60e51b81526020600482015260146024820152731dd85a5d08199bdc88195d995b9d081cdd185c9d60621b604482015290519081900360640190fd5b336000908152600360205260409020600481015462010000900460ff161515600114610b4d57600080fd5b60048101546301000000900460ff161515600114610b6a57600080fd5b6003810154610b7857600080fd5b80546001600160a01b031615610b8d57600080fd5b6000610ba08484846003015460016120a9565b50905060078181548110610bb057fe5b600091825260209091206002909102015482546001600160a01b0319166001600160a01b039091161782556007805482908110610be957fe5b90600052602060002090600202016001015482600101819055508160030160009055505060016002819055505050565b60055481565b600060405162461bcd60e51b8152600401808060200182810382526021815260200180612be56021913960400191505060405180910390fd5b610c60612467565b6000546001600160a01b03908116911614610cb0576040805162461bcd60e51b81526020600482018190526024820152600080516020612c06833981519152604482015290519081900360640190fd5b600555565b610cbd612467565b6000546001600160a01b03908116911614610d0d576040805162461bcd60e51b81526020600482018190526024820152600080516020612c06833981519152604482015290519081900360640190fd5b60005b81811015610d63576000600f6000858585818110610d2a57fe5b602090810292909201356001600160a01b0316835250810191909152604001600020805460ff1916911515919091179055600101610d10565b505050565b60046020526000908152604090205481565b6001600160a01b03908116600090815260036020819052604090912080546001820154600283015493830154600490930154919094169460ff62010000830481169263010000008104821692600160201b90910490911690565b600e5460ff16610e2b576040805162461bcd60e51b815260206004820152601d60248201527f746865206576656e74206973206e6f742066696e697368656420796574000000604482015290519081900360640190fd5b33600090815260036020526040902080546001600160a01b0316610e89576040805162461bcd60e51b815260206004820152601060248201526f6e6f7468696e6720746f20636c61696d60801b604482015290519081900360640190fd5b600481015462010000900460ff16610ee1576040805162461bcd60e51b81526020600482015260166024820152751e5bdd48191bdb9d081a185d994818481d1a58dad95d60521b604482015290519081900360640190fd5b80546001820154604080516323b872dd60e01b81523060048201523360248201526044810192909252516001600160a01b03909216916323b872dd9160648082019260009290919082900301818387803b158015610f3e57600080fd5b505af1158015610f52573d6000803e3d6000fd5b5050505050565b600280541415610f9e576040805162461bcd60e51b815260206004820152601f6024820152600080516020612b9f833981519152604482015290519081900360640190fd5b60028055600c54421015610ff0576040805162461bcd60e51b81526020600482015260146024820152731dd85a5d08199bdc88195d995b9d081cdd185c9d60621b604482015290519081900360640190fd5b336000908152600360205260408082206001600160a01b038816835291206004810154600160201b900460ff16151560011461102b57600080fd5b60048101546301000000900460ff161561108c576040805162461bcd60e51b815260206004820152601a60248201527f63616e7420737465616c2066726f6d207468656d20616761696e000000000000604482015290519081900360640190fd5b60028082015460009081526004602052604080822054928501548252902054116110f4576040805162461bcd60e51b815260206004820152601460248201527363616e7420737465616c2066726f6d207468656d60601b604482015290519081900360640190fd5b6000611100878761246b565b600b54600d5491925001426001828211156111f0575b8282111561112e57600b549290920191600101611116565b8183111561113b57600019015b60008060005b6006548110156111b95783611173578a8a8281811061115c57fe5b905060200201356001600160a01b031691506111b9565b8215611180576001840393505b338b8b8381811061118d57fe5b905060200201356001600160a01b03166001600160a01b031614156111b157600192505b600101611141565b50600a546001600160a01b038281166101009092041614156111ed57600a8054610100600160a81b03191633610100021790555b50505b600a5461010090046001600160a01b03163314611244576040805162461bcd60e51b815260206004820152600d60248201526c3737ba103cb7bab9103a3ab93760991b604482015290519081900360640190fd5b5050506001600160a01b0397881660009081526003602081905260408220805486546001600160a01b0319908116918d169190911787556001918201548783015560048601805463ff000000191663010000001790556002968701805493870193909355855416855593840182905555600a80549190981661010002610100600160a81b0319909116179096559490945550505050565b600280541415611320576040805162461bcd60e51b815260206004820152601f6024820152600080516020612b9f833981519152604482015290519081900360640190fd5b6002805560055434101561137b576040805162461bcd60e51b815260206004820181905260248201527f796f75206172652073656e64696e6720696e636f727265637420616d6f756e74604482015290519081900360640190fd5b33600090815260036020526040902060040154600160201b900460ff16156113ea576040805162461bcd60e51b815260206004820152601b60248201527f6f6e6c79206f6e65207469636b65742070657220616464726573730000000000604482015290519081900360640190fd5b6113f3816127a5565b50336000818152600360205260408120600401805464ff000000001962ff000019909116620100001716600160201b1790556006805460018101825591527ff652222313e28459528d920b65115c16c04f3efc82aaedc97be59f3f377c0d3f0180546001600160a01b0319169091179055600a5460ff161561148b57600a8054610100600160a81b03191633610100021760ff191690555b506001600255565b60065490565b6114a1612467565b6000546001600160a01b039081169116146114f1576040805162461bcd60e51b81526020600482018190526024820152600080516020612c06833981519152604482015290519081900360640190fd5b600080546040516001600160a01b03909116907f8be0079c531659141344cd1fd0a4f28419497f9722a3daafe3b4186f6b6457e0908390a3600080546001600160a01b0319169055565b611543612467565b6000546001600160a01b03908116911614611593576040805162461bcd60e51b81526020600482018190526024820152600080516020612c06833981519152604482015290519081900360640190fd5b600e805460ff19166001179055565b6002805414156115e7576040805162461bcd60e51b815260206004820152601f6024820152600080516020612b9f833981519152604482015290519081900360640190fd5b60028055600c54421015611639576040805162461bcd60e51b81526020600482015260146024820152731dd85a5d08199bdc88195d995b9d081cdd185c9d60621b604482015290519081900360640190fd5b336000908152600360205260408120600281015490919081906116609088908890846120a9565b600b54600d549294509092500142600182821115611753575b8282111561169157600b549290920191600101611679565b8183111561169e57600019015b60008060005b60065481101561171c57836116d6578a8a828181106116bf57fe5b905060200201356001600160a01b0316915061171c565b82156116e3576001840393505b338b8b838181106116f057fe5b905060200201356001600160a01b03166001600160a01b0316141561171457600192505b6001016116a4565b50600a546001600160a01b0382811661010090920416141561175057600a8054610100600160a81b03191633610100021790555b50505b600a5461010090046001600160a01b031633146117a7576040805162461bcd60e51b815260206004820152600d60248201526c3737ba103cb7bab9103a3ab93760991b604482015290519081900360640190fd5b600785815481106117b457fe5b600091825260209091206002909102015486546001600160a01b0319166001600160a01b0390911617865560078054869081106117ed57fe5b600091825260208220600160029283029091018101548982015597810191909155600a80546001600160a01b0390961661010002610100600160a81b03199096169590951790945550600d5550919091555050505050565b6000546001600160a01b031690565b336001600160a01b037f000000000000000000000000000000000000000000000000000000000000000016146118d1576040805162461bcd60e51b815260206004820152601f60248201527f4f6e6c7920565246436f6f7264696e61746f722063616e2066756c66696c6c00604482015290519081900360640190fd5b6118db8282612903565b5050565b6118e7612467565b6000546001600160a01b03908116911614611937576040805162461bcd60e51b81526020600482018190526024820152600080516020612c06833981519152604482015290519081900360640190fd5b60005b81811015610d63576001600f600085858581811061195457fe5b602090810292909201356001600160a01b0316835250810191909152604001600020805460ff191691151591909117905560010161193a565b336000908152600f602052604090205460ff166119ea576040805162461bcd60e51b81526020600482015260166024820152751b9bdd08185b1b1bddd959081d1bc819195c1bdcda5d60521b604482015290519081900360640190fd5b828114611a32576040805162461bcd60e51b8152602060048201526011602482015270696e636f7272656374206c656e6774687360781b604482015290519081900360640190fd5b60005b83811015610f5257611a74858583818110611a4c57fe5b905060200201356001600160a01b0316848484818110611a6857fe5b90506020020135611b3f565b600101611a35565b60016020526000908152604090205481565b600060068281548110611a9d57fe5b6000918252602090912001546001600160a01b031692915050565b611ac0612467565b6000546001600160a01b03908116911614611b10576040805162461bcd60e51b81526020600482018190526024820152600080516020612c06833981519152604482015290519081900360640190fd5b60405133904780156108fc02916000818181858888f19350505050158015611b3c573d6000803e3d6000fd5b50565b336000908152600f602052604090205460ff16611b9c576040805162461bcd60e51b81526020600482015260166024820152751b9bdd08185b1b1bddd959081d1bc819195c1bdcda5d60521b604482015290519081900360640190fd5b604080516323b872dd60e01b81523360048201523060248201526044810183905290516001600160a01b038416916323b872dd91606480830192600092919082900301818387803b158015611bf057600080fd5b505af1158015611c04573d6000803e3d6000fd5b5050604080518082019091526001600160a01b039485168152602081019384526007805460018101825560009190915290517fa66cc928b5edb82af9bd49922954155ab7b0942694bea4ce44661d9a8736c688600290920291820180546001600160a01b03191691909616179094555050517fa66cc928b5edb82af9bd49922954155ab7b0942694bea4ce44661d9a8736c68990910155565b600c5481565b60078181548110611cb057fe5b6000918252602090912060029091020180546001909101546001600160a01b03909116915082565b611ce0612467565b6000546001600160a01b03908116911614611d30576040805162461bcd60e51b81526020600482018190526024820152600080516020612c06833981519152604482015290519081900360640190fd5b6001600160a01b038116611d755760405162461bcd60e51b8152600401808060200182810382526026815260200180612bbf6026913960400191505060405180910390fd5b600080546040516001600160a01b03808516939216917f8be0079c531659141344cd1fd0a4f28419497f9722a3daafe3b4186f6b6457e091a3600080546001600160a01b0319166001600160a01b0392909216919091179055565b611dd8612467565b6000546001600160a01b03908116911614611e28576040805162461bcd60e51b81526020600482018190526024820152600080516020612c06833981519152604482015290519081900360640190fd5b604080516323b872dd60e01b81523060048201523360248201526044810183905290516001600160a01b038416916323b872dd91606480830192600092919082900301818387803b158015611e7c57600080fd5b505af1158015611e90573d6000803e3d6000fd5b505050505050565b611ea0612467565b6000546001600160a01b03908116911614611ef0576040805162461bcd60e51b81526020600482018190526024820152600080516020612c06833981519152604482015290519081900360640190fd5b6040805163095ea7b360e01b81523360048201526f0fffffffffffffffffffffffffffffff6024820152905182916001600160a01b0383169163095ea7b3916044808201926020929091908290030181600087803b158015611f5157600080fd5b505af1158015611f65573d6000803e3d6000fd5b505050506040513d6020811015611f7b57600080fd5b5050604080516370a0823160e01b815230600482015290516001600160a01b0383169163a9059cbb91339184916370a0823191602480820192602092909190829003018186803b158015611fce57600080fd5b505afa158015611fe2573d6000803e3d6000fd5b505050506040513d6020811015611ff857600080fd5b5051604080516001600160e01b031960e086901b1681526001600160a01b03909316600484015260248301919091525160448083019260209291908290030181600087803b15801561204957600080fd5b505af115801561205d573d6000803e3d6000fd5b505050506040513d602081101561207357600080fd5b50505050565b600e5460ff1681565b6006818154811061208f57fe5b6000918252602090912001546001600160a01b0316905081565b60065460009081908514612104576040805162461bcd60e51b815260206004820152601b60248201527f6875682067657420796f7572206c656e6774687320736f727465640000000000604482015290519081900360640190fd5b60018514156121185750600090508061245e565b600360008787600081811061212957fe5b905060200201356001600160a01b03166001600160a01b03166001600160a01b0316815260200190815260200160002060040160029054906101000a900460ff16151560011515146121b5576040805162461bcd60e51b815260206004820152601060248201526f646f6e74206265206368656174696e6760801b604482015290519081900360640190fd5b600060046000600360008a8a60008181106121cc57fe5b905060200201356001600160a01b03166001600160a01b03166001600160a01b031681526020019081526020016000206002015481526020019081526020016000205490506000600190505b6006546000190181101561245b576003600089898481811061223657fe5b905060200201356001600160a01b03166001600160a01b03166001600160a01b0316815260200190815260200160002060040160029054906101000a900460ff16151560011515146122c2576040805162461bcd60e51b815260206004820152601060248201526f646f6e74206265206368656174696e6760801b604482015290519081900360640190fd5b600060046000600360008c8c878181106122d857fe5b905060200201356001600160a01b03166001600160a01b03166001600160a01b0316815260200190815260200160002060020154815260200190815260200160002054905080831115612372576040805162461bcd60e51b815260206004820152601d60248201527f696e636f72726563746c79206f726465726564207475726e7320617272000000604482015290519081900360640190fd5b600086156123c557600360008b8b8681811061238a57fe5b905060200201356001600160a01b03166001600160a01b03166001600160a01b0316815260200190815260200160002060020154905061240c565b600360008b8b868181106123d557fe5b905060200201356001600160a01b03166001600160a01b03166001600160a01b031681526020019081526020016000206003015490505b8781141561245157600654929550859260018401141561242f5760009450612451565b89898460010181811061243e57fe5b905060200201356001600160a01b031694505b5050600101612218565b50505b94509492505050565b3390565b60065460009082146124c4576040805162461bcd60e51b815260206004820152601b60248201527f6875682067657420796f7572206c656e6774687320736f727465640000000000604482015290519081900360640190fd5b60018214156124d55750600061279f565b60036000848460008181106124e657fe5b905060200201356001600160a01b03166001600160a01b03166001600160a01b0316815260200190815260200160002060040160029054906101000a900460ff1615156001151514612572576040805162461bcd60e51b815260206004820152601060248201526f646f6e74206265206368656174696e6760801b604482015290519081900360640190fd5b600060046000600360008787600081811061258957fe5b905060200201356001600160a01b03166001600160a01b03166001600160a01b031681526020019081526020016000206002015481526020019081526020016000205490506000600190505b6006546000190181101561279c57600360008686848181106125f357fe5b905060200201356001600160a01b03166001600160a01b03166001600160a01b0316815260200190815260200160002060040160029054906101000a900460ff161515600115151461267f576040805162461bcd60e51b815260206004820152601060248201526f646f6e74206265206368656174696e6760801b604482015290519081900360640190fd5b6000600460006003600089898781811061269557fe5b905060200201356001600160a01b03166001600160a01b03166001600160a01b031681526020019081526020016000206002015481526020019081526020016000205490508083111561272f576040805162461bcd60e51b815260206004820152601d60248201527f696e636f72726563746c79206f726465726564207475726e7320617272000000604482015290519081900360640190fd5b3386868481811061273c57fe5b905060200201356001600160a01b03166001600160a01b03161415612793576006546001830114156127715760009350612793565b85858360010181811061278057fe5b905060200201356001600160a01b031693505b506001016125d5565b50505b92915050565b33600090815260036020526040812060028101541561280b576040805162461bcd60e51b815260206004820152601c60248201527f63616e742067656e6572617465206d6f7265207468616e206f6e636500000000604482015290519081900360640190fd5b600954604080516370a0823160e01b815230600482015290516001600160a01b037f000000000000000000000000000000000000000000000000000000000000000016916370a08231916024808301926020929190829003018186803b15801561287457600080fd5b505afa158015612888573d6000803e3d6000fd5b505050506040513d602081101561289e57600080fd5b505110156128e5576040805162461bcd60e51b815260206004820152600f60248201526e6e6f7420656e6f756768204c494e4b60881b604482015290519081900360640190fd5b6128f460085460095485612915565b60029091018190559050919050565b60009182526004602052604090912055565b60007f00000000000000000000000000000000000000000000000000000000000000006001600160a01b0316634000aea07f000000000000000000000000000000000000000000000000000000000000000085878660405160200180838152602001828152602001925050506040516020818303038152906040526040518463ffffffff1660e01b815260040180846001600160a01b0316815260200183815260200180602001828103825283818151815260200191508051906020019080838360005b838110156129f15781810151838201526020016129d9565b50505050905090810190601f168015612a1e5780820380516001836020036101000a031916815260200191505b50945050505050602060405180830381600087803b158015612a3f57600080fd5b505af1158015612a53573d6000803e3d6000fd5b505050506040513d6020811015612a6957600080fd5b5050600084815260016020526040812054612a8990869085903090612aca565b600086815260016020819052604090912054919250612aa89190612b11565b600086815260016020526040902055612ac18582612b72565b95945050505050565b60408051602080820196909652808201949094526001600160a01b039290921660608401526080808401919091528151808403909101815260a09092019052805191012090565b600082820183811015612b6b576040805162461bcd60e51b815260206004820152601b60248201527f536166654d6174683a206164646974696f6e206f766572666c6f770000000000604482015290519081900360640190fd5b9392505050565b60408051602080820194909452808201929092528051808303820181526060909201905280519101209056fe5265656e7472616e637947756172643a207265656e7472616e742063616c6c004f776e61626c653a206e6577206f776e657220697320746865207a65726f20616464726573736465706f73697420746865204e46547320776974682072654e46542066726f6e744f776e61626c653a2063616c6c6572206973206e6f7420746865206f776e6572a26469706673582212207df2ba2f83bf89bdd23476012201db38ae1b9e500c3e0d96519d7abda1f2236964736f6c634300060c0033",
  "linkReferences": {},
  "deployedLinkReferences": {}
}