{
  "_format": "hh-sol-artifact-1",
  "contractName": "WhiteElephant",
  "sourceName": "contracts/WhiteElephant.sol",
  "abi": [
    {
      "inputs": [],
      "stateMutability": "nonpayable",
      "type": "constructor"
    },
    {
      "anonymous": false,
      "inputs": [
        {
          "indexed": true,
          "internalType": "address",
          "name": "previousOwner",
          "type": "address"
        },
        {
          "indexed": true,
          "internalType": "address",
          "name": "newOwner",
          "type": "address"
        }
      ],
      "name": "OwnershipTransferred",
      "type": "event"
    },
    {
      "inputs": [
        {
          "internalType": "uint256",
          "name": "",
          "type": "uint256"
        }
      ],
      "name": "allNfts",
      "outputs": [
        {
          "internalType": "contract ERC721",
          "name": "nft",
          "type": "address"
        },
        {
          "internalType": "uint256",
          "name": "tokenId",
          "type": "uint256"
        }
      ],
      "stateMutability": "view",
      "type": "function"
    },
    {
      "inputs": [
        {
          "internalType": "uint256",
          "name": "_userProvidedSeed",
          "type": "uint256"
        }
      ],
      "name": "buyTicket",
      "outputs": [],
      "stateMutability": "payable",
      "type": "function"
    },
    {
      "inputs": [],
      "name": "christmasTimestamp",
      "outputs": [
        {
          "internalType": "uint256",
          "name": "",
          "type": "uint256"
        }
      ],
      "stateMutability": "view",
      "type": "function"
    },
    {
      "inputs": [],
      "name": "claimNft",
      "outputs": [],
      "stateMutability": "nonpayable",
      "type": "function"
    },
    {
      "inputs": [
        {
          "internalType": "contract ERC721",
          "name": "_nft",
          "type": "address"
        },
        {
          "internalType": "uint256",
          "name": "_tokenId",
          "type": "uint256"
        }
      ],
      "name": "depositNft",
      "outputs": [],
      "stateMutability": "nonpayable",
      "type": "function"
    },
    {
      "inputs": [],
      "name": "endEvent",
      "outputs": [],
      "stateMutability": "nonpayable",
      "type": "function"
    },
    {
      "inputs": [
        {
          "internalType": "bytes32",
          "name": "",
          "type": "bytes32"
        }
      ],
      "name": "entropy",
      "outputs": [
        {
          "internalType": "uint256",
          "name": "",
          "type": "uint256"
        }
      ],
      "stateMutability": "view",
      "type": "function"
    },
    {
      "inputs": [],
      "name": "eventEnded",
      "outputs": [
        {
          "internalType": "bool",
          "name": "",
          "type": "bool"
        }
      ],
      "stateMutability": "view",
      "type": "function"
    },
    {
      "inputs": [
        {
          "internalType": "address",
          "name": "_player",
          "type": "address"
        }
      ],
      "name": "getPlayerInfo",
      "outputs": [
        {
          "internalType": "address",
          "name": "nft",
          "type": "address"
        },
        {
          "internalType": "uint256",
          "name": "tokenId",
          "type": "uint256"
        },
        {
          "internalType": "bytes32",
          "name": "randomnessRequestId",
          "type": "bytes32"
        },
        {
          "internalType": "bytes32",
          "name": "stealerRequestId",
          "type": "bytes32"
        },
        {
          "internalType": "bool",
          "name": "hasTicket",
          "type": "bool"
        },
        {
          "internalType": "bool",
          "name": "wasStolenFrom",
          "type": "bool"
        },
        {
          "internalType": "bool",
          "name": "exists",
          "type": "bool"
        }
      ],
      "stateMutability": "view",
      "type": "function"
    },
    {
      "inputs": [
        {
          "internalType": "uint256",
          "name": "_number",
          "type": "uint256"
        }
      ],
      "name": "getPlayerNumber",
      "outputs": [
        {
          "internalType": "address",
          "name": "",
          "type": "address"
        }
      ],
      "stateMutability": "view",
      "type": "function"
    },
    {
      "inputs": [
        {
          "internalType": "bytes32",
          "name": "",
          "type": "bytes32"
        }
      ],
      "name": "nonces",
      "outputs": [
        {
          "internalType": "uint256",
          "name": "",
          "type": "uint256"
        }
      ],
      "stateMutability": "view",
      "type": "function"
    },
    {
      "inputs": [],
      "name": "numberOfPlayers",
      "outputs": [
        {
          "internalType": "uint256",
          "name": "",
          "type": "uint256"
        }
      ],
      "stateMutability": "view",
      "type": "function"
    },
    {
      "inputs": [
        {
          "internalType": "address",
          "name": "",
          "type": "address"
        },
        {
          "internalType": "address",
          "name": "",
          "type": "address"
        },
        {
          "internalType": "uint256",
          "name": "",
          "type": "uint256"
        },
        {
          "internalType": "bytes",
          "name": "",
          "type": "bytes"
        }
      ],
      "name": "onERC721Received",
      "outputs": [
        {
          "internalType": "bytes4",
          "name": "",
          "type": "bytes4"
        }
      ],
      "stateMutability": "nonpayable",
      "type": "function"
    },
    {
      "inputs": [],
      "name": "owner",
      "outputs": [
        {
          "internalType": "address",
          "name": "",
          "type": "address"
        }
      ],
      "stateMutability": "view",
      "type": "function"
    },
    {
      "inputs": [
        {
          "internalType": "uint256",
          "name": "",
          "type": "uint256"
        }
      ],
      "name": "players",
      "outputs": [
        {
          "internalType": "address",
          "name": "",
          "type": "address"
        }
      ],
      "stateMutability": "view",
      "type": "function"
    },
    {
      "inputs": [],
      "name": "playersTurn",
      "outputs": [
        {
          "internalType": "address",
          "name": "",
          "type": "address"
        }
      ],
      "stateMutability": "view",
      "type": "function"
    },
    {
      "inputs": [
        {
          "internalType": "bytes32",
          "name": "requestId",
          "type": "bytes32"
        },
        {
          "internalType": "uint256",
          "name": "randomness",
          "type": "uint256"
        }
      ],
      "name": "rawFulfillRandomness",
      "outputs": [],
      "stateMutability": "nonpayable",
      "type": "function"
    },
    {
      "inputs": [],
      "name": "renounceOwnership",
      "outputs": [],
      "stateMutability": "nonpayable",
      "type": "function"
    },
    {
      "inputs": [
        {
          "internalType": "uint256",
          "name": "_value",
          "type": "uint256"
        }
      ],
      "name": "setTicketPrice",
      "outputs": [],
      "stateMutability": "nonpayable",
      "type": "function"
    },
    {
      "inputs": [
        {
          "internalType": "address",
          "name": "_theirAddress",
          "type": "address"
        },
        {
          "internalType": "address[]",
          "name": "_order",
          "type": "address[]"
        },
        {
          "internalType": "address[]",
          "name": "redro_",
          "type": "address[]"
        }
      ],
      "name": "stealNft",
      "outputs": [],
      "stateMutability": "nonpayable",
      "type": "function"
    },
    {
      "inputs": [],
      "name": "ticketPrice",
      "outputs": [
        {
          "internalType": "uint256",
          "name": "",
          "type": "uint256"
        }
      ],
      "stateMutability": "view",
      "type": "function"
    },
    {
      "inputs": [
        {
          "internalType": "address",
          "name": "newOwner",
          "type": "address"
        }
      ],
      "name": "transferOwnership",
      "outputs": [],
      "stateMutability": "nonpayable",
      "type": "function"
    },
    {
      "inputs": [
        {
          "internalType": "address[]",
          "name": "order",
          "type": "address[]"
        },
        {
          "internalType": "address[]",
          "name": "redro",
          "type": "address[]"
        }
      ],
      "name": "unwrap",
      "outputs": [],
      "stateMutability": "nonpayable",
      "type": "function"
    },
    {
      "inputs": [
        {
          "internalType": "address[]",
          "name": "_order",
          "type": "address[]"
        }
      ],
      "name": "unwrapAfterSteal",
      "outputs": [],
      "stateMutability": "nonpayable",
      "type": "function"
    },
    {
      "inputs": [
        {
          "internalType": "address",
          "name": "erc20",
          "type": "address"
        }
      ],
      "name": "withdrawERC20",
      "outputs": [],
      "stateMutability": "nonpayable",
      "type": "function"
    },
    {
      "inputs": [
        {
          "internalType": "address",
          "name": "nft",
          "type": "address"
        },
        {
          "internalType": "uint256",
          "name": "tokenId",
          "type": "uint256"
        }
      ],
      "name": "withdrawERC721",
      "outputs": [],
      "stateMutability": "nonpayable",
      "type": "function"
    },
    {
      "inputs": [],
      "name": "withdrawEth",
      "outputs": [],
      "stateMutability": "nonpayable",
      "type": "function"
    }
  ],
  "bytecode": "0x60c060405266038d7ea4c68000600555600a805460ff191660019081179091556078600b55600c819055600d5534801561003857600080fd5b5073dd3782915140c8f3b190b5d67eac6dc5760c46e973a36085f69e2889c224210f603d836748e7dc0088600061006d61010a565b600080546001600160a01b0319166001600160a01b0383169081178255604051929350917f8be0079c531659141344cd1fd0a4f28419497f9722a3daafe3b4186f6b6457e0908290a3506001600160601b0319606092831b811660a052911b1660805260016002557f6c3699283bda56ad74f6b855546325b68d482e983852a7a82979cc4807b641f460085567016345785d8a000060095561010e565b3390565b60805160601c60a05160601c6127bc610141600039806115ba52806124a952508061238f528061247a52506127bc6000f3fe60806040526004361061019c5760003560e01c80638b5c218f116100ec578063c03a83ac1161008a578063f3e414f811610064578063f3e414f8146107c6578063f4f3b200146107ff578063f57e63e214610832578063f71d96cb1461085b5761019c565b8063c03a83ac14610731578063c529de6514610746578063f2fde38b146107935761019c565b80639e317f12116100c65780639e317f121461068f5780639fce6fb5146106b9578063a0ef91df146106e3578063a72e2cd6146106f85761019c565b80638b5c218f1461057f5780638da5cb5b1461064a57806394985ddd1461065f5761019c565b8063593284011161015957806367dd74ca1161013357806367dd74ca146105235780636f4bda1714610540578063715018a61461055557806386ec61771461056a5761019c565b806359328401146103b85780635ae2afa4146104335780635cfa8c50146104485761019c565b806306880689146101a157806308cade1b146101d25780631209b1f61461024f578063150b7a02146102765780631598165014610364578063523ed4401461038e575b600080fd5b3480156101ad57600080fd5b506101b6610885565b604080516001600160a01b039092168252519081900360200190f35b3480156101de57600080fd5b5061024d600480360360208110156101f557600080fd5b810190602081018135600160201b81111561020f57600080fd5b82018360208201111561022157600080fd5b803590602001918460208302840111600160201b8311171561024257600080fd5b509092509050610899565b005b34801561025b57600080fd5b50610264610a27565b60408051918252519081900360200190f35b34801561028257600080fd5b506103476004803603608081101561029957600080fd5b6001600160a01b03823581169260208101359091169160408201359190810190608081016060820135600160201b8111156102d357600080fd5b8201836020820111156102e557600080fd5b803590602001918460018302840111600160201b8311171561030657600080fd5b91908080601f016020809104026020016040519081016040528093929190818152602001838380828437600092019190915250929550610a2d945050505050565b604080516001600160e01b03199092168252519081900360200190f35b34801561037057600080fd5b5061024d6004803603602081101561038757600080fd5b5035610a66565b34801561039a57600080fd5b50610264600480360360208110156103b157600080fd5b5035610ac3565b3480156103c457600080fd5b506103eb600480360360208110156103db57600080fd5b50356001600160a01b0316610ad5565b604080516001600160a01b039098168852602088019690965286860194909452606086019290925215156080850152151560a0840152151560c0830152519081900360e00190f35b34801561043f57600080fd5b5061024d610b2f565b34801561045457600080fd5b5061024d6004803603606081101561046b57600080fd5b6001600160a01b038235169190810190604081016020820135600160201b81111561049557600080fd5b8201836020820111156104a757600080fd5b803590602001918460208302840111600160201b831117156104c857600080fd5b919390929091602081019035600160201b8111156104e557600080fd5b8201836020820111156104f757600080fd5b803590602001918460208302840111600160201b8311171561051857600080fd5b509092509050610cb4565b61024d6004803603602081101561053957600080fd5b5035611036565b34801561054c57600080fd5b506102646111ee565b34801561056157600080fd5b5061024d6111f4565b34801561057657600080fd5b5061024d611296565b34801561058b57600080fd5b5061024d600480360360408110156105a257600080fd5b810190602081018135600160201b8111156105bc57600080fd5b8201836020820111156105ce57600080fd5b803590602001918460208302840111600160201b831117156105ef57600080fd5b919390929091602081019035600160201b81111561060c57600080fd5b82018360208201111561061e57600080fd5b803590602001918460208302840111600160201b8311171561063f57600080fd5b5090925090506112fd565b34801561065657600080fd5b506101b66115a0565b34801561066b57600080fd5b5061024d6004803603604081101561068257600080fd5b50803590602001356115af565b34801561069b57600080fd5b50610264600480360360208110156106b257600080fd5b503561163a565b3480156106c557600080fd5b506101b6600480360360208110156106dc57600080fd5b503561164c565b3480156106ef57600080fd5b5061024d611676565b34801561070457600080fd5b5061024d6004803603604081101561071b57600080fd5b506001600160a01b0381351690602001356116fd565b34801561073d57600080fd5b506102646117fe565b34801561075257600080fd5b506107706004803603602081101561076957600080fd5b5035611804565b604080516001600160a01b03909316835260208301919091528051918290030190f35b34801561079f57600080fd5b5061024d600480360360208110156107b657600080fd5b50356001600160a01b0316611839565b3480156107d257600080fd5b5061024d600480360360408110156107e957600080fd5b506001600160a01b038135169060200135611931565b34801561080b57600080fd5b5061024d6004803603602081101561082257600080fd5b50356001600160a01b03166119f9565b34801561083e57600080fd5b50610847611bda565b604080519115158252519081900360200190f35b34801561086757600080fd5b506101b66004803603602081101561087e57600080fd5b5035611be3565b600a5461010090046001600160a01b031681565b6002805414156108de576040805162461bcd60e51b815260206004820152601f6024820152600080516020612700833981519152604482015290519081900360640190fd5b60028055600c54421015610930576040805162461bcd60e51b81526020600482015260146024820152731dd85a5d08199bdc88195d995b9d081cdd185c9d60621b604482015290519081900360640190fd5b336000908152600360205260409020600481015462010000900460ff16151560011461095b57600080fd5b60048101546301000000900460ff16151560011461097857600080fd5b600381015461098657600080fd5b80546001600160a01b03161561099b57600080fd5b60006109ae848484600301546001611c0a565b509050600781815481106109be57fe5b600091825260209091206002909102015482546001600160a01b0319166001600160a01b0390911617825560078054829081106109f757fe5b90600052602060002090600202016001015482600101819055508160030160009055505060016002819055505050565b60055481565b600060405162461bcd60e51b81526004018080602001828103825260218152602001806127466021913960400191505060405180910390fd5b610a6e611fc8565b6000546001600160a01b03908116911614610abe576040805162461bcd60e51b81526020600482018190526024820152600080516020612767833981519152604482015290519081900360640190fd5b600555565b60046020526000908152604090205481565b6001600160a01b03908116600090815260036020819052604090912080546001820154600283015493830154600490930154919094169460ff62010000830481169263010000008104821692600160201b90910490911690565b600e5460ff16610b86576040805162461bcd60e51b815260206004820152601d60248201527f746865206576656e74206973206e6f742066696e697368656420796574000000604482015290519081900360640190fd5b33600090815260036020526040902080546001600160a01b0316610be4576040805162461bcd60e51b815260206004820152601060248201526f6e6f7468696e6720746f20636c61696d60801b604482015290519081900360640190fd5b600481015462010000900460ff16610c3c576040805162461bcd60e51b81526020600482015260166024820152751e5bdd48191bdb9d081a185d994818481d1a58dad95d60521b604482015290519081900360640190fd5b80546001820154604080516323b872dd60e01b81523060048201523360248201526044810192909252516001600160a01b03909216916323b872dd9160648082019260009290919082900301818387803b158015610c9957600080fd5b505af1158015610cad573d6000803e3d6000fd5b5050505050565b600280541415610cf9576040805162461bcd60e51b815260206004820152601f6024820152600080516020612700833981519152604482015290519081900360640190fd5b60028055600c54421015610d4b576040805162461bcd60e51b81526020600482015260146024820152731dd85a5d08199bdc88195d995b9d081cdd185c9d60621b604482015290519081900360640190fd5b336000908152600360205260408082206001600160a01b038816835291206004810154600160201b900460ff161515600114610d8657600080fd5b60048101546301000000900460ff1615610de7576040805162461bcd60e51b815260206004820152601a60248201527f63616e7420737465616c2066726f6d207468656d20616761696e000000000000604482015290519081900360640190fd5b6002808201546000908152600460205260408082205492850154825290205411610e4f576040805162461bcd60e51b815260206004820152601460248201527363616e7420737465616c2066726f6d207468656d60601b604482015290519081900360640190fd5b6000610e5b8787611fcc565b600b54600d549192500142600182821115610f4b575b82821115610e8957600b549290920191600101610e71565b81831115610e9657600019015b60008060005b600654811015610f145783610ece578a8a82818110610eb757fe5b905060200201356001600160a01b03169150610f14565b8215610edb576001840393505b338b8b83818110610ee857fe5b905060200201356001600160a01b03166001600160a01b03161415610f0c57600192505b600101610e9c565b50600a546001600160a01b03828116610100909204161415610f4857600a8054610100600160a81b03191633610100021790555b50505b600a5461010090046001600160a01b03163314610f9f576040805162461bcd60e51b815260206004820152600d60248201526c3737ba103cb7bab9103a3ab93760991b604482015290519081900360640190fd5b5050506001600160a01b0397881660009081526003602081905260408220805486546001600160a01b0319908116918d169190911787556001918201548783015560048601805463ff000000191663010000001790556002968701805493870193909355855416855593840182905555600a80549190981661010002610100600160a81b0319909116179096559490945550505050565b60028054141561107b576040805162461bcd60e51b815260206004820152601f6024820152600080516020612700833981519152604482015290519081900360640190fd5b600280556005543410156110d6576040805162461bcd60e51b815260206004820181905260248201527f796f75206172652073656e64696e6720696e636f727265637420616d6f756e74604482015290519081900360640190fd5b33600090815260036020526040902060040154600160201b900460ff1615611145576040805162461bcd60e51b815260206004820152601b60248201527f6f6e6c79206f6e65207469636b65742070657220616464726573730000000000604482015290519081900360640190fd5b61114e81612306565b50336000818152600360205260408120600401805464ff000000001962ff000019909116620100001716600160201b1790556006805460018101825591527ff652222313e28459528d920b65115c16c04f3efc82aaedc97be59f3f377c0d3f0180546001600160a01b0319169091179055600a5460ff16156111e657600a8054610100600160a81b03191633610100021760ff191690555b506001600255565b60065490565b6111fc611fc8565b6000546001600160a01b0390811691161461124c576040805162461bcd60e51b81526020600482018190526024820152600080516020612767833981519152604482015290519081900360640190fd5b600080546040516001600160a01b03909116907f8be0079c531659141344cd1fd0a4f28419497f9722a3daafe3b4186f6b6457e0908390a3600080546001600160a01b0319169055565b61129e611fc8565b6000546001600160a01b039081169116146112ee576040805162461bcd60e51b81526020600482018190526024820152600080516020612767833981519152604482015290519081900360640190fd5b600e805460ff19166001179055565b600280541415611342576040805162461bcd60e51b815260206004820152601f6024820152600080516020612700833981519152604482015290519081900360640190fd5b60028055600c54421015611394576040805162461bcd60e51b81526020600482015260146024820152731dd85a5d08199bdc88195d995b9d081cdd185c9d60621b604482015290519081900360640190fd5b336000908152600360205260408120600281015490919081906113bb908890889084611c0a565b600b54600d5492945090925001426001828211156114ae575b828211156113ec57600b5492909201916001016113d4565b818311156113f957600019015b60008060005b6006548110156114775783611431578a8a8281811061141a57fe5b905060200201356001600160a01b03169150611477565b821561143e576001840393505b338b8b8381811061144b57fe5b905060200201356001600160a01b03166001600160a01b0316141561146f57600192505b6001016113ff565b50600a546001600160a01b038281166101009092041614156114ab57600a8054610100600160a81b03191633610100021790555b50505b600a5461010090046001600160a01b03163314611502576040805162461bcd60e51b815260206004820152600d60248201526c3737ba103cb7bab9103a3ab93760991b604482015290519081900360640190fd5b6007858154811061150f57fe5b600091825260209091206002909102015486546001600160a01b0319166001600160a01b03909116178655600780548690811061154857fe5b600091825260208220600160029283029091018101548982015597810191909155600a80546001600160a01b0390961661010002610100600160a81b03199096169590951790945550600d5550919091555050505050565b6000546001600160a01b031690565b336001600160a01b037f0000000000000000000000000000000000000000000000000000000000000000161461162c576040805162461bcd60e51b815260206004820152601f60248201527f4f6e6c7920565246436f6f7264696e61746f722063616e2066756c66696c6c00604482015290519081900360640190fd5b6116368282612464565b5050565b60016020526000908152604090205481565b60006006828154811061165b57fe5b6000918252602090912001546001600160a01b031692915050565b61167e611fc8565b6000546001600160a01b039081169116146116ce576040805162461bcd60e51b81526020600482018190526024820152600080516020612767833981519152604482015290519081900360640190fd5b60405133904780156108fc02916000818181858888f193505050501580156116fa573d6000803e3d6000fd5b50565b604080516323b872dd60e01b81523360048201523060248201526044810183905290516001600160a01b038416916323b872dd91606480830192600092919082900301818387803b15801561175157600080fd5b505af1158015611765573d6000803e3d6000fd5b5050604080518082019091526001600160a01b039485168152602081019384526007805460018101825560009190915290517fa66cc928b5edb82af9bd49922954155ab7b0942694bea4ce44661d9a8736c688600290920291820180546001600160a01b03191691909616179094555050517fa66cc928b5edb82af9bd49922954155ab7b0942694bea4ce44661d9a8736c68990910155565b600c5481565b6007818154811061181157fe5b6000918252602090912060029091020180546001909101546001600160a01b03909116915082565b611841611fc8565b6000546001600160a01b03908116911614611891576040805162461bcd60e51b81526020600482018190526024820152600080516020612767833981519152604482015290519081900360640190fd5b6001600160a01b0381166118d65760405162461bcd60e51b81526004018080602001828103825260268152602001806127206026913960400191505060405180910390fd5b600080546040516001600160a01b03808516939216917f8be0079c531659141344cd1fd0a4f28419497f9722a3daafe3b4186f6b6457e091a3600080546001600160a01b0319166001600160a01b0392909216919091179055565b611939611fc8565b6000546001600160a01b03908116911614611989576040805162461bcd60e51b81526020600482018190526024820152600080516020612767833981519152604482015290519081900360640190fd5b604080516323b872dd60e01b81523060048201523360248201526044810183905290516001600160a01b038416916323b872dd91606480830192600092919082900301818387803b1580156119dd57600080fd5b505af11580156119f1573d6000803e3d6000fd5b505050505050565b611a01611fc8565b6000546001600160a01b03908116911614611a51576040805162461bcd60e51b81526020600482018190526024820152600080516020612767833981519152604482015290519081900360640190fd5b6040805163095ea7b360e01b81523360048201526f0fffffffffffffffffffffffffffffff6024820152905182916001600160a01b0383169163095ea7b3916044808201926020929091908290030181600087803b158015611ab257600080fd5b505af1158015611ac6573d6000803e3d6000fd5b505050506040513d6020811015611adc57600080fd5b5050604080516370a0823160e01b815230600482015290516001600160a01b0383169163a9059cbb91339184916370a0823191602480820192602092909190829003018186803b158015611b2f57600080fd5b505afa158015611b43573d6000803e3d6000fd5b505050506040513d6020811015611b5957600080fd5b5051604080516001600160e01b031960e086901b1681526001600160a01b03909316600484015260248301919091525160448083019260209291908290030181600087803b158015611baa57600080fd5b505af1158015611bbe573d6000803e3d6000fd5b505050506040513d6020811015611bd457600080fd5b50505050565b600e5460ff1681565b60068181548110611bf057fe5b6000918252602090912001546001600160a01b0316905081565b60065460009081908514611c65576040805162461bcd60e51b815260206004820152601b60248201527f6875682067657420796f7572206c656e6774687320736f727465640000000000604482015290519081900360640190fd5b6001851415611c7957506000905080611fbf565b6003600087876000818110611c8a57fe5b905060200201356001600160a01b03166001600160a01b03166001600160a01b0316815260200190815260200160002060040160029054906101000a900460ff1615156001151514611d16576040805162461bcd60e51b815260206004820152601060248201526f646f6e74206265206368656174696e6760801b604482015290519081900360640190fd5b600060046000600360008a8a6000818110611d2d57fe5b905060200201356001600160a01b03166001600160a01b03166001600160a01b031681526020019081526020016000206002015481526020019081526020016000205490506000600190505b60065460001901811015611fbc5760036000898984818110611d9757fe5b905060200201356001600160a01b03166001600160a01b03166001600160a01b0316815260200190815260200160002060040160029054906101000a900460ff1615156001151514611e23576040805162461bcd60e51b815260206004820152601060248201526f646f6e74206265206368656174696e6760801b604482015290519081900360640190fd5b600060046000600360008c8c87818110611e3957fe5b905060200201356001600160a01b03166001600160a01b03166001600160a01b0316815260200190815260200160002060020154815260200190815260200160002054905080831115611ed3576040805162461bcd60e51b815260206004820152601d60248201527f696e636f72726563746c79206f726465726564207475726e7320617272000000604482015290519081900360640190fd5b60008615611f2657600360008b8b86818110611eeb57fe5b905060200201356001600160a01b03166001600160a01b03166001600160a01b03168152602001908152602001600020600201549050611f6d565b600360008b8b86818110611f3657fe5b905060200201356001600160a01b03166001600160a01b03166001600160a01b031681526020019081526020016000206003015490505b87811415611fb2576006549295508592600184011415611f905760009450611fb2565b898984600101818110611f9f57fe5b905060200201356001600160a01b031694505b5050600101611d79565b50505b94509492505050565b3390565b6006546000908214612025576040805162461bcd60e51b815260206004820152601b60248201527f6875682067657420796f7572206c656e6774687320736f727465640000000000604482015290519081900360640190fd5b600182141561203657506000612300565b600360008484600081811061204757fe5b905060200201356001600160a01b03166001600160a01b03166001600160a01b0316815260200190815260200160002060040160029054906101000a900460ff16151560011515146120d3576040805162461bcd60e51b815260206004820152601060248201526f646f6e74206265206368656174696e6760801b604482015290519081900360640190fd5b60006004600060036000878760008181106120ea57fe5b905060200201356001600160a01b03166001600160a01b03166001600160a01b031681526020019081526020016000206002015481526020019081526020016000205490506000600190505b600654600019018110156122fd576003600086868481811061215457fe5b905060200201356001600160a01b03166001600160a01b03166001600160a01b0316815260200190815260200160002060040160029054906101000a900460ff16151560011515146121e0576040805162461bcd60e51b815260206004820152601060248201526f646f6e74206265206368656174696e6760801b604482015290519081900360640190fd5b600060046000600360008989878181106121f657fe5b905060200201356001600160a01b03166001600160a01b03166001600160a01b0316815260200190815260200160002060020154815260200190815260200160002054905080831115612290576040805162461bcd60e51b815260206004820152601d60248201527f696e636f72726563746c79206f726465726564207475726e7320617272000000604482015290519081900360640190fd5b3386868481811061229d57fe5b905060200201356001600160a01b03166001600160a01b031614156122f4576006546001830114156122d257600093506122f4565b8585836001018181106122e157fe5b905060200201356001600160a01b031693505b50600101612136565b50505b92915050565b33600090815260036020526040812060028101541561236c576040805162461bcd60e51b815260206004820152601c60248201527f63616e742067656e6572617465206d6f7265207468616e206f6e636500000000604482015290519081900360640190fd5b600954604080516370a0823160e01b815230600482015290516001600160a01b037f000000000000000000000000000000000000000000000000000000000000000016916370a08231916024808301926020929190829003018186803b1580156123d557600080fd5b505afa1580156123e9573d6000803e3d6000fd5b505050506040513d60208110156123ff57600080fd5b50511015612446576040805162461bcd60e51b815260206004820152600f60248201526e6e6f7420656e6f756768204c494e4b60881b604482015290519081900360640190fd5b61245560085460095485612476565b60029091018190559050919050565b60009182526004602052604090912055565b60007f00000000000000000000000000000000000000000000000000000000000000006001600160a01b0316634000aea07f000000000000000000000000000000000000000000000000000000000000000085878660405160200180838152602001828152602001925050506040516020818303038152906040526040518463ffffffff1660e01b815260040180846001600160a01b0316815260200183815260200180602001828103825283818151815260200191508051906020019080838360005b8381101561255257818101518382015260200161253a565b50505050905090810190601f16801561257f5780820380516001836020036101000a031916815260200191505b50945050505050602060405180830381600087803b1580156125a057600080fd5b505af11580156125b4573d6000803e3d6000fd5b505050506040513d60208110156125ca57600080fd5b50506000848152600160205260408120546125ea9086908590309061262b565b6000868152600160208190526040909120549192506126099190612672565b60008681526001602052604090205561262285826126d3565b95945050505050565b60408051602080820196909652808201949094526001600160a01b039290921660608401526080808401919091528151808403909101815260a09092019052805191012090565b6000828201838110156126cc576040805162461bcd60e51b815260206004820152601b60248201527f536166654d6174683a206164646974696f6e206f766572666c6f770000000000604482015290519081900360640190fd5b9392505050565b60408051602080820194909452808201929092528051808303820181526060909201905280519101209056fe5265656e7472616e637947756172643a207265656e7472616e742063616c6c004f776e61626c653a206e6577206f776e657220697320746865207a65726f20616464726573736465706f73697420746865204e46547320776974682072654e46542066726f6e744f776e61626c653a2063616c6c6572206973206e6f7420746865206f776e6572a264697066735822122007d9fed979880eccf509f0903ae02fd87219a29b1a6c800ccd926da5645bc97c64736f6c634300060c0033",
  "linkReferences": {},
  "deployedLinkReferences": {}
}