{
  "_format": "hh-sol-artifact-1",
  "contractName": "WhiteElephant",
  "sourceName": "contracts/WhiteElephant.sol",
  "abi": [
    {
      "inputs": [],
      "stateMutability": "nonpayable",
      "type": "constructor"
    },
    {
      "anonymous": false,
      "inputs": [
        {
          "indexed": true,
          "internalType": "address",
          "name": "previousOwner",
          "type": "address"
        },
        {
          "indexed": true,
          "internalType": "address",
          "name": "newOwner",
          "type": "address"
        }
      ],
      "name": "OwnershipTransferred",
      "type": "event"
    },
    {
      "inputs": [
        {
          "internalType": "uint256",
          "name": "",
          "type": "uint256"
        }
      ],
      "name": "allNfts",
      "outputs": [
        {
          "internalType": "contract ERC721",
          "name": "nft",
          "type": "address"
        },
        {
          "internalType": "uint256",
          "name": "tokenId",
          "type": "uint256"
        }
      ],
      "stateMutability": "view",
      "type": "function"
    },
    {
      "inputs": [
        {
          "internalType": "uint256",
          "name": "_userProvidedSeed",
          "type": "uint256"
        }
      ],
      "name": "buyTicket",
      "outputs": [],
      "stateMutability": "payable",
      "type": "function"
    },
    {
      "inputs": [],
      "name": "currNftToUnwrap",
      "outputs": [
        {
          "internalType": "uint16",
          "name": "",
          "type": "uint16"
        }
      ],
      "stateMutability": "view",
      "type": "function"
    },
    {
      "inputs": [
        {
          "internalType": "contract ERC721",
          "name": "_nft",
          "type": "address"
        },
        {
          "internalType": "uint256",
          "name": "_tokenId",
          "type": "uint256"
        }
      ],
      "name": "depositNft",
      "outputs": [],
      "stateMutability": "nonpayable",
      "type": "function"
    },
    {
      "inputs": [],
      "name": "endEvent",
      "outputs": [],
      "stateMutability": "nonpayable",
      "type": "function"
    },
    {
      "inputs": [
        {
          "internalType": "bytes32",
          "name": "",
          "type": "bytes32"
        }
      ],
      "name": "entropy",
      "outputs": [
        {
          "internalType": "uint256",
          "name": "",
          "type": "uint256"
        }
      ],
      "stateMutability": "view",
      "type": "function"
    },
    {
      "inputs": [
        {
          "internalType": "address",
          "name": "_player",
          "type": "address"
        }
      ],
      "name": "getPlayerInfo",
      "outputs": [
        {
          "internalType": "address",
          "name": "nft",
          "type": "address"
        },
        {
          "internalType": "uint256",
          "name": "tokenId",
          "type": "uint256"
        },
        {
          "internalType": "uint16",
          "name": "orderNumber",
          "type": "uint16"
        },
        {
          "internalType": "bool",
          "name": "hasTicket",
          "type": "bool"
        },
        {
          "internalType": "bool",
          "name": "wasStolenFrom",
          "type": "bool"
        },
        {
          "internalType": "bool",
          "name": "exists",
          "type": "bool"
        }
      ],
      "stateMutability": "view",
      "type": "function"
    },
    {
      "inputs": [
        {
          "internalType": "uint256",
          "name": "_number",
          "type": "uint256"
        }
      ],
      "name": "getPlayerNumber",
      "outputs": [
        {
          "internalType": "address",
          "name": "",
          "type": "address"
        }
      ],
      "stateMutability": "view",
      "type": "function"
    },
    {
      "inputs": [],
      "name": "myNftAddress",
      "outputs": [
        {
          "internalType": "address",
          "name": "",
          "type": "address"
        }
      ],
      "stateMutability": "view",
      "type": "function"
    },
    {
      "inputs": [],
      "name": "myOrderNum",
      "outputs": [
        {
          "internalType": "uint16",
          "name": "",
          "type": "uint16"
        }
      ],
      "stateMutability": "view",
      "type": "function"
    },
    {
      "inputs": [],
      "name": "myStolenFrom",
      "outputs": [
        {
          "internalType": "bool",
          "name": "",
          "type": "bool"
        }
      ],
      "stateMutability": "view",
      "type": "function"
    },
    {
      "inputs": [],
      "name": "myTicket",
      "outputs": [
        {
          "internalType": "bool",
          "name": "",
          "type": "bool"
        }
      ],
      "stateMutability": "view",
      "type": "function"
    },
    {
      "inputs": [],
      "name": "myTokenId",
      "outputs": [
        {
          "internalType": "uint256",
          "name": "",
          "type": "uint256"
        }
      ],
      "stateMutability": "view",
      "type": "function"
    },
    {
      "inputs": [
        {
          "internalType": "bytes32",
          "name": "",
          "type": "bytes32"
        }
      ],
      "name": "nonces",
      "outputs": [
        {
          "internalType": "uint256",
          "name": "",
          "type": "uint256"
        }
      ],
      "stateMutability": "view",
      "type": "function"
    },
    {
      "inputs": [],
      "name": "numberOfPlayers",
      "outputs": [
        {
          "internalType": "uint256",
          "name": "",
          "type": "uint256"
        }
      ],
      "stateMutability": "view",
      "type": "function"
    },
    {
      "inputs": [
        {
          "internalType": "address",
          "name": "",
          "type": "address"
        },
        {
          "internalType": "address",
          "name": "",
          "type": "address"
        },
        {
          "internalType": "uint256",
          "name": "",
          "type": "uint256"
        },
        {
          "internalType": "bytes",
          "name": "",
          "type": "bytes"
        }
      ],
      "name": "onERC721Received",
      "outputs": [
        {
          "internalType": "bytes4",
          "name": "",
          "type": "bytes4"
        }
      ],
      "stateMutability": "nonpayable",
      "type": "function"
    },
    {
      "inputs": [],
      "name": "orderNum",
      "outputs": [
        {
          "internalType": "uint16",
          "name": "",
          "type": "uint16"
        }
      ],
      "stateMutability": "view",
      "type": "function"
    },
    {
      "inputs": [],
      "name": "owner",
      "outputs": [
        {
          "internalType": "address",
          "name": "",
          "type": "address"
        }
      ],
      "stateMutability": "view",
      "type": "function"
    },
    {
      "inputs": [
        {
          "internalType": "uint256",
          "name": "",
          "type": "uint256"
        }
      ],
      "name": "players",
      "outputs": [
        {
          "internalType": "address",
          "name": "",
          "type": "address"
        }
      ],
      "stateMutability": "view",
      "type": "function"
    },
    {
      "inputs": [],
      "name": "playersTurn",
      "outputs": [
        {
          "internalType": "address",
          "name": "",
          "type": "address"
        }
      ],
      "stateMutability": "view",
      "type": "function"
    },
    {
      "inputs": [
        {
          "internalType": "bytes32",
          "name": "requestId",
          "type": "bytes32"
        },
        {
          "internalType": "uint256",
          "name": "randomness",
          "type": "uint256"
        }
      ],
      "name": "rawFulfillRandomness",
      "outputs": [],
      "stateMutability": "nonpayable",
      "type": "function"
    },
    {
      "inputs": [],
      "name": "renounceOwnership",
      "outputs": [],
      "stateMutability": "nonpayable",
      "type": "function"
    },
    {
      "inputs": [
        {
          "internalType": "uint256",
          "name": "_value",
          "type": "uint256"
        }
      ],
      "name": "setTicketPrice",
      "outputs": [],
      "stateMutability": "nonpayable",
      "type": "function"
    },
    {
      "inputs": [
        {
          "internalType": "address",
          "name": "_theirAddress",
          "type": "address"
        },
        {
          "internalType": "address[]",
          "name": "_order",
          "type": "address[]"
        }
      ],
      "name": "stealNft",
      "outputs": [],
      "stateMutability": "nonpayable",
      "type": "function"
    },
    {
      "inputs": [],
      "name": "ticketPrice",
      "outputs": [
        {
          "internalType": "uint256",
          "name": "",
          "type": "uint256"
        }
      ],
      "stateMutability": "view",
      "type": "function"
    },
    {
      "inputs": [
        {
          "internalType": "address",
          "name": "newOwner",
          "type": "address"
        }
      ],
      "name": "transferOwnership",
      "outputs": [],
      "stateMutability": "nonpayable",
      "type": "function"
    },
    {
      "inputs": [
        {
          "internalType": "address[]",
          "name": "order",
          "type": "address[]"
        }
      ],
      "name": "unwrap",
      "outputs": [],
      "stateMutability": "nonpayable",
      "type": "function"
    },
    {
      "inputs": [
        {
          "internalType": "address[]",
          "name": "_order",
          "type": "address[]"
        }
      ],
      "name": "unwrapAfterSteal",
      "outputs": [],
      "stateMutability": "nonpayable",
      "type": "function"
    }
  ],
  "bytecode": "0x60c060405260048054600161ffff19909116811763ffff0000191690915567016345785d8a0000600555600c5534801561003857600080fd5b5073dd3782915140c8f3b190b5d67eac6dc5760c46e973a36085f69e2889c224210f603d836748e7dc0088600061006d61010a565b600080546001600160a01b0319166001600160a01b0383169081178255604051929350917f8be0079c531659141344cd1fd0a4f28419497f9722a3daafe3b4186f6b6457e0908290a3506001600160601b0319606092831b811660a052911b1660805260016002557f6c3699283bda56ad74f6b855546325b68d482e983852a7a82979cc4807b641f460085567016345785d8a000060095561010e565b3390565b60805160601c60a05160601c6122596101416000398061125a5280611f66525080611e4c5280611f3752506122596000f3fe6080604052600436106101b75760003560e01c806394985ddd116100ec578063c529de651161008a578063f2fde38b11610064578063f2fde38b1461075f578063f5d9bce414610792578063f71d96cb146107a7578063f8e4f978146107d1576101b7565b8063c529de65146106e8578063e8daf95614610735578063f0178c831461074a576101b7565b80639e317f12116100c65780639e317f12146106465780639fce6fb514610670578063a72e2cd61461069a578063c3b1cd89146106d3576101b7565b806394985ddd146105c15780639542d146146105f15780639d78c8341461061a576101b7565b80635932840111610159578063715018a611610133578063715018a614610507578063803d81781461051c57806386ec6177146105975780638da5cb5b146105ac576101b7565b8063593284011461045e57806367dd74ca146104d55780636f4bda17146104f2576101b7565b8063150b7a0211610195578063150b7a0214610291578063159816501461037f5780633d18c920146103a9578063523ed44014610434576101b7565b806306880689146101bc57806308cade1b146101ed5780631209b1f61461026a575b600080fd5b3480156101c857600080fd5b506101d16107e6565b604080516001600160a01b039092168252519081900360200190f35b3480156101f957600080fd5b506102686004803603602081101561021057600080fd5b810190602081018135600160201b81111561022a57600080fd5b82018360208201111561023c57600080fd5b803590602001918460208302840111600160201b8311171561025d57600080fd5b5090925090506107f5565b005b34801561027657600080fd5b5061027f610981565b60408051918252519081900360200190f35b34801561029d57600080fd5b50610362600480360360808110156102b457600080fd5b6001600160a01b03823581169260208101359091169160408201359190810190608081016060820135600160201b8111156102ee57600080fd5b82018360208201111561030057600080fd5b803590602001918460018302840111600160201b8311171561032157600080fd5b91908080601f016020809104026020016040519081016040528093929190818152602001838380828437600092019190915250929550610987945050505050565b604080516001600160e01b03199092168252519081900360200190f35b34801561038b57600080fd5b50610268600480360360208110156103a257600080fd5b50356109c0565b3480156103b557600080fd5b50610268600480360360408110156103cc57600080fd5b6001600160a01b038235169190810190604081016020820135600160201b8111156103f657600080fd5b82018360208201111561040857600080fd5b803590602001918460208302840111600160201b8311171561042957600080fd5b509092509050610a2f565b34801561044057600080fd5b5061027f6004803603602081101561045757600080fd5b5035610cad565b34801561046a57600080fd5b506104916004803603602081101561048157600080fd5b50356001600160a01b0316610cbf565b604080516001600160a01b039097168752602087019590955261ffff90931685850152901515606085015215156080840152151560a0830152519081900360c00190f35b610268600480360360208110156104eb57600080fd5b5035610d13565b3480156104fe57600080fd5b5061027f610ea8565b34801561051357600080fd5b50610268610eaf565b34801561052857600080fd5b506102686004803603602081101561053f57600080fd5b810190602081018135600160201b81111561055957600080fd5b82018360208201111561056b57600080fd5b803590602001918460208302840111600160201b8311171561058c57600080fd5b509092509050610f63565b3480156105a357600080fd5b50610268611105565b3480156105b857600080fd5b506101d1611240565b3480156105cd57600080fd5b50610268600480360360408110156105e457600080fd5b508035906020013561124f565b3480156105fd57600080fd5b506106066112da565b604080519115158252519081900360200190f35b34801561062657600080fd5b5061062f61131b565b6040805161ffff9092168252519081900360200190f35b34801561065257600080fd5b5061027f6004803603602081101561066957600080fd5b5035611325565b34801561067c57600080fd5b506101d16004803603602081101561069357600080fd5b5035611337565b3480156106a657600080fd5b50610268600480360360408110156106bd57600080fd5b506001600160a01b038135169060200135611361565b3480156106df57600080fd5b50610606611462565b3480156106f457600080fd5b506107126004803603602081101561070b57600080fd5b50356114a2565b604080516001600160a01b03909316835260208301919091528051918290030190f35b34801561074157600080fd5b5061027f6114d7565b34801561075657600080fd5b5061062f61150e565b34801561076b57600080fd5b506102686004803603602081101561078257600080fd5b50356001600160a01b031661151e565b34801561079e57600080fd5b506101d1611628565b3480156107b357600080fd5b506101d1600480360360208110156107ca57600080fd5b5035611665565b3480156107dd57600080fd5b5061062f61168c565b600b546001600160a01b031681565b60028054141561083a576040805162461bcd60e51b815260206004820152601f60248201526000805160206121bd833981519152604482015290519081900360640190fd5b60028055600c5443101561088a576040805162461bcd60e51b81526020600482015260126024820152717761697420666f72204368726973746d617360701b604482015290519081900360640190fd5b336000908152600360205260409020600481015462010000900460ff1615156001146108b557600080fd5b60048101546301000000900460ff1615156001146108d257600080fd5b60038101546108e057600080fd5b80546001600160a01b0316156108f557600080fd5b60006109088484846003015460016116c7565b5090506007818154811061091857fe5b600091825260209091206002909102015482546001600160a01b0319166001600160a01b03909116178255600780548290811061095157fe5b90600052602060002090600202016001015482600101819055508160030160009055505060016002819055505050565b60055481565b600060405162461bcd60e51b81526004018080602001828103825260218152602001806122036021913960400191505060405180910390fd5b6109c8611a85565b6000546001600160a01b03908116911614610a2a576040805162461bcd60e51b815260206004820181905260248201527f4f776e61626c653a2063616c6c6572206973206e6f7420746865206f776e6572604482015290519081900360640190fd5b600555565b600280541415610a74576040805162461bcd60e51b815260206004820152601f60248201526000805160206121bd833981519152604482015290519081900360640190fd5b60028055600b5433906001600160a01b03168114610ac9576040805162461bcd60e51b815260206004820152600d60248201526c3737ba103cb7bab9103a3ab93760991b604482015290519081900360640190fd5b600c54431015610b15576040805162461bcd60e51b81526020600482015260126024820152717761697420666f72204368726973746d617360701b604482015290519081900360640190fd5b336000908152600360205260408082206001600160a01b038716835291206004810154600160201b900460ff161515600114610b5057600080fd5b60048101546301000000900460ff1615610bb1576040805162461bcd60e51b815260206004820152601a60248201527f63616e7420737465616c2066726f6d207468656d20616761696e000000000000604482015290519081900360640190fd5b6002808201546000908152600a60205260408082205492850154825290205411610c19576040805162461bcd60e51b815260206004820152601460248201527363616e7420737465616c2066726f6d207468656d60601b604482015290519081900360640190fd5b6000610c258686611a89565b6001600160a01b039788166000908152600360208190526040822080548754908c166001600160a01b031991821617885560019182015482890155600487018054630100000063ff000000199091161790556002978801805493880193909355865481168755958101839055919055600b805490941691909816179091555093909355505050565b600a6020526000908152604090205481565b6001600160a01b03908116600090815260036020526040902080546001820154600490920154921692909161ffff81169160ff62010000830481169263010000008104821692600160201b90910490911690565b600280541415610d58576040805162461bcd60e51b815260206004820152601f60248201526000805160206121bd833981519152604482015290519081900360640190fd5b60028055600554341015610db3576040805162461bcd60e51b815260206004820181905260248201527f796f75206172652073656e64696e6720696e636f727265637420616d6f756e74604482015290519081900360640190fd5b33600090815260036020526040902060040154600160201b900460ff1615610e22576040805162461bcd60e51b815260206004820152601b60248201527f6f6e6c79206f6e65207469636b65742070657220616464726573730000000000604482015290519081900360640190fd5b610e2b81611dc3565b5050336000818152600360205260408120600401805464ff000000001962ff000019909116620100001716600160201b1790556006805460018181018355919092527ff652222313e28459528d920b65115c16c04f3efc82aaedc97be59f3f377c0d3f90910180546001600160a01b031916909217909155600255565b6006545b90565b610eb7611a85565b6000546001600160a01b03908116911614610f19576040805162461bcd60e51b815260206004820181905260248201527f4f776e61626c653a2063616c6c6572206973206e6f7420746865206f776e6572604482015290519081900360640190fd5b600080546040516001600160a01b03909116907f8be0079c531659141344cd1fd0a4f28419497f9722a3daafe3b4186f6b6457e0908390a3600080546001600160a01b0319169055565b600280541415610fa8576040805162461bcd60e51b815260206004820152601f60248201526000805160206121bd833981519152604482015290519081900360640190fd5b60028055600b5433906001600160a01b03168114610ffd576040805162461bcd60e51b815260206004820152600d60248201526c3737ba103cb7bab9103a3ab93760991b604482015290519081900360640190fd5b600c54431015611049576040805162461bcd60e51b81526020600482015260126024820152717761697420666f72204368726973746d617360701b604482015290519081900360640190fd5b336000908152600360205260408120600281015490919081906110709087908790846116c7565b915091506007828154811061108157fe5b600091825260209091206002909102015483546001600160a01b0319166001600160a01b0390911617835560078054839081106110ba57fe5b6000918252602082206002918202016001908101548682015594810191909155600b80546001600160a01b0319166001600160a01b0393909316929092179091559190915550505050565b600c54431015611151576040805162461bcd60e51b81526020600482015260126024820152717761697420666f72204368726973746d617360701b604482015290519081900360640190fd5b60005b60065481101561123d576000600360006006848154811061117157fe5b60009182526020808320909101546001600160a01b03908116845290830193909352604090910190208054600680549294509216916323b872dd91309190869081106111b957fe5b60009182526020822001546001860154604080516001600160e01b031960e088901b1681526001600160a01b03958616600482015294909216602485015260448401525160648084019382900301818387803b15801561121857600080fd5b505af115801561122c573d6000803e3d6000fd5b505060019093019250611154915050565b50565b6000546001600160a01b031690565b336001600160a01b037f000000000000000000000000000000000000000000000000000000000000000016146112cc576040805162461bcd60e51b815260206004820152601f60248201527f4f6e6c7920565246436f6f7264696e61746f722063616e2066756c66696c6c00604482015290519081900360640190fd5b6112d68282611f21565b5050565b3360009081526003602052604081206004810154600160201b900460ff16611306576000915050610eac565b600401546301000000900460ff169050610eac565b60045461ffff1681565b60016020526000908152604090205481565b60006006828154811061134657fe5b6000918252602090912001546001600160a01b031692915050565b604080516323b872dd60e01b81523360048201523060248201526044810183905290516001600160a01b038416916323b872dd91606480830192600092919082900301818387803b1580156113b557600080fd5b505af11580156113c9573d6000803e3d6000fd5b5050604080518082019091526001600160a01b039485168152602081019384526007805460018101825560009190915290517fa66cc928b5edb82af9bd49922954155ab7b0942694bea4ce44661d9a8736c688600290920291820180546001600160a01b03191691909616179094555050517fa66cc928b5edb82af9bd49922954155ab7b0942694bea4ce44661d9a8736c68990910155565b3360009081526003602052604081206004810154600160201b900460ff1661148e576000915050610eac565b6004015462010000900460ff169050610eac565b600781815481106114af57fe5b6000918252602090912060029091020180546001909101546001600160a01b03909116915082565b3360009081526003602052604081206004810154600160201b900460ff16611503576000915050610eac565b600101549050610eac565b60045462010000900461ffff1681565b611526611a85565b6000546001600160a01b03908116911614611588576040805162461bcd60e51b815260206004820181905260248201527f4f776e61626c653a2063616c6c6572206973206e6f7420746865206f776e6572604482015290519081900360640190fd5b6001600160a01b0381166115cd5760405162461bcd60e51b81526004018080602001828103825260268152602001806121dd6026913960400191505060405180910390fd5b600080546040516001600160a01b03808516939216917f8be0079c531659141344cd1fd0a4f28419497f9722a3daafe3b4186f6b6457e091a3600080546001600160a01b0319166001600160a01b0392909216919091179055565b3360009081526003602052604081206004810154600160201b900460ff16611654576000915050610eac565b546001600160a01b03169050610eac565b6006818154811061167257fe5b6000918252602090912001546001600160a01b0316905081565b3360009081526003602052604081206004810154600160201b900460ff166116b8576000915050610eac565b6004015461ffff169050610eac565b60065460009081908514611722576040805162461bcd60e51b815260206004820152601b60248201527f6875682067657420796f7572206c656e6774687320736f727465640000000000604482015290519081900360640190fd5b600185141561173657506000905080611a7c565b600360008787600081811061174757fe5b905060200201356001600160a01b03166001600160a01b03166001600160a01b0316815260200190815260200160002060040160029054906101000a900460ff16151560011515146117d3576040805162461bcd60e51b815260206004820152601060248201526f646f6e74206265206368656174696e6760801b604482015290519081900360640190fd5b6000600a6000600360008a8a60008181106117ea57fe5b905060200201356001600160a01b03166001600160a01b03166001600160a01b031681526020019081526020016000206002015481526020019081526020016000205490506000600190505b60065460001901811015611a79576003600089898481811061185457fe5b905060200201356001600160a01b03166001600160a01b03166001600160a01b0316815260200190815260200160002060040160029054906101000a900460ff16151560011515146118e0576040805162461bcd60e51b815260206004820152601060248201526f646f6e74206265206368656174696e6760801b604482015290519081900360640190fd5b6000600a6000600360008c8c878181106118f657fe5b905060200201356001600160a01b03166001600160a01b03166001600160a01b0316815260200190815260200160002060020154815260200190815260200160002054905080831115611990576040805162461bcd60e51b815260206004820152601d60248201527f696e636f72726563746c79206f726465726564207475726e7320617272000000604482015290519081900360640190fd5b600086156119e357600360008b8b868181106119a857fe5b905060200201356001600160a01b03166001600160a01b03166001600160a01b03168152602001908152602001600020600201549050611a2a565b600360008b8b868181106119f357fe5b905060200201356001600160a01b03166001600160a01b03166001600160a01b031681526020019081526020016000206003015490505b87811415611a6f576006549295508592600184011415611a4d5760009450611a6f565b898984600101818110611a5c57fe5b905060200201356001600160a01b031694505b5050600101611836565b50505b94509492505050565b3390565b6006546000908214611ae2576040805162461bcd60e51b815260206004820152601b60248201527f6875682067657420796f7572206c656e6774687320736f727465640000000000604482015290519081900360640190fd5b6001821415611af357506000611dbd565b6003600084846000818110611b0457fe5b905060200201356001600160a01b03166001600160a01b03166001600160a01b0316815260200190815260200160002060040160029054906101000a900460ff1615156001151514611b90576040805162461bcd60e51b815260206004820152601060248201526f646f6e74206265206368656174696e6760801b604482015290519081900360640190fd5b6000600a60006003600087876000818110611ba757fe5b905060200201356001600160a01b03166001600160a01b03166001600160a01b031681526020019081526020016000206002015481526020019081526020016000205490506000600190505b60065460001901811015611dba5760036000868684818110611c1157fe5b905060200201356001600160a01b03166001600160a01b03166001600160a01b0316815260200190815260200160002060040160029054906101000a900460ff1615156001151514611c9d576040805162461bcd60e51b815260206004820152601060248201526f646f6e74206265206368656174696e6760801b604482015290519081900360640190fd5b6000600a600060036000898987818110611cb357fe5b905060200201356001600160a01b03166001600160a01b03166001600160a01b0316815260200190815260200160002060020154815260200190815260200160002054905080831115611d4d576040805162461bcd60e51b815260206004820152601d60248201527f696e636f72726563746c79206f726465726564207475726e7320617272000000604482015290519081900360640190fd5b33868684818110611d5a57fe5b905060200201356001600160a01b03166001600160a01b03161415611db157600654600183011415611d8f5760009350611db1565b858583600101818110611d9e57fe5b905060200201356001600160a01b031693505b50600101611bf3565b50505b92915050565b336000908152600360205260408120600281015415611e29576040805162461bcd60e51b815260206004820152601c60248201527f63616e742067656e6572617465206d6f7265207468616e206f6e636500000000604482015290519081900360640190fd5b600954604080516370a0823160e01b815230600482015290516001600160a01b037f000000000000000000000000000000000000000000000000000000000000000016916370a08231916024808301926020929190829003018186803b158015611e9257600080fd5b505afa158015611ea6573d6000803e3d6000fd5b505050506040513d6020811015611ebc57600080fd5b50511015611f03576040805162461bcd60e51b815260206004820152600f60248201526e6e6f7420656e6f756768204c494e4b60881b604482015290519081900360640190fd5b611f1260085460095485611f33565b60029091018190559050919050565b6000918252600a602052604090912055565b60007f00000000000000000000000000000000000000000000000000000000000000006001600160a01b0316634000aea07f000000000000000000000000000000000000000000000000000000000000000085878660405160200180838152602001828152602001925050506040516020818303038152906040526040518463ffffffff1660e01b815260040180846001600160a01b0316815260200183815260200180602001828103825283818151815260200191508051906020019080838360005b8381101561200f578181015183820152602001611ff7565b50505050905090810190601f16801561203c5780820380516001836020036101000a031916815260200191505b50945050505050602060405180830381600087803b15801561205d57600080fd5b505af1158015612071573d6000803e3d6000fd5b505050506040513d602081101561208757600080fd5b50506000848152600160205260408120546120a7908690859030906120e8565b6000868152600160208190526040909120549192506120c6919061212f565b6000868152600160205260409020556120df8582612190565b95945050505050565b60408051602080820196909652808201949094526001600160a01b039290921660608401526080808401919091528151808403909101815260a09092019052805191012090565b600082820183811015612189576040805162461bcd60e51b815260206004820152601b60248201527f536166654d6174683a206164646974696f6e206f766572666c6f770000000000604482015290519081900360640190fd5b9392505050565b60408051602080820194909452808201929092528051808303820181526060909201905280519101209056fe5265656e7472616e637947756172643a207265656e7472616e742063616c6c004f776e61626c653a206e6577206f776e657220697320746865207a65726f20616464726573736465706f73697420746865204e46547320776974682072654e46542066726f6e74a26469706673582212203e68262e4df52eb8a46fac7ee6aac89cedd8534d3239098cabd6c7f1189579c064736f6c634300060c0033",
  "linkReferences": {},
  "deployedLinkReferences": {}
}