{
  "_format": "hh-sol-artifact-1",
  "contractName": "WhiteElephant",
  "sourceName": "contracts/WhiteElephant.sol",
  "abi": [
    {
      "inputs": [],
      "stateMutability": "nonpayable",
      "type": "constructor"
    },
    {
      "anonymous": false,
      "inputs": [
        {
          "indexed": true,
          "internalType": "address",
          "name": "previousOwner",
          "type": "address"
        },
        {
          "indexed": true,
          "internalType": "address",
          "name": "newOwner",
          "type": "address"
        }
      ],
      "name": "OwnershipTransferred",
      "type": "event"
    },
    {
      "inputs": [
        {
          "internalType": "uint256",
          "name": "",
          "type": "uint256"
        }
      ],
      "name": "allNfts",
      "outputs": [
        {
          "internalType": "contract ERC721",
          "name": "nft",
          "type": "address"
        },
        {
          "internalType": "uint256",
          "name": "tokenId",
          "type": "uint256"
        }
      ],
      "stateMutability": "view",
      "type": "function"
    },
    {
      "inputs": [
        {
          "internalType": "uint256",
          "name": "_userProvidedSeed",
          "type": "uint256"
        }
      ],
      "name": "buyTicket",
      "outputs": [],
      "stateMutability": "payable",
      "type": "function"
    },
    {
      "inputs": [],
      "name": "christmasTimestamp",
      "outputs": [
        {
          "internalType": "uint256",
          "name": "",
          "type": "uint256"
        }
      ],
      "stateMutability": "view",
      "type": "function"
    },
    {
      "inputs": [],
      "name": "currNftToUnwrap",
      "outputs": [
        {
          "internalType": "uint16",
          "name": "",
          "type": "uint16"
        }
      ],
      "stateMutability": "view",
      "type": "function"
    },
    {
      "inputs": [
        {
          "internalType": "contract ERC721",
          "name": "_nft",
          "type": "address"
        },
        {
          "internalType": "uint256",
          "name": "_tokenId",
          "type": "uint256"
        }
      ],
      "name": "depositNft",
      "outputs": [],
      "stateMutability": "nonpayable",
      "type": "function"
    },
    {
      "inputs": [
        {
          "internalType": "address[]",
          "name": "_turns",
          "type": "address[]"
        }
      ],
      "name": "endEvent",
      "outputs": [],
      "stateMutability": "nonpayable",
      "type": "function"
    },
    {
      "inputs": [
        {
          "internalType": "bytes32",
          "name": "",
          "type": "bytes32"
        }
      ],
      "name": "entropy",
      "outputs": [
        {
          "internalType": "uint256",
          "name": "",
          "type": "uint256"
        }
      ],
      "stateMutability": "view",
      "type": "function"
    },
    {
      "inputs": [
        {
          "internalType": "address",
          "name": "_player",
          "type": "address"
        }
      ],
      "name": "getPlayerInfo",
      "outputs": [
        {
          "internalType": "address",
          "name": "nft",
          "type": "address"
        },
        {
          "internalType": "uint256",
          "name": "tokenId",
          "type": "uint256"
        },
        {
          "internalType": "bytes32",
          "name": "randomnessRequestId",
          "type": "bytes32"
        },
        {
          "internalType": "bytes32",
          "name": "stealerRequestId",
          "type": "bytes32"
        },
        {
          "internalType": "bool",
          "name": "hasTicket",
          "type": "bool"
        },
        {
          "internalType": "bool",
          "name": "wasStolenFrom",
          "type": "bool"
        },
        {
          "internalType": "bool",
          "name": "exists",
          "type": "bool"
        }
      ],
      "stateMutability": "view",
      "type": "function"
    },
    {
      "inputs": [
        {
          "internalType": "uint256",
          "name": "_number",
          "type": "uint256"
        }
      ],
      "name": "getPlayerNumber",
      "outputs": [
        {
          "internalType": "address",
          "name": "",
          "type": "address"
        }
      ],
      "stateMutability": "view",
      "type": "function"
    },
    {
      "inputs": [
        {
          "internalType": "bytes32",
          "name": "",
          "type": "bytes32"
        }
      ],
      "name": "nonces",
      "outputs": [
        {
          "internalType": "uint256",
          "name": "",
          "type": "uint256"
        }
      ],
      "stateMutability": "view",
      "type": "function"
    },
    {
      "inputs": [],
      "name": "numberOfPlayers",
      "outputs": [
        {
          "internalType": "uint256",
          "name": "",
          "type": "uint256"
        }
      ],
      "stateMutability": "view",
      "type": "function"
    },
    {
      "inputs": [
        {
          "internalType": "address",
          "name": "",
          "type": "address"
        },
        {
          "internalType": "address",
          "name": "",
          "type": "address"
        },
        {
          "internalType": "uint256",
          "name": "",
          "type": "uint256"
        },
        {
          "internalType": "bytes",
          "name": "",
          "type": "bytes"
        }
      ],
      "name": "onERC721Received",
      "outputs": [
        {
          "internalType": "bytes4",
          "name": "",
          "type": "bytes4"
        }
      ],
      "stateMutability": "nonpayable",
      "type": "function"
    },
    {
      "inputs": [],
      "name": "orderNum",
      "outputs": [
        {
          "internalType": "uint16",
          "name": "",
          "type": "uint16"
        }
      ],
      "stateMutability": "view",
      "type": "function"
    },
    {
      "inputs": [],
      "name": "owner",
      "outputs": [
        {
          "internalType": "address",
          "name": "",
          "type": "address"
        }
      ],
      "stateMutability": "view",
      "type": "function"
    },
    {
      "inputs": [
        {
          "internalType": "uint256",
          "name": "",
          "type": "uint256"
        }
      ],
      "name": "players",
      "outputs": [
        {
          "internalType": "address",
          "name": "",
          "type": "address"
        }
      ],
      "stateMutability": "view",
      "type": "function"
    },
    {
      "inputs": [],
      "name": "playersTurn",
      "outputs": [
        {
          "internalType": "address",
          "name": "",
          "type": "address"
        }
      ],
      "stateMutability": "view",
      "type": "function"
    },
    {
      "inputs": [
        {
          "internalType": "bytes32",
          "name": "requestId",
          "type": "bytes32"
        },
        {
          "internalType": "uint256",
          "name": "randomness",
          "type": "uint256"
        }
      ],
      "name": "rawFulfillRandomness",
      "outputs": [],
      "stateMutability": "nonpayable",
      "type": "function"
    },
    {
      "inputs": [],
      "name": "renounceOwnership",
      "outputs": [],
      "stateMutability": "nonpayable",
      "type": "function"
    },
    {
      "inputs": [
        {
          "internalType": "uint256",
          "name": "_value",
          "type": "uint256"
        }
      ],
      "name": "setTicketPrice",
      "outputs": [],
      "stateMutability": "nonpayable",
      "type": "function"
    },
    {
      "inputs": [
        {
          "internalType": "address",
          "name": "_theirAddress",
          "type": "address"
        },
        {
          "internalType": "address[]",
          "name": "_order",
          "type": "address[]"
        },
        {
          "internalType": "address[]",
          "name": "redro_",
          "type": "address[]"
        }
      ],
      "name": "stealNft",
      "outputs": [],
      "stateMutability": "nonpayable",
      "type": "function"
    },
    {
      "inputs": [],
      "name": "ticketPrice",
      "outputs": [
        {
          "internalType": "uint256",
          "name": "",
          "type": "uint256"
        }
      ],
      "stateMutability": "view",
      "type": "function"
    },
    {
      "inputs": [
        {
          "internalType": "address",
          "name": "newOwner",
          "type": "address"
        }
      ],
      "name": "transferOwnership",
      "outputs": [],
      "stateMutability": "nonpayable",
      "type": "function"
    },
    {
      "inputs": [
        {
          "internalType": "address[]",
          "name": "order",
          "type": "address[]"
        },
        {
          "internalType": "address[]",
          "name": "redro",
          "type": "address[]"
        }
      ],
      "name": "unwrap",
      "outputs": [],
      "stateMutability": "nonpayable",
      "type": "function"
    },
    {
      "inputs": [
        {
          "internalType": "address[]",
          "name": "_order",
          "type": "address[]"
        }
      ],
      "name": "unwrapAfterSteal",
      "outputs": [],
      "stateMutability": "nonpayable",
      "type": "function"
    },
    {
      "inputs": [
        {
          "internalType": "address",
          "name": "erc20",
          "type": "address"
        }
      ],
      "name": "withdrawERC20",
      "outputs": [],
      "stateMutability": "nonpayable",
      "type": "function"
    },
    {
      "inputs": [
        {
          "internalType": "address",
          "name": "nft",
          "type": "address"
        },
        {
          "internalType": "uint256",
          "name": "tokenId",
          "type": "uint256"
        }
      ],
      "name": "withdrawERC721",
      "outputs": [],
      "stateMutability": "nonpayable",
      "type": "function"
    },
    {
      "inputs": [],
      "name": "withdrawEth",
      "outputs": [],
      "stateMutability": "nonpayable",
      "type": "function"
    }
  ],
  "bytecode": "0x60c060405260048054600161ffff19909116811763ffff0000191690915566038d7ea4c680006005556078600c55600d819055600e5534801561004157600080fd5b5073dd3782915140c8f3b190b5d67eac6dc5760c46e973a36085f69e2889c224210f603d836748e7dc00886000610076610113565b600080546001600160a01b0319166001600160a01b0383169081178255604051929350917f8be0079c531659141344cd1fd0a4f28419497f9722a3daafe3b4186f6b6457e0908290a3506001600160601b0319606092831b811660a052911b1660805260016002557f6c3699283bda56ad74f6b855546325b68d482e983852a7a82979cc4807b641f460085567016345785d8a0000600955610117565b3390565b60805160601c60a05160601c61273f61014a600039806113d7528061242c52508061231252806123fd525061273f6000f3fe60806040526004361061019c5760003560e01c806394985ddd116100ec578063c529de651161008a578063f2fde38b11610064578063f2fde38b14610825578063f3e414f814610858578063f4f3b20014610891578063f71d96cb146108c45761019c565b8063c529de6514610748578063f0178c8314610795578063f06102ed146107aa5761019c565b80639fce6fb5116100c65780639fce6fb5146106bb578063a0ef91df146106e5578063a72e2cd6146106fa578063c03a83ac146107335761019c565b806394985ddd146106355780639d78c834146106655780639e317f12146106915761019c565b806359328401116101595780636f4bda17116101335780636f4bda171461052b578063715018a6146105405780638b5c218f146105555780638da5cb5b146106205761019c565b806359328401146103b85780635cfa8c501461043357806367dd74ca1461050e5761019c565b806306880689146101a157806308cade1b146101d25780631209b1f61461024f578063150b7a02146102765780631598165014610364578063523ed4401461038e575b600080fd5b3480156101ad57600080fd5b506101b66108ee565b604080516001600160a01b039092168252519081900360200190f35b3480156101de57600080fd5b5061024d600480360360208110156101f557600080fd5b810190602081018135600160201b81111561020f57600080fd5b82018360208201111561022157600080fd5b803590602001918460208302840111600160201b8311171561024257600080fd5b5090925090506108fd565b005b34801561025b57600080fd5b50610264610a89565b60408051918252519081900360200190f35b34801561028257600080fd5b506103476004803603608081101561029957600080fd5b6001600160a01b03823581169260208101359091169160408201359190810190608081016060820135600160201b8111156102d357600080fd5b8201836020820111156102e557600080fd5b803590602001918460018302840111600160201b8311171561030657600080fd5b91908080601f016020809104026020016040519081016040528093929190818152602001838380828437600092019190915250929550610a8f945050505050565b604080516001600160e01b03199092168252519081900360200190f35b34801561037057600080fd5b5061024d6004803603602081101561038757600080fd5b5035610ac8565b34801561039a57600080fd5b50610264600480360360208110156103b157600080fd5b5035610b25565b3480156103c457600080fd5b506103eb600480360360208110156103db57600080fd5b50356001600160a01b0316610b37565b604080516001600160a01b039098168852602088019690965286860194909452606086019290925215156080850152151560a0840152151560c0830152519081900360e00190f35b34801561043f57600080fd5b5061024d6004803603606081101561045657600080fd5b6001600160a01b038235169190810190604081016020820135600160201b81111561048057600080fd5b82018360208201111561049257600080fd5b803590602001918460208302840111600160201b831117156104b357600080fd5b919390929091602081019035600160201b8111156104d057600080fd5b8201836020820111156104e257600080fd5b803590602001918460208302840111600160201b8311171561050357600080fd5b509092509050610b91565b61024d6004803603602081101561052457600080fd5b5035610ef5565b34801561053757600080fd5b5061026461108a565b34801561054c57600080fd5b5061024d611090565b34801561056157600080fd5b5061024d6004803603604081101561057857600080fd5b810190602081018135600160201b81111561059257600080fd5b8201836020820111156105a457600080fd5b803590602001918460208302840111600160201b831117156105c557600080fd5b919390929091602081019035600160201b8111156105e257600080fd5b8201836020820111156105f457600080fd5b803590602001918460208302840111600160201b8311171561061557600080fd5b509092509050611132565b34801561062c57600080fd5b506101b66113bd565b34801561064157600080fd5b5061024d6004803603604081101561065857600080fd5b50803590602001356113cc565b34801561067157600080fd5b5061067a611457565b6040805161ffff9092168252519081900360200190f35b34801561069d57600080fd5b50610264600480360360208110156106b457600080fd5b5035611461565b3480156106c757600080fd5b506101b6600480360360208110156106de57600080fd5b5035611473565b3480156106f157600080fd5b5061024d61149d565b34801561070657600080fd5b5061024d6004803603604081101561071d57600080fd5b506001600160a01b038135169060200135611524565b34801561073f57600080fd5b50610264611625565b34801561075457600080fd5b506107726004803603602081101561076b57600080fd5b503561162b565b604080516001600160a01b03909316835260208301919091528051918290030190f35b3480156107a157600080fd5b5061067a611660565b3480156107b657600080fd5b5061024d600480360360208110156107cd57600080fd5b810190602081018135600160201b8111156107e757600080fd5b8201836020820111156107f957600080fd5b803590602001918460208302840111600160201b8311171561081a57600080fd5b509092509050611670565b34801561083157600080fd5b5061024d6004803603602081101561084857600080fd5b50356001600160a01b03166117c5565b34801561086457600080fd5b5061024d6004803603604081101561087b57600080fd5b506001600160a01b0381351690602001356118bd565b34801561089d57600080fd5b5061024d600480360360208110156108b457600080fd5b50356001600160a01b0316611985565b3480156108d057600080fd5b506101b6600480360360208110156108e757600080fd5b5035611b66565b600b546001600160a01b031681565b600280541415610942576040805162461bcd60e51b815260206004820152601f6024820152600080516020612683833981519152604482015290519081900360640190fd5b60028055600d54421015610992576040805162461bcd60e51b81526020600482015260126024820152717761697420666f72204368726973746d617360701b604482015290519081900360640190fd5b336000908152600360205260409020600481015462010000900460ff1615156001146109bd57600080fd5b60048101546301000000900460ff1615156001146109da57600080fd5b60038101546109e857600080fd5b80546001600160a01b0316156109fd57600080fd5b6000610a10848484600301546001611b8d565b50905060078181548110610a2057fe5b600091825260209091206002909102015482546001600160a01b0319166001600160a01b039091161782556007805482908110610a5957fe5b90600052602060002090600202016001015482600101819055508160030160009055505060016002819055505050565b60055481565b600060405162461bcd60e51b81526004018080602001828103825260218152602001806126c96021913960400191505060405180910390fd5b610ad0611f4b565b6000546001600160a01b03908116911614610b20576040805162461bcd60e51b815260206004820181905260248201526000805160206126ea833981519152604482015290519081900360640190fd5b600555565b600a6020526000908152604090205481565b6001600160a01b03908116600090815260036020819052604090912080546001820154600283015493830154600490930154919094169460ff62010000830481169263010000008104821692600160201b90910490911690565b600280541415610bd6576040805162461bcd60e51b815260206004820152601f6024820152600080516020612683833981519152604482015290519081900360640190fd5b60028055600d54421015610c26576040805162461bcd60e51b81526020600482015260126024820152717761697420666f72204368726973746d617360701b604482015290519081900360640190fd5b336000908152600360205260408082206001600160a01b038816835291206004810154600160201b900460ff161515600114610c6157600080fd5b60048101546301000000900460ff1615610cc2576040805162461bcd60e51b815260206004820152601a60248201527f63616e7420737465616c2066726f6d207468656d20616761696e000000000000604482015290519081900360640190fd5b6002808201546000908152600a60205260408082205492850154825290205411610d2a576040805162461bcd60e51b815260206004820152601460248201527363616e7420737465616c2066726f6d207468656d60601b604482015290519081900360640190fd5b6000610d368787611f4f565b600c54600e549192500142600182821115610e1c575b82821115610d6457600c549290920191600101610d4c565b81831115610d7157600019015b60008060005b600654811015610def5783610da9578a8a82818110610d9257fe5b905060200201356001600160a01b03169150610def565b8215610db6576001840393505b338b8b83818110610dc357fe5b905060200201356001600160a01b03166001600160a01b03161415610de757600192505b600101610d77565b50600b546001600160a01b0382811691161415610e1957600b80546001600160a01b031916331790555b50505b600b546001600160a01b03163314610e6b576040805162461bcd60e51b815260206004820152600d60248201526c3737ba103cb7bab9103a3ab93760991b604482015290519081900360640190fd5b5050506001600160a01b039788166000908152600360208190526040822080548654908c166001600160a01b031991821617875560019182015482880155600486018054630100000063ff000000199091161790556002968701805493870193909355855481168655948101839055919055600b8054909316919098161790559490945550505050565b600280541415610f3a576040805162461bcd60e51b815260206004820152601f6024820152600080516020612683833981519152604482015290519081900360640190fd5b60028055600554341015610f95576040805162461bcd60e51b815260206004820181905260248201527f796f75206172652073656e64696e6720696e636f727265637420616d6f756e74604482015290519081900360640190fd5b33600090815260036020526040902060040154600160201b900460ff1615611004576040805162461bcd60e51b815260206004820152601b60248201527f6f6e6c79206f6e65207469636b65742070657220616464726573730000000000604482015290519081900360640190fd5b61100d81612289565b5050336000818152600360205260408120600401805464ff000000001962ff000019909116620100001716600160201b1790556006805460018181018355919092527ff652222313e28459528d920b65115c16c04f3efc82aaedc97be59f3f377c0d3f90910180546001600160a01b031916909217909155600255565b60065490565b611098611f4b565b6000546001600160a01b039081169116146110e8576040805162461bcd60e51b815260206004820181905260248201526000805160206126ea833981519152604482015290519081900360640190fd5b600080546040516001600160a01b03909116907f8be0079c531659141344cd1fd0a4f28419497f9722a3daafe3b4186f6b6457e0908390a3600080546001600160a01b0319169055565b600280541415611177576040805162461bcd60e51b815260206004820152601f6024820152600080516020612683833981519152604482015290519081900360640190fd5b60028055600d544210156111c7576040805162461bcd60e51b81526020600482015260126024820152717761697420666f72204368726973746d617360701b604482015290519081900360640190fd5b336000908152600360205260408120600281015490919081906111ee908890889084611b8d565b600c54600e5492945090925001426001828211156112d7575b8282111561121f57600c549290920191600101611207565b8183111561122c57600019015b60008060005b6006548110156112aa5783611264578a8a8281811061124d57fe5b905060200201356001600160a01b031691506112aa565b8215611271576001840393505b338b8b8381811061127e57fe5b905060200201356001600160a01b03166001600160a01b031614156112a257600192505b600101611232565b50600b546001600160a01b03828116911614156112d457600b80546001600160a01b031916331790555b50505b600b546001600160a01b03163314611326576040805162461bcd60e51b815260206004820152600d60248201526c3737ba103cb7bab9103a3ab93760991b604482015290519081900360640190fd5b6007858154811061133357fe5b600091825260209091206002909102015486546001600160a01b0319166001600160a01b03909116178655600780548690811061136c57fe5b6000918252602082206002918202016001908101548982015597810191909155600b80546001600160a01b0319166001600160a01b03969096169590951790945550600e5550919091555050505050565b6000546001600160a01b031690565b336001600160a01b037f00000000000000000000000000000000000000000000000000000000000000001614611449576040805162461bcd60e51b815260206004820152601f60248201527f4f6e6c7920565246436f6f7264696e61746f722063616e2066756c66696c6c00604482015290519081900360640190fd5b61145382826123e7565b5050565b60045461ffff1681565b60016020526000908152604090205481565b60006006828154811061148257fe5b6000918252602090912001546001600160a01b031692915050565b6114a5611f4b565b6000546001600160a01b039081169116146114f5576040805162461bcd60e51b815260206004820181905260248201526000805160206126ea833981519152604482015290519081900360640190fd5b60405133904780156108fc02916000818181858888f19350505050158015611521573d6000803e3d6000fd5b50565b604080516323b872dd60e01b81523360048201523060248201526044810183905290516001600160a01b038416916323b872dd91606480830192600092919082900301818387803b15801561157857600080fd5b505af115801561158c573d6000803e3d6000fd5b5050604080518082019091526001600160a01b039485168152602081019384526007805460018101825560009190915290517fa66cc928b5edb82af9bd49922954155ab7b0942694bea4ce44661d9a8736c688600290920291820180546001600160a01b03191691909616179094555050517fa66cc928b5edb82af9bd49922954155ab7b0942694bea4ce44661d9a8736c68990910155565b600d5481565b6007818154811061163857fe5b6000918252602090912060029091020180546001909101546001600160a01b03909116915082565b60045462010000900461ffff1681565b600d544210156116bc576040805162461bcd60e51b81526020600482015260126024820152717761697420666f72204368726973746d617360701b604482015290519081900360640190fd5b6116c68282611f4f565b5060005b6006548110156117c057600060036000600684815481106116e757fe5b60009182526020808320909101546001600160a01b0390811684529083019390935260409091019020805490925016156117b7578054600680546001600160a01b03909216916323b872dd9130918690811061173f57fe5b60009182526020822001546001860154604080516001600160e01b031960e088901b1681526001600160a01b03958616600482015294909216602485015260448401525160648084019382900301818387803b15801561179e57600080fd5b505af11580156117b2573d6000803e3d6000fd5b505050505b506001016116ca565b505050565b6117cd611f4b565b6000546001600160a01b0390811691161461181d576040805162461bcd60e51b815260206004820181905260248201526000805160206126ea833981519152604482015290519081900360640190fd5b6001600160a01b0381166118625760405162461bcd60e51b81526004018080602001828103825260268152602001806126a36026913960400191505060405180910390fd5b600080546040516001600160a01b03808516939216917f8be0079c531659141344cd1fd0a4f28419497f9722a3daafe3b4186f6b6457e091a3600080546001600160a01b0319166001600160a01b0392909216919091179055565b6118c5611f4b565b6000546001600160a01b03908116911614611915576040805162461bcd60e51b815260206004820181905260248201526000805160206126ea833981519152604482015290519081900360640190fd5b604080516323b872dd60e01b81523060048201523360248201526044810183905290516001600160a01b038416916323b872dd91606480830192600092919082900301818387803b15801561196957600080fd5b505af115801561197d573d6000803e3d6000fd5b505050505050565b61198d611f4b565b6000546001600160a01b039081169116146119dd576040805162461bcd60e51b815260206004820181905260248201526000805160206126ea833981519152604482015290519081900360640190fd5b6040805163095ea7b360e01b81523360048201526f0fffffffffffffffffffffffffffffff6024820152905182916001600160a01b0383169163095ea7b3916044808201926020929091908290030181600087803b158015611a3e57600080fd5b505af1158015611a52573d6000803e3d6000fd5b505050506040513d6020811015611a6857600080fd5b5050604080516370a0823160e01b815230600482015290516001600160a01b0383169163a9059cbb91339184916370a0823191602480820192602092909190829003018186803b158015611abb57600080fd5b505afa158015611acf573d6000803e3d6000fd5b505050506040513d6020811015611ae557600080fd5b5051604080516001600160e01b031960e086901b1681526001600160a01b03909316600484015260248301919091525160448083019260209291908290030181600087803b158015611b3657600080fd5b505af1158015611b4a573d6000803e3d6000fd5b505050506040513d6020811015611b6057600080fd5b50505050565b60068181548110611b7357fe5b6000918252602090912001546001600160a01b0316905081565b60065460009081908514611be8576040805162461bcd60e51b815260206004820152601b60248201527f6875682067657420796f7572206c656e6774687320736f727465640000000000604482015290519081900360640190fd5b6001851415611bfc57506000905080611f42565b6003600087876000818110611c0d57fe5b905060200201356001600160a01b03166001600160a01b03166001600160a01b0316815260200190815260200160002060040160029054906101000a900460ff1615156001151514611c99576040805162461bcd60e51b815260206004820152601060248201526f646f6e74206265206368656174696e6760801b604482015290519081900360640190fd5b6000600a6000600360008a8a6000818110611cb057fe5b905060200201356001600160a01b03166001600160a01b03166001600160a01b031681526020019081526020016000206002015481526020019081526020016000205490506000600190505b60065460001901811015611f3f5760036000898984818110611d1a57fe5b905060200201356001600160a01b03166001600160a01b03166001600160a01b0316815260200190815260200160002060040160029054906101000a900460ff1615156001151514611da6576040805162461bcd60e51b815260206004820152601060248201526f646f6e74206265206368656174696e6760801b604482015290519081900360640190fd5b6000600a6000600360008c8c87818110611dbc57fe5b905060200201356001600160a01b03166001600160a01b03166001600160a01b0316815260200190815260200160002060020154815260200190815260200160002054905080831115611e56576040805162461bcd60e51b815260206004820152601d60248201527f696e636f72726563746c79206f726465726564207475726e7320617272000000604482015290519081900360640190fd5b60008615611ea957600360008b8b86818110611e6e57fe5b905060200201356001600160a01b03166001600160a01b03166001600160a01b03168152602001908152602001600020600201549050611ef0565b600360008b8b86818110611eb957fe5b905060200201356001600160a01b03166001600160a01b03166001600160a01b031681526020019081526020016000206003015490505b87811415611f35576006549295508592600184011415611f135760009450611f35565b898984600101818110611f2257fe5b905060200201356001600160a01b031694505b5050600101611cfc565b50505b94509492505050565b3390565b6006546000908214611fa8576040805162461bcd60e51b815260206004820152601b60248201527f6875682067657420796f7572206c656e6774687320736f727465640000000000604482015290519081900360640190fd5b6001821415611fb957506000612283565b6003600084846000818110611fca57fe5b905060200201356001600160a01b03166001600160a01b03166001600160a01b0316815260200190815260200160002060040160029054906101000a900460ff1615156001151514612056576040805162461bcd60e51b815260206004820152601060248201526f646f6e74206265206368656174696e6760801b604482015290519081900360640190fd5b6000600a6000600360008787600081811061206d57fe5b905060200201356001600160a01b03166001600160a01b03166001600160a01b031681526020019081526020016000206002015481526020019081526020016000205490506000600190505b6006546000190181101561228057600360008686848181106120d757fe5b905060200201356001600160a01b03166001600160a01b03166001600160a01b0316815260200190815260200160002060040160029054906101000a900460ff1615156001151514612163576040805162461bcd60e51b815260206004820152601060248201526f646f6e74206265206368656174696e6760801b604482015290519081900360640190fd5b6000600a60006003600089898781811061217957fe5b905060200201356001600160a01b03166001600160a01b03166001600160a01b0316815260200190815260200160002060020154815260200190815260200160002054905080831115612213576040805162461bcd60e51b815260206004820152601d60248201527f696e636f72726563746c79206f726465726564207475726e7320617272000000604482015290519081900360640190fd5b3386868481811061222057fe5b905060200201356001600160a01b03166001600160a01b03161415612277576006546001830114156122555760009350612277565b85858360010181811061226457fe5b905060200201356001600160a01b031693505b506001016120b9565b50505b92915050565b3360009081526003602052604081206002810154156122ef576040805162461bcd60e51b815260206004820152601c60248201527f63616e742067656e6572617465206d6f7265207468616e206f6e636500000000604482015290519081900360640190fd5b600954604080516370a0823160e01b815230600482015290516001600160a01b037f000000000000000000000000000000000000000000000000000000000000000016916370a08231916024808301926020929190829003018186803b15801561235857600080fd5b505afa15801561236c573d6000803e3d6000fd5b505050506040513d602081101561238257600080fd5b505110156123c9576040805162461bcd60e51b815260206004820152600f60248201526e6e6f7420656e6f756768204c494e4b60881b604482015290519081900360640190fd5b6123d8600854600954856123f9565b60029091018190559050919050565b6000918252600a602052604090912055565b60007f00000000000000000000000000000000000000000000000000000000000000006001600160a01b0316634000aea07f000000000000000000000000000000000000000000000000000000000000000085878660405160200180838152602001828152602001925050506040516020818303038152906040526040518463ffffffff1660e01b815260040180846001600160a01b0316815260200183815260200180602001828103825283818151815260200191508051906020019080838360005b838110156124d55781810151838201526020016124bd565b50505050905090810190601f1680156125025780820380516001836020036101000a031916815260200191505b50945050505050602060405180830381600087803b15801561252357600080fd5b505af1158015612537573d6000803e3d6000fd5b505050506040513d602081101561254d57600080fd5b505060008481526001602052604081205461256d908690859030906125ae565b60008681526001602081905260409091205491925061258c91906125f5565b6000868152600160205260409020556125a58582612656565b95945050505050565b60408051602080820196909652808201949094526001600160a01b039290921660608401526080808401919091528151808403909101815260a09092019052805191012090565b60008282018381101561264f576040805162461bcd60e51b815260206004820152601b60248201527f536166654d6174683a206164646974696f6e206f766572666c6f770000000000604482015290519081900360640190fd5b9392505050565b60408051602080820194909452808201929092528051808303820181526060909201905280519101209056fe5265656e7472616e637947756172643a207265656e7472616e742063616c6c004f776e61626c653a206e6577206f776e657220697320746865207a65726f20616464726573736465706f73697420746865204e46547320776974682072654e46542066726f6e744f776e61626c653a2063616c6c6572206973206e6f7420746865206f776e6572a2646970667358221220cbf9d23081a2a4ef376b108dbde45ec73ddefc487e4e86a52f373db4d77be61364736f6c634300060c0033",
  "linkReferences": {},
  "deployedLinkReferences": {}
}