{
  "contractName": "WhiteElephant",
  "abi": [
    {
      "anonymous": false,
      "inputs": [
        {
          "indexed": true,
          "internalType": "address",
          "name": "previousOwner",
          "type": "address"
        },
        {
          "indexed": true,
          "internalType": "address",
          "name": "newOwner",
          "type": "address"
        }
      ],
      "name": "OwnershipTransferred",
      "type": "event"
    },
    {
      "inputs": [],
      "name": "currNftToUnwrap",
      "outputs": [
        {
          "internalType": "uint256",
          "name": "",
          "type": "uint256"
        }
      ],
      "stateMutability": "view",
      "type": "function",
      "constant": true
    },
    {
      "inputs": [],
      "name": "currentUnwrapper",
      "outputs": [
        {
          "internalType": "uint8",
          "name": "",
          "type": "uint8"
        }
      ],
      "stateMutability": "view",
      "type": "function",
      "constant": true
    },
    {
      "inputs": [
        {
          "internalType": "uint256",
          "name": "",
          "type": "uint256"
        }
      ],
      "name": "nfts",
      "outputs": [
        {
          "internalType": "contract ERC721",
          "name": "nft",
          "type": "address"
        },
        {
          "internalType": "uint256",
          "name": "tokenId",
          "type": "uint256"
        }
      ],
      "stateMutability": "view",
      "type": "function",
      "constant": true
    },
    {
      "inputs": [],
      "name": "orderNum",
      "outputs": [
        {
          "internalType": "uint8",
          "name": "",
          "type": "uint8"
        }
      ],
      "stateMutability": "view",
      "type": "function",
      "constant": true
    },
    {
      "inputs": [],
      "name": "owner",
      "outputs": [
        {
          "internalType": "address",
          "name": "",
          "type": "address"
        }
      ],
      "stateMutability": "view",
      "type": "function",
      "constant": true
    },
    {
      "inputs": [
        {
          "internalType": "uint256",
          "name": "",
          "type": "uint256"
        }
      ],
      "name": "playas",
      "outputs": [
        {
          "internalType": "address",
          "name": "",
          "type": "address"
        }
      ],
      "stateMutability": "view",
      "type": "function",
      "constant": true
    },
    {
      "inputs": [],
      "name": "renounceOwnership",
      "outputs": [],
      "stateMutability": "nonpayable",
      "type": "function"
    },
    {
      "inputs": [
        {
          "internalType": "address",
          "name": "newOwner",
          "type": "address"
        }
      ],
      "name": "transferOwnership",
      "outputs": [],
      "stateMutability": "nonpayable",
      "type": "function"
    },
    {
      "inputs": [],
      "name": "buyTicket",
      "outputs": [],
      "stateMutability": "payable",
      "type": "function",
      "payable": true
    },
    {
      "inputs": [
        {
          "internalType": "contract ERC721",
          "name": "_nft",
          "type": "address"
        },
        {
          "internalType": "uint256",
          "name": "_tokenId",
          "type": "uint256"
        }
      ],
      "name": "depositNft",
      "outputs": [],
      "stateMutability": "nonpayable",
      "type": "function"
    },
    {
      "inputs": [
        {
          "internalType": "uint256",
          "name": "_stealFrom",
          "type": "uint256"
        },
        {
          "internalType": "address",
          "name": "_theirAddress",
          "type": "address"
        }
      ],
      "name": "stealNft",
      "outputs": [],
      "stateMutability": "nonpayable",
      "type": "function"
    },
    {
      "inputs": [],
      "name": "unwrap",
      "outputs": [],
      "stateMutability": "nonpayable",
      "type": "function"
    },
    {
      "inputs": [],
      "name": "unwrapAfterStolen",
      "outputs": [],
      "stateMutability": "nonpayable",
      "type": "function"
    },
    {
      "inputs": [],
      "name": "endEvent",
      "outputs": [],
      "stateMutability": "nonpayable",
      "type": "function"
    }
  ],
  "bytecode": "0x608060405234801561001057600080fd5b5060006100216100c460201b60201c565b9050806000806101000a81548173ffffffffffffffffffffffffffffffffffffffff021916908373ffffffffffffffffffffffffffffffffffffffff1602179055508073ffffffffffffffffffffffffffffffffffffffff16600073ffffffffffffffffffffffffffffffffffffffff167f8be0079c531659141344cd1fd0a4f28419497f9722a3daafe3b4186f6b6457e060405160405180910390a3506100cc565b600033905090565b6119fe806100db6000396000f3fe6080604052600436106100dd5760003560e01c80639d78c8341161007f578063ef2a209a11610059578063ef2a209a1461033e578063f0178c8314610355578063f2fde38b14610380578063fd02ffb7146103d1576100dd565b80639d78c834146102ab578063a72e2cd6146102d9578063edca914c14610334576100dd565b8063600d003b116100bb578063600d003b146101d7578063715018a61461023c57806386ec6177146102535780638da5cb5b1461026a576100dd565b8063265aa621146100e257806328ad0ccb1461014e5780634255f4ea1461017c575b600080fd5b3480156100ee57600080fd5b5061011b6004803603602081101561010557600080fd5b81019080803590602001909291905050506103e8565b604051808373ffffffffffffffffffffffffffffffffffffffff1681526020018281526020019250505060405180910390f35b34801561015a57600080fd5b5061016361043c565b604051808260ff16815260200191505060405180910390f35b34801561018857600080fd5b506101d56004803603604081101561019f57600080fd5b8101908080359060200190929190803573ffffffffffffffffffffffffffffffffffffffff16906020019092919050505061044f565b005b3480156101e357600080fd5b50610210600480360360208110156101fa57600080fd5b81019080803590602001909291905050506108d8565b604051808273ffffffffffffffffffffffffffffffffffffffff16815260200191505060405180910390f35b34801561024857600080fd5b50610251610917565b005b34801561025f57600080fd5b50610268610a9d565b005b34801561027657600080fd5b5061027f610d06565b604051808273ffffffffffffffffffffffffffffffffffffffff16815260200191505060405180910390f35b3480156102b757600080fd5b506102c0610d2f565b604051808260ff16815260200191505060405180910390f35b3480156102e557600080fd5b50610332600480360360408110156102fc57600080fd5b81019080803573ffffffffffffffffffffffffffffffffffffffff16906020019092919080359060200190929190505050610d42565b005b61033c610e96565b005b34801561034a57600080fd5b50610353611191565b005b34801561036157600080fd5b5061036a611552565b6040518082815260200191505060405180910390f35b34801561038c57600080fd5b506103cf600480360360208110156103a357600080fd5b81019080803573ffffffffffffffffffffffffffffffffffffffff169060200190929190505050611558565b005b3480156103dd57600080fd5b506103e6611763565b005b600581815481106103f857600080fd5b90600052602060002090600202016000915090508060000160009054906101000a900473ffffffffffffffffffffffffffffffffffffffff16908060010154905082565b600460009054906101000a900460ff1681565b33600460009054906101000a900460ff1660ff16600160008373ffffffffffffffffffffffffffffffffffffffff1673ffffffffffffffffffffffffffffffffffffffff16815260200190815260200160002060020160009054906101000a900460ff1660ff1614610529576040517f08c379a000000000000000000000000000000000000000000000000000000000815260040180806020018281038252600e8152602001807f6e6f7420796f7572206f7264657200000000000000000000000000000000000081525060200191505060405180910390fd5b6000600160003373ffffffffffffffffffffffffffffffffffffffff1673ffffffffffffffffffffffffffffffffffffffff1681526020019081526020016000209050838160020160009054906101000a900460ff1660ff16116105f5576040517f08c379a00000000000000000000000000000000000000000000000000000000081526004018080602001828103825260148152602001807f63616e7420737465616c2066726f6d207468656d00000000000000000000000081525060200191505060405180910390fd5b60001515600160008573ffffffffffffffffffffffffffffffffffffffff1673ffffffffffffffffffffffffffffffffffffffff16815260200190815260200160002060020160029054906101000a900460ff161515146106be576040517f08c379a000000000000000000000000000000000000000000000000000000000815260040180806020018281038252601a8152602001807f63616e7420737465616c2066726f6d207468656d20616761696e00000000000081525060200191505060405180910390fd5b600160008473ffffffffffffffffffffffffffffffffffffffff1673ffffffffffffffffffffffffffffffffffffffff16815260200190815260200160002060000160009054906101000a900473ffffffffffffffffffffffffffffffffffffffff168160000160006101000a81548173ffffffffffffffffffffffffffffffffffffffff021916908373ffffffffffffffffffffffffffffffffffffffff160217905550600160008473ffffffffffffffffffffffffffffffffffffffff1673ffffffffffffffffffffffffffffffffffffffff16815260200190815260200160002060010154816001018190555060018060008573ffffffffffffffffffffffffffffffffffffffff1673ffffffffffffffffffffffffffffffffffffffff16815260200190815260200160002060020160026101000a81548160ff0219169083151502179055506000600160008573ffffffffffffffffffffffffffffffffffffffff1673ffffffffffffffffffffffffffffffffffffffff16815260200190815260200160002060000160006101000a81548173ffffffffffffffffffffffffffffffffffffffff021916908373ffffffffffffffffffffffffffffffffffffffff1602179055506000600160008573ffffffffffffffffffffffffffffffffffffffff1673ffffffffffffffffffffffffffffffffffffffff1681526020019081526020016000206001018190555050505050565b600381815481106108e857600080fd5b906000526020600020016000915054906101000a900473ffffffffffffffffffffffffffffffffffffffff1681565b61091f611974565b73ffffffffffffffffffffffffffffffffffffffff1660008054906101000a900473ffffffffffffffffffffffffffffffffffffffff1673ffffffffffffffffffffffffffffffffffffffff16146109df576040517f08c379a00000000000000000000000000000000000000000000000000000000081526004018080602001828103825260208152602001807f4f776e61626c653a2063616c6c6572206973206e6f7420746865206f776e657281525060200191505060405180910390fd5b600073ffffffffffffffffffffffffffffffffffffffff1660008054906101000a900473ffffffffffffffffffffffffffffffffffffffff1673ffffffffffffffffffffffffffffffffffffffff167f8be0079c531659141344cd1fd0a4f28419497f9722a3daafe3b4186f6b6457e060405160405180910390a360008060006101000a81548173ffffffffffffffffffffffffffffffffffffffff021916908373ffffffffffffffffffffffffffffffffffffffff160217905550565b610aa5611974565b73ffffffffffffffffffffffffffffffffffffffff1660008054906101000a900473ffffffffffffffffffffffffffffffffffffffff1673ffffffffffffffffffffffffffffffffffffffff1614610b65576040517f08c379a00000000000000000000000000000000000000000000000000000000081526004018080602001828103825260208152602001807f4f776e61626c653a2063616c6c6572206973206e6f7420746865206f776e657281525060200191505060405180910390fd5b60005b600380549050811015610d035760006001600060038481548110610b8857fe5b9060005260206000200160009054906101000a900473ffffffffffffffffffffffffffffffffffffffff1673ffffffffffffffffffffffffffffffffffffffff1673ffffffffffffffffffffffffffffffffffffffff16815260200190815260200160002090508060000160009054906101000a900473ffffffffffffffffffffffffffffffffffffffff1673ffffffffffffffffffffffffffffffffffffffff166323b872dd3060038581548110610c3d57fe5b9060005260206000200160009054906101000a900473ffffffffffffffffffffffffffffffffffffffff1684600101546040518463ffffffff1660e01b8152600401808473ffffffffffffffffffffffffffffffffffffffff1681526020018373ffffffffffffffffffffffffffffffffffffffff1681526020018281526020019350505050600060405180830381600087803b158015610cdd57600080fd5b505af1158015610cf1573d6000803e3d6000fd5b50505050508080600101915050610b68565b50565b60008060009054906101000a900473ffffffffffffffffffffffffffffffffffffffff16905090565b600260009054906101000a900460ff1681565b8173ffffffffffffffffffffffffffffffffffffffff166323b872dd3330846040518463ffffffff1660e01b8152600401808473ffffffffffffffffffffffffffffffffffffffff1681526020018373ffffffffffffffffffffffffffffffffffffffff1681526020018281526020019350505050600060405180830381600087803b158015610dd157600080fd5b505af1158015610de5573d6000803e3d6000fd5b50505050600560405180604001604052808473ffffffffffffffffffffffffffffffffffffffff16815260200183815250908060018154018082558091505060019003906000526020600020906002020160009091909190915060008201518160000160006101000a81548173ffffffffffffffffffffffffffffffffffffffff021916908373ffffffffffffffffffffffffffffffffffffffff1602179055506020820151816001015550505050565b66038d7ea4c68000341015610f13576040517f08c379a00000000000000000000000000000000000000000000000000000000081526004018080602001828103825260148152602001807f7469636b657420707269636520697320302e303100000000000000000000000081525060200191505060405180910390fd5b60001515600160003373ffffffffffffffffffffffffffffffffffffffff1673ffffffffffffffffffffffffffffffffffffffff16815260200190815260200160002060020160039054906101000a900460ff16151514610fdc576040517f08c379a000000000000000000000000000000000000000000000000000000000815260040180806020018281038252601b8152602001807f6f6e6c79206f6e65207469636b6574207065722061646472657373000000000081525060200191505060405180910390fd5b60018060003373ffffffffffffffffffffffffffffffffffffffff1673ffffffffffffffffffffffffffffffffffffffff16815260200190815260200160002060020160016101000a81548160ff02191690831515021790555060018060003373ffffffffffffffffffffffffffffffffffffffff1673ffffffffffffffffffffffffffffffffffffffff16815260200190815260200160002060020160036101000a81548160ff021916908315150217905550600260009054906101000a900460ff16600160003373ffffffffffffffffffffffffffffffffffffffff1673ffffffffffffffffffffffffffffffffffffffff16815260200190815260200160002060020160006101000a81548160ff021916908360ff1602179055506002600081819054906101000a900460ff168092919060010191906101000a81548160ff021916908360ff160217905550506003339080600181540180825580915050600190039060005260206000200160009091909190916101000a81548173ffffffffffffffffffffffffffffffffffffffff021916908373ffffffffffffffffffffffffffffffffffffffff160217905550565b6000600160003373ffffffffffffffffffffffffffffffffffffffff1673ffffffffffffffffffffffffffffffffffffffff16815260200190815260200160002090508060020160039054906101000a900460ff16611258576040517f08c379a000000000000000000000000000000000000000000000000000000000815260040180806020018281038252600d8152602001807f796f752063616e7420706c61790000000000000000000000000000000000000081525060200191505060405180910390fd5b600115158160020160019054906101000a900460ff161515146112e3576040517f08c379a00000000000000000000000000000000000000000000000000000000081526004018080602001828103825260168152602001807f796f75206d75737420686176652061207469636b65740000000000000000000081525060200191505060405180910390fd5b600115158160020160029054906101000a900460ff1615151461136e576040517f08c379a000000000000000000000000000000000000000000000000000000000815260040180806020018281038252601e8152602001807f796f75206d7573742068617665206265656e2073746f6c656e2066726f6d000081525060200191505060405180910390fd5b600073ffffffffffffffffffffffffffffffffffffffff168160000160009054906101000a900473ffffffffffffffffffffffffffffffffffffffff1673ffffffffffffffffffffffffffffffffffffffff1614611417576040517f08c379a00000000000000000000000000000000000000000000000000000000081526004018080602001828103825260268152602001806119a36026913960400191505060405180910390fd5b6000816001015414611491576040517f08c379a000000000000000000000000000000000000000000000000000000000815260040180806020018281038252600b8152602001807f7765697264206572726f7200000000000000000000000000000000000000000081525060200191505060405180910390fd5b6005600754815481106114a057fe5b906000526020600020906002020160000160009054906101000a900473ffffffffffffffffffffffffffffffffffffffff168160000160006101000a81548173ffffffffffffffffffffffffffffffffffffffff021916908373ffffffffffffffffffffffffffffffffffffffff16021790555060056007548154811061152357fe5b906000526020600020906002020160010154816001018190555060076000815480929190600101919050555050565b60075481565b611560611974565b73ffffffffffffffffffffffffffffffffffffffff1660008054906101000a900473ffffffffffffffffffffffffffffffffffffffff1673ffffffffffffffffffffffffffffffffffffffff1614611620576040517f08c379a00000000000000000000000000000000000000000000000000000000081526004018080602001828103825260208152602001807f4f776e61626c653a2063616c6c6572206973206e6f7420746865206f776e657281525060200191505060405180910390fd5b600073ffffffffffffffffffffffffffffffffffffffff168173ffffffffffffffffffffffffffffffffffffffff1614156116a6576040517f08c379a000000000000000000000000000000000000000000000000000000000815260040180806020018281038252602681526020018061197d6026913960400191505060405180910390fd5b8073ffffffffffffffffffffffffffffffffffffffff1660008054906101000a900473ffffffffffffffffffffffffffffffffffffffff1673ffffffffffffffffffffffffffffffffffffffff167f8be0079c531659141344cd1fd0a4f28419497f9722a3daafe3b4186f6b6457e060405160405180910390a3806000806101000a81548173ffffffffffffffffffffffffffffffffffffffff021916908373ffffffffffffffffffffffffffffffffffffffff16021790555050565b33600460009054906101000a900460ff1660ff16600160008373ffffffffffffffffffffffffffffffffffffffff1673ffffffffffffffffffffffffffffffffffffffff16815260200190815260200160002060020160009054906101000a900460ff1660ff161461183d576040517f08c379a000000000000000000000000000000000000000000000000000000000815260040180806020018281038252600e8152602001807f6e6f7420796f7572206f7264657200000000000000000000000000000000000081525060200191505060405180910390fd5b6000600160003373ffffffffffffffffffffffffffffffffffffffff1673ffffffffffffffffffffffffffffffffffffffff168152602001908152602001600020905060056007548154811061188f57fe5b906000526020600020906002020160000160009054906101000a900473ffffffffffffffffffffffffffffffffffffffff168160000160006101000a81548173ffffffffffffffffffffffffffffffffffffffff021916908373ffffffffffffffffffffffffffffffffffffffff16021790555060056007548154811061191257fe5b90600052602060002090600202016001015481600101819055506007600081548092919060010191905055506004600081819054906101000a900460ff168092919060010191906101000a81548160ff021916908360ff160217905550505050565b60003390509056fe4f776e61626c653a206e6577206f776e657220697320746865207a65726f2061646472657373796f75206861766520616c726561647920756e7772617070656420616674657220737465616ca26469706673582212206fb5b78eaf468129de1bea8f88005d93c51eb0b548c774a0ad8f557851c6575564736f6c63430007050033",
  "immutableReferences": {},
  "source": "// SPDX-License-Identifier: MIT\npragma solidity ^0.7.5;\n\nimport \"../node_modules/@openzeppelin/contracts/token/ERC721/ERC721.sol\";\nimport \"../node_modules/@openzeppelin/contracts/access/Ownable.sol\";\n\ncontract WhiteElephant is Ownable {\n    struct Info {\n        address nft;\n        uint256 tokenId;\n        uint8 orderNum;\n        bool hasTicket;\n        bool wasStolenFrom;\n        bool exists;\n    }\n\n    struct Nft {\n        ERC721 nft;\n        uint256 tokenId;\n    }\n\n    mapping(address => Info) private info;\n\n    // todo: this will be chainlink\n    uint8 public orderNum;\n\n    // todo: decide on the max total number of players\n    address[] public playas;\n\n    uint8 public currentUnwrapper;\n\n    Nft[] public nfts;\n\n    // * for chainlink integration\n    uint256[] private unavailableNfts;\n\n    uint256 public currNftToUnwrap;\n\n    modifier yourOrder(address _sender) {\n        require(info[_sender].orderNum == currentUnwrapper, \"not your order\");\n        _;\n    }\n\n    modifier onChristmas() {\n        // todo: uncomment\n        // require(block.timestamp >= 1232321, \"wait for Christmas\");\n        _;\n    }\n\n    function buyTicket() public payable {\n        require(msg.value >= 0.001 ether, \"ticket price is 0.01\");\n        require(\n            info[msg.sender].exists == false,\n            \"only one ticket per address\"\n        );\n\n        info[msg.sender].hasTicket = true;\n        info[msg.sender].exists = true;\n        // give them a chainlink VRF here for the order in which they will go\n\n        // todo: refactor for chainlink\n        info[msg.sender].orderNum = orderNum;\n        orderNum++;\n\n        playas.push(msg.sender);\n    }\n\n    function depositNft(ERC721 _nft, uint256 _tokenId) public {\n        // will fail if not approved\n        _nft.transferFrom(msg.sender, address(this), _tokenId);\n        // todo: idea about deposits in the future. fees\n        nfts.push(Nft(_nft, _tokenId));\n    }\n\n    function stealNft(uint256 _stealFrom, address _theirAddress)\n        public\n        yourOrder(msg.sender)\n        onChristmas\n    {\n        // 1. user must not have the nft\n        // 2. can only steal from the people before them\n        // 3. ensure it is their order\n        Info storage player = info[msg.sender];\n\n        require(player.orderNum > _stealFrom, \"cant steal from them\");\n        require(\n            info[_theirAddress].wasStolenFrom == false,\n            \"cant steal from them again\"\n        );\n\n        player.nft = info[_theirAddress].nft;\n        player.tokenId = info[_theirAddress].tokenId;\n\n        info[_theirAddress].wasStolenFrom = true;\n        info[_theirAddress].nft = address(0);\n        info[_theirAddress].tokenId = 0;\n    }\n\n    // on Christmas Eve, this gets unlocked\n    function unwrap() public yourOrder(msg.sender) onChristmas {\n        Info storage player = info[msg.sender];\n        // todo: require christmas\n        // ensure the order is respected\n\n        // todo: integrate chainlink. right now linear unwrapping\n        player.nft = address(nfts[currNftToUnwrap].nft);\n        player.tokenId = nfts[currNftToUnwrap].tokenId;\n        currNftToUnwrap++;\n        // ----\n\n        // increment the unwrapper\n        currentUnwrapper++;\n    }\n\n    // * potential issue if this is called at the same time as unwrap by someone else\n    // and both get the same NFT... For cases like that, ensure we have the ability\n    // to send NFTs ourselves too\n    function unwrapAfterStolen() public onChristmas {\n        Info storage player = info[msg.sender];\n        require(player.exists, \"you cant play\");\n\n        // ensure that the user was stolen from\n        require(player.hasTicket == true, \"you must have a ticket\");\n        require(player.wasStolenFrom == true, \"you must have been stolen from\");\n        require(\n            address(player.nft) == address(0),\n            \"you have already unwrapped after steal\"\n        );\n        require(player.tokenId == 0, \"weird error\");\n\n        // todo: integrate chainlink for random unwrapping\n        player.nft = address(nfts[currNftToUnwrap].nft);\n        player.tokenId = nfts[currNftToUnwrap].tokenId;\n        currNftToUnwrap++;\n        // ------\n    }\n\n    function endEvent() public onlyOwner onChristmas {\n        // todo: require christmas\n        for (uint256 i = 0; i < playas.length; i++) {\n            Info storage player = info[playas[i]];\n            ERC721(player.nft).transferFrom(\n                address(this),\n                playas[i],\n                player.tokenId\n            );\n        }\n    }\n}\n",
  "sourcePath": "/home/shredder/git/renft/white-elephant/contracts/WhiteElephant.sol",
  "compiler": {
    "name": "solc",
    "version": "0.7.5+commit.eb77ed08.Emscripten.clang"
  },
  "schemaVersion": "3.3.2",
  "updatedAt": "2020-12-15T16:17:14.995Z",
  "networkType": "ethereum",
  "devdoc": {
    "kind": "dev",
    "methods": {
      "owner()": {
        "details": "Returns the address of the current owner."
      },
      "renounceOwnership()": {
        "details": "Leaves the contract without owner. It will not be possible to call `onlyOwner` functions anymore. Can only be called by the current owner. NOTE: Renouncing ownership will leave the contract without an owner, thereby removing any functionality that is only available to the owner."
      },
      "transferOwnership(address)": {
        "details": "Transfers ownership of the contract to a new account (`newOwner`). Can only be called by the current owner."
      }
    },
    "version": 1
  },
  "userdoc": {
    "kind": "user",
    "methods": {},
    "version": 1
  }
}